{
  "address": "0x102819A0867080A81C1Ffbf03d6b89408067FA52",
  "abi": [
    {
      "inputs": [
        {
          "internalType": "uint16",
          "name": "maxBatchSize_",
          "type": "uint16"
        },
        {
          "internalType": "uint16",
          "name": "collectionSize_",
          "type": "uint16"
        }
      ],
      "stateMutability": "nonpayable",
      "type": "constructor"
    },
    {
      "anonymous": false,
      "inputs": [
        {
          "indexed": true,
          "internalType": "address",
          "name": "owner",
          "type": "address"
        },
        {
          "indexed": true,
          "internalType": "address",
          "name": "approved",
          "type": "address"
        },
        {
          "indexed": true,
          "internalType": "uint256",
          "name": "tokenId",
          "type": "uint256"
        }
      ],
      "name": "Approval",
      "type": "event"
    },
    {
      "anonymous": false,
      "inputs": [
        {
          "indexed": true,
          "internalType": "address",
          "name": "owner",
          "type": "address"
        },
        {
          "indexed": true,
          "internalType": "address",
          "name": "operator",
          "type": "address"
        },
        {
          "indexed": false,
          "internalType": "bool",
          "name": "approved",
          "type": "bool"
        }
      ],
      "name": "ApprovalForAll",
      "type": "event"
    },
    {
      "anonymous": false,
      "inputs": [
        {
          "indexed": true,
          "internalType": "address",
          "name": "previousOwner",
          "type": "address"
        },
        {
          "indexed": true,
          "internalType": "address",
          "name": "newOwner",
          "type": "address"
        }
      ],
      "name": "OwnershipTransferred",
      "type": "event"
    },
    {
      "anonymous": false,
      "inputs": [
        {
          "indexed": true,
          "internalType": "address",
          "name": "from",
          "type": "address"
        },
        {
          "indexed": true,
          "internalType": "address",
          "name": "to",
          "type": "address"
        },
        {
          "indexed": true,
          "internalType": "uint256",
          "name": "tokenId",
          "type": "uint256"
        }
      ],
      "name": "Transfer",
      "type": "event"
    },
    {
      "inputs": [],
      "name": "MAX_LEVEL",
      "outputs": [
        {
          "internalType": "uint8",
          "name": "",
          "type": "uint8"
        }
      ],
      "stateMutability": "view",
      "type": "function"
    },
    {
      "inputs": [],
      "name": "MIN_LEVEL",
      "outputs": [
        {
          "internalType": "uint8",
          "name": "",
          "type": "uint8"
        }
      ],
      "stateMutability": "view",
      "type": "function"
    },
    {
      "inputs": [
        {
          "internalType": "address",
          "name": "_address",
          "type": "address"
        }
      ],
      "name": "addMinter",
      "outputs": [],
      "stateMutability": "nonpayable",
      "type": "function"
    },
    {
      "inputs": [
        {
          "internalType": "address",
          "name": "_address",
          "type": "address"
        }
      ],
      "name": "addUpdater",
      "outputs": [],
      "stateMutability": "nonpayable",
      "type": "function"
    },
    {
      "inputs": [
        {
          "internalType": "address",
          "name": "to",
          "type": "address"
        },
        {
          "internalType": "uint256",
          "name": "tokenId",
          "type": "uint256"
        }
      ],
      "name": "approve",
      "outputs": [],
      "stateMutability": "nonpayable",
      "type": "function"
    },
    {
      "inputs": [
        {
          "internalType": "address",
          "name": "owner",
          "type": "address"
        }
      ],
      "name": "balanceOf",
      "outputs": [
        {
          "internalType": "uint256",
          "name": "",
          "type": "uint256"
        }
      ],
      "stateMutability": "view",
      "type": "function"
    },
    {
      "inputs": [
        {
          "internalType": "uint256",
          "name": "tokenId",
          "type": "uint256"
        }
      ],
      "name": "getApproved",
      "outputs": [
        {
          "internalType": "address",
          "name": "",
          "type": "address"
        }
      ],
      "stateMutability": "view",
      "type": "function"
    },
    {
      "inputs": [
        {
          "internalType": "uint256",
          "name": "_tokenId",
          "type": "uint256"
        }
      ],
      "name": "getAvatar",
      "outputs": [
        {
          "components": [
            {
              "internalType": "bool",
              "name": "isKeeper",
              "type": "bool"
            },
            {
              "internalType": "string",
              "name": "name",
              "type": "string"
            },
            {
              "internalType": "uint256[7]",
              "name": "ability",
              "type": "uint256[7]"
            }
          ],
          "internalType": "struct Avatar.AvatarDataType",
          "name": "",
          "type": "tuple"
        }
      ],
      "stateMutability": "view",
      "type": "function"
    },
    {
      "inputs": [
        {
          "internalType": "address",
          "name": "sender",
          "type": "address"
        }
      ],
      "name": "getKeepers",
      "outputs": [
        {
          "internalType": "uint256[]",
          "name": "",
          "type": "uint256[]"
        }
      ],
      "stateMutability": "view",
      "type": "function"
    },
    {
      "inputs": [
        {
          "internalType": "uint256",
          "name": "tokenId",
          "type": "uint256"
        }
      ],
      "name": "getOwnershipData",
      "outputs": [
        {
          "components": [
            {
              "internalType": "address",
              "name": "addr",
              "type": "address"
            },
            {
              "internalType": "uint64",
              "name": "startTimestamp",
              "type": "uint64"
            }
          ],
          "internalType": "struct ERC721A.TokenOwnership",
          "name": "",
          "type": "tuple"
        }
      ],
      "stateMutability": "view",
      "type": "function"
    },
    {
      "inputs": [
        {
          "internalType": "uint256",
          "name": "_tokenId",
          "type": "uint256"
        },
        {
          "internalType": "enum AvatarBasic.Stat",
          "name": "key",
          "type": "uint8"
        }
      ],
      "name": "getSingleState",
      "outputs": [
        {
          "internalType": "uint256",
          "name": "",
          "type": "uint256"
        }
      ],
      "stateMutability": "view",
      "type": "function"
    },
    {
      "inputs": [],
      "name": "initialSum",
      "outputs": [
        {
          "internalType": "uint256",
          "name": "",
          "type": "uint256"
        }
      ],
      "stateMutability": "view",
      "type": "function"
    },
    {
      "inputs": [
        {
          "internalType": "address",
          "name": "owner",
          "type": "address"
        },
        {
          "internalType": "address",
          "name": "operator",
          "type": "address"
        }
      ],
      "name": "isApprovedForAll",
      "outputs": [
        {
          "internalType": "bool",
          "name": "",
          "type": "bool"
        }
      ],
      "stateMutability": "view",
      "type": "function"
    },
    {
      "inputs": [
        {
          "internalType": "uint256",
          "name": "tokenId",
          "type": "uint256"
        }
      ],
      "name": "isKeeper",
      "outputs": [
        {
          "internalType": "bool",
          "name": "",
          "type": "bool"
        }
      ],
      "stateMutability": "view",
      "type": "function"
    },
    {
      "inputs": [
        {
          "internalType": "address",
          "name": "to",
          "type": "address"
        },
        {
          "internalType": "uint8",
          "name": "quantity",
          "type": "uint8"
        },
        {
          "internalType": "uint8[][]",
          "name": "values",
          "type": "uint8[][]"
        },
        {
          "internalType": "string[]",
          "name": "metadataUris",
          "type": "string[]"
        },
        {
          "internalType": "string[]",
          "name": "names",
          "type": "string[]"
        }
      ],
      "name": "mintNFT",
      "outputs": [],
      "stateMutability": "nonpayable",
      "type": "function"
    },
    {
      "inputs": [],
      "name": "name",
      "outputs": [
        {
          "internalType": "string",
          "name": "",
          "type": "string"
        }
      ],
      "stateMutability": "view",
      "type": "function"
    },
    {
      "inputs": [],
      "name": "nextOwnerToExplicitlySet",
      "outputs": [
        {
          "internalType": "uint256",
          "name": "",
          "type": "uint256"
        }
      ],
      "stateMutability": "view",
      "type": "function"
    },
    {
      "inputs": [
        {
          "internalType": "address",
          "name": "owner",
          "type": "address"
        }
      ],
      "name": "numberMinted",
      "outputs": [
        {
          "internalType": "uint256",
          "name": "",
          "type": "uint256"
        }
      ],
      "stateMutability": "view",
      "type": "function"
    },
    {
      "inputs": [],
      "name": "owner",
      "outputs": [
        {
          "internalType": "address",
          "name": "",
          "type": "address"
        }
      ],
      "stateMutability": "view",
      "type": "function"
    },
    {
      "inputs": [
        {
          "internalType": "uint256",
          "name": "tokenId",
          "type": "uint256"
        }
      ],
      "name": "ownerOf",
      "outputs": [
        {
          "internalType": "address",
          "name": "",
          "type": "address"
        }
      ],
      "stateMutability": "view",
      "type": "function"
    },
    {
      "inputs": [
        {
          "internalType": "address",
          "name": "_address",
          "type": "address"
        }
      ],
      "name": "removeMinter",
      "outputs": [],
      "stateMutability": "nonpayable",
      "type": "function"
    },
    {
      "inputs": [
        {
          "internalType": "address",
          "name": "_address",
          "type": "address"
        }
      ],
      "name": "removeupdater",
      "outputs": [],
      "stateMutability": "nonpayable",
      "type": "function"
    },
    {
      "inputs": [],
      "name": "renounceOwnership",
      "outputs": [],
      "stateMutability": "nonpayable",
      "type": "function"
    },
    {
      "inputs": [
        {
          "internalType": "address",
          "name": "from",
          "type": "address"
        },
        {
          "internalType": "address",
          "name": "to",
          "type": "address"
        },
        {
          "internalType": "uint256",
          "name": "tokenId",
          "type": "uint256"
        }
      ],
      "name": "safeTransferFrom",
      "outputs": [],
      "stateMutability": "nonpayable",
      "type": "function"
    },
    {
      "inputs": [
        {
          "internalType": "address",
          "name": "from",
          "type": "address"
        },
        {
          "internalType": "address",
          "name": "to",
          "type": "address"
        },
        {
          "internalType": "uint256",
          "name": "tokenId",
          "type": "uint256"
        },
        {
          "internalType": "bytes",
          "name": "_data",
          "type": "bytes"
        }
      ],
      "name": "safeTransferFrom",
      "outputs": [],
      "stateMutability": "nonpayable",
      "type": "function"
    },
    {
      "inputs": [
        {
          "internalType": "address",
          "name": "operator",
          "type": "address"
        },
        {
          "internalType": "bool",
          "name": "approved",
          "type": "bool"
        }
      ],
      "name": "setApprovalForAll",
      "outputs": [],
      "stateMutability": "nonpayable",
      "type": "function"
    },
    {
      "inputs": [
        {
          "internalType": "uint256",
          "name": "_tokenId",
          "type": "uint256"
        },
        {
          "internalType": "uint8[]",
          "name": "value",
          "type": "uint8[]"
        }
      ],
      "name": "setAvatarState",
      "outputs": [],
      "stateMutability": "nonpayable",
      "type": "function"
    },
    {
      "inputs": [
        {
          "internalType": "uint256",
          "name": "_tokenId",
          "type": "uint256"
        },
        {
          "internalType": "enum AvatarBasic.Stat",
          "name": "key",
          "type": "uint8"
        },
        {
          "internalType": "uint256",
          "name": "value",
          "type": "uint256"
        }
      ],
      "name": "setSingleAvatarState",
      "outputs": [],
      "stateMutability": "nonpayable",
      "type": "function"
    },
    {
      "inputs": [
        {
          "internalType": "uint256",
          "name": "tokenId",
          "type": "uint256"
        },
        {
          "internalType": "string",
          "name": "uri",
          "type": "string"
        }
      ],
      "name": "setTokenUri",
      "outputs": [],
      "stateMutability": "nonpayable",
      "type": "function"
    },
    {
      "inputs": [
        {
          "internalType": "bytes4",
          "name": "interfaceId",
          "type": "bytes4"
        }
      ],
      "name": "supportsInterface",
      "outputs": [
        {
          "internalType": "bool",
          "name": "",
          "type": "bool"
        }
      ],
      "stateMutability": "view",
      "type": "function"
    },
    {
      "inputs": [],
      "name": "symbol",
      "outputs": [
        {
          "internalType": "string",
          "name": "",
          "type": "string"
        }
      ],
      "stateMutability": "view",
      "type": "function"
    },
    {
      "inputs": [
        {
          "internalType": "uint256",
          "name": "index",
          "type": "uint256"
        }
      ],
      "name": "tokenByIndex",
      "outputs": [
        {
          "internalType": "uint256",
          "name": "",
          "type": "uint256"
        }
      ],
      "stateMutability": "view",
      "type": "function"
    },
    {
      "inputs": [
        {
          "internalType": "address",
          "name": "owner",
          "type": "address"
        },
        {
          "internalType": "uint256",
          "name": "index",
          "type": "uint256"
        }
      ],
      "name": "tokenOfOwnerByIndex",
      "outputs": [
        {
          "internalType": "uint256",
          "name": "",
          "type": "uint256"
        }
      ],
      "stateMutability": "view",
      "type": "function"
    },
    {
      "inputs": [
        {
          "internalType": "uint256",
          "name": "tokenId",
          "type": "uint256"
        }
      ],
      "name": "tokenURI",
      "outputs": [
        {
          "internalType": "string",
          "name": "",
          "type": "string"
        }
      ],
      "stateMutability": "view",
      "type": "function"
    },
    {
      "inputs": [],
      "name": "totalSupply",
      "outputs": [
        {
          "internalType": "uint256",
          "name": "",
          "type": "uint256"
        }
      ],
      "stateMutability": "view",
      "type": "function"
    },
    {
      "inputs": [
        {
          "internalType": "address",
          "name": "from",
          "type": "address"
        },
        {
          "internalType": "address",
          "name": "to",
          "type": "address"
        },
        {
          "internalType": "uint256",
          "name": "tokenId",
          "type": "uint256"
        }
      ],
      "name": "transferFrom",
      "outputs": [],
      "stateMutability": "nonpayable",
      "type": "function"
    },
    {
      "inputs": [
        {
          "internalType": "address",
          "name": "newOwner",
          "type": "address"
        }
      ],
      "name": "transferOwnership",
      "outputs": [],
      "stateMutability": "nonpayable",
      "type": "function"
    },
    {
      "inputs": [
        {
          "internalType": "uint256",
          "name": "_tokenId",
          "type": "uint256"
        },
        {
          "internalType": "string",
          "name": "name",
          "type": "string"
        }
      ],
      "name": "updateName",
      "outputs": [],
      "stateMutability": "nonpayable",
      "type": "function"
    },
    {
      "inputs": [
        {
          "internalType": "uint256",
          "name": "_tokenId",
          "type": "uint256"
        },
        {
          "internalType": "enum AvatarBasic.Stat",
          "name": "key",
          "type": "uint8"
        },
        {
          "internalType": "uint256",
          "name": "delta",
          "type": "uint256"
        }
      ],
      "name": "upgradeState",
      "outputs": [],
      "stateMutability": "nonpayable",
      "type": "function"
    },
    {
      "inputs": [
        {
          "internalType": "uint256",
          "name": "tokenId",
          "type": "uint256"
        }
      ],
      "name": "upgradeToKeeper",
      "outputs": [],
      "stateMutability": "nonpayable",
      "type": "function"
    }
  ],
  "transactionHash": "0x35a8aa4fc9815934f357df769d14cb2672e4f6907f8d55b6116ced52b16ad538",
  "args": [
    20,
    1000
  ],
  "numDeployments": 1,
  "solcInputHash": "b474e0d835221309c977257c7f754341",
  "bytecode": "0x60c06040526000805560006007556023600a553480156200001f57600080fd5b5060405162003c8538038062003c85833981016040819052620000429162000239565b6040518060400160405280600b81526020016a283cb93296a0bb30ba30b960a91b8152506040518060400160405280600681526020016520bb30ba30b960d11b8152508361ffff168361ffff1660008111620000bb5760405162461bcd60e51b8152600401620000b2906200031d565b60405180910390fd5b60008211620000de5760405162461bcd60e51b8152600401620000b2906200030b565b8351620000f390600190602087019062000180565b5082516200010990600290602086019062000180565b5060a09190915260805250620001219050336200012e565b505060016009556200038a565b600880546001600160a01b038381166001600160a01b0319831681179093556040519116919082907f8be0079c531659141344cd1fd0a4f28419497f9722a3daafe3b4186f6b6457e090600090a35050565b8280546200018e906200032f565b90600052602060002090601f016020900481019282620001b25760008555620001fd565b82601f10620001cd57805160ff1916838001178555620001fd565b82800160010185558215620001fd579182015b82811115620001fd578251825591602001919060010190620001e0565b506200020b9291506200020f565b5090565b5b808211156200020b576000815560010162000210565b8051620002338162000376565b92915050565b600080604083850312156200024d57600080fd5b60006200025b858562000226565b92505060206200026e8582860162000226565b9150509250929050565b602781526000602082017f455243373231413a206d61782062617463682073697a65206d757374206265208152666e6f6e7a65726f60c81b602082015291505b5060400190565b602e81526000602082017f455243373231413a20636f6c6c656374696f6e206d757374206861766520612081526d6e6f6e7a65726f20737570706c7960901b60208201529150620002b8565b60208082528101620002338162000278565b602080825281016200023381620002bf565b6002810460018216806200034457607f821691505b602082108114156200035a576200035a62000360565b50919050565b634e487b7160e01b600052602260045260246000fd5b61ffff811681146200038757600080fd5b50565b60805160a0516138c7620003be60003960008181611d1801528181611d4201526120bc015260006114ac01526138c76000f3fe608060405234801561001057600080fd5b50600436106102485760003560e01c80638da5cb5b1161013b578063b88d4fde116100b8578063dfd0e4701161007c578063dfd0e470146104f0578063e7e296df14610503578063e985e9c514610523578063f00741011461055f578063f2fde38b1461057257600080fd5b8063b88d4fde146104a6578063bd60b83f146104b9578063c87b56dd146104c1578063d7224ba0146104d4578063dc33e681146104dd57600080fd5b80639f2296dc116100ff5780639f2296dc1461044f578063a22cb46514610462578063a4356bec14610475578063a49062d414610488578063a9305fa21461049d57600080fd5b80638da5cb5b146103f05780638e8f3016146104015780639231ab2a1461041457806395d89b4114610434578063983b2d561461043c57600080fd5b8063427175ff116101c957806357f7789e1161018d57806357f7789e1461039c578063609078ce146103af5780636352211e146103c257806370a08231146103d5578063715018a6146103e857600080fd5b8063427175ff1461033d57806342842e0e1461035057806343d24a5e146103635780634f6ccce71461037657806353e76f2c1461038957600080fd5b806318160ddd1161021057806318160ddd146102e057806323b872dd146102f15780632a095325146103045780632f745c59146103175780633092afd51461032a57600080fd5b806301ffc9a71461024d57806306fdde0314610276578063081812fc1461028b578063095ea7b3146102ab5780631328ec9b146102c0575b600080fd5b61026061025b366004612823565b610585565b60405161026d91906133a3565b60405180910390f35b61027e6105f2565b60405161026d91906133b1565b61029e61029936600461285f565b610684565b60405161026d9190613339565b6102be6102b9366004612739565b6106d2565b005b6102d36102ce36600461285f565b610759565b60405161026d9190613612565b6000545b60405161026d9190613631565b6102be6102ff366004612644565b610882565b6102be6103123660046128f4565b61088d565b6102e4610325366004612739565b61096c565b6102be6103383660046125ec565b610a57565b6102be61034b36600461285f565b610ada565b6102be61035e366004612644565b610b4a565b6102be6103713660046125ec565b610b65565b6102e461038436600461285f565b610bec565b6102be610397366004612926565b610c12565b6102be6103aa366004612926565b610cae565b6102606103bd36600461285f565b610d23565b61029e6103d036600461285f565b610e4b565b6102e46103e33660046125ec565b610e5d565b6102be610eaa565b6008546001600160a01b031661029e565b6102be61040f3660046128f4565b610ee0565b61042761042236600461285f565b611010565b60405161026d9190613623565b61027e61102d565b6102be61044a3660046125ec565b61103c565b6102e461045d3660046128c4565b6110c3565b6102be610470366004612709565b611233565b6102be6104833660046125ec565b6112cb565b610490600a81565b60405161026d919061363f565b6102e4600a5481565b6102be6104b4366004612691565b61134e565b610490600181565b61027e6104cf36600461285f565b611381565b6102e460075481565b6102e46104eb3660046125ec565b611448565b6102be6104fe366004612769565b611453565b6105166105113660046125ec565b6116e4565b60405161026d919061338b565b61026061053136600461260a565b6001600160a01b03918216600090815260066020908152604080832093909416825291909152205460ff1690565b6102be61056d36600461287d565b6117f0565b6102be6105803660046125ec565b611963565b60006001600160e01b031982166380ac58cd60e01b14806105b657506001600160e01b03198216635b5e139f60e01b145b806105d157506001600160e01b0319821663780e9d6360e01b145b806105ec57506301ffc9a760e01b6001600160e01b03198316145b92915050565b60606001805461060190613799565b80601f016020809104026020016040519081016040528092919081815260200182805461062d90613799565b801561067a5780601f1061064f5761010080835404028352916020019161067a565b820191906000526020600020905b81548152906001019060200180831161065d57829003601f168201915b5050505050905090565b6000610691826000541190565b6106b65760405162461bcd60e51b81526004016106ad906135e2565b60405180910390fd5b506000908152600560205260409020546001600160a01b031690565b60006106dd82610e4b565b9050806001600160a01b0316836001600160a01b031614156107115760405162461bcd60e51b81526004016106ad90613532565b336001600160a01b038216148061072d575061072d8133610531565b6107495760405162461bcd60e51b81526004016106ad90613462565b6107548383836119bf565b505050565b6107616122bf565b61076c826000541190565b6107885760405162461bcd60e51b81526004016106ad906134e2565b6000828152600d6020908152604091829020825160608101909352805460ff161515835260018101805491928401916107c090613799565b80601f01602080910402602001604051908101604052809291908181526020018280546107ec90613799565b80156108395780601f1061080e57610100808354040283529160200191610839565b820191906000526020600020905b81548152906001019060200180831161081c57829003601f168201915b50505091835250506040805160e081019182905260209092019190600284019060079082845b81548152602001906001019080831161085f575050505050815250509050919050565b610754838383611a1b565b336000908152600c602052604090205460ff166108bc5760405162461bcd60e51b81526004016106ad90613522565b6108c7836000541190565b6108e35760405162461bcd60e51b81526004016106ad906134c2565b600181108015906108f55750600a8111155b6109115760405162461bcd60e51b81526004016106ad906134a2565b6000838152600d6020526040902060028101828185600681111561094557634e487b7160e01b600052602160045260246000fd5b6007811061096357634e487b7160e01b600052603260045260246000fd5b01555050505050565b600061097783610e5d565b82106109955760405162461bcd60e51b81526004016106ad906133c2565b600080549080805b83811015610a3e576000818152600360209081526040918290208251808401909352546001600160a01b038116808452600160a01b9091046001600160401b031691830191909152156109ef57805192505b876001600160a01b0316836001600160a01b03161415610a2b5786841415610a1d575093506105ec92505050565b83610a27816137ec565b9450505b5080610a36816137ec565b91505061099d565b5060405162461bcd60e51b81526004016106ad90613582565b6008546001600160a01b03163314610a815760405162461bcd60e51b81526004016106ad906134d2565b6001600160a01b0381166000908152600b602052604090205460ff16610ab95760405162461bcd60e51b81526004016106ad906135c2565b6001600160a01b03166000908152600b60205260409020805460ff19169055565b336000908152600c602052604090205460ff16610b095760405162461bcd60e51b81526004016106ad90613522565b610b1281610d23565b15610b2f5760405162461bcd60e51b81526004016106ad906133e2565b6000908152600d60205260409020805460ff19166001179055565b6107548383836040518060200160405280600081525061134e565b6008546001600160a01b03163314610b8f5760405162461bcd60e51b81526004016106ad906134d2565b6001600160a01b0381166000908152600c602052604090205460ff1615610bc85760405162461bcd60e51b81526004016106ad90613472565b6001600160a01b03166000908152600c60205260409020805460ff19166001179055565b600080548210610c0e5760405162461bcd60e51b81526004016106ad90613422565b5090565b336000908152600b602052604090205460ff1680610c3f5750336000908152600c602052604090205460ff165b610c5b5760405162461bcd60e51b81526004016106ad90613502565b610c66826000541190565b610c825760405162461bcd60e51b81526004016106ad906135f2565b6000828152600d6020908152604090912082519091610ca89160018401918501906122e3565b50505050565b336000908152600c602052604090205460ff16610cdd5760405162461bcd60e51b81526004016106ad90613522565b610ce8826000541190565b610d045760405162461bcd60e51b81526004016106ad906134e2565b6000828152600e602090815260409091208251610754928401906122e3565b6000610d30826000541190565b610d4c5760405162461bcd60e51b81526004016106ad906134e2565b6000828152600d60209081526040808320815160608101909252805460ff16151582526001810180549293919291840191610d8690613799565b80601f0160208091040260200160405190810160405280929190818152602001828054610db290613799565b8015610dff5780601f10610dd457610100808354040283529160200191610dff565b820191906000526020600020905b815481529060010190602001808311610de257829003601f168201915b50505091835250506040805160e081019182905260209092019190600284019060079082845b815481526020019060010190808311610e25575050509190925250509051949350505050565b6000610e5682611cd9565b5192915050565b60006001600160a01b038216610e855760405162461bcd60e51b81526004016106ad90613492565b506001600160a01b03166000908152600460205260409020546001600160801b031690565b6008546001600160a01b03163314610ed45760405162461bcd60e51b81526004016106ad906134d2565b610ede6000611df7565b565b336000908152600c602052604090205460ff16610f0f5760405162461bcd60e51b81526004016106ad90613522565b610f1a836000541190565b610f365760405162461bcd60e51b81526004016106ad906134c2565b6000838152600d602052604081209060028201908382866006811115610f6c57634e487b7160e01b600052602160045260246000fd5b60078110610f8a57634e487b7160e01b600052603260045260246000fd5b0154610f9691906136ee565b905060018110801590610faa5750600a8111155b610fc65760405162461bcd60e51b81526004016106ad906134a2565b8082866006811115610fe857634e487b7160e01b600052602160045260246000fd5b6007811061100657634e487b7160e01b600052603260045260246000fd5b0155505050505050565b60408051808201909152600080825260208201526105ec82611cd9565b60606002805461060190613799565b6008546001600160a01b031633146110665760405162461bcd60e51b81526004016106ad906134d2565b6001600160a01b0381166000908152600b602052604090205460ff161561109f5760405162461bcd60e51b81526004016106ad90613452565b6001600160a01b03166000908152600b60205260409020805460ff19166001179055565b60006110d0836000541190565b6110ec5760405162461bcd60e51b81526004016106ad906134c2565b6000838152600d60209081526040808320815160608101909252805460ff1615158252600181018054929391929184019161112690613799565b80601f016020809104026020016040519081016040528092919081815260200182805461115290613799565b801561119f5780601f106111745761010080835404028352916020019161119f565b820191906000526020600020905b81548152906001019060200180831161118257829003601f168201915b50505091835250506040805160e081019182905260209092019190600284019060079082845b8154815260200190600101908083116111c5575050505050815250509050806040015183600681111561120857634e487b7160e01b600052602160045260246000fd5b6007811061122657634e487b7160e01b600052603260045260246000fd5b6020020151949350505050565b6001600160a01b03821633141561125c5760405162461bcd60e51b81526004016106ad906134f2565b3360008181526006602090815260408083206001600160a01b038716808552925291829020805460ff191685151517905590519091907f17307eab39ab6107e8899845ad3d59bd9653f200f220920489ca2b5937696c31906112bf9085906133a3565b60405180910390a35050565b6008546001600160a01b031633146112f55760405162461bcd60e51b81526004016106ad906134d2565b6001600160a01b0381166000908152600c602052604090205460ff1661132d5760405162461bcd60e51b81526004016106ad906135c2565b6001600160a01b03166000908152600c60205260409020805460ff19169055565b611359848484611a1b565b61136584848484611e49565b610ca85760405162461bcd60e51b81526004016106ad90613552565b606061138e826000541190565b6113aa5760405162461bcd60e51b81526004016106ad906134e2565b6000828152600e6020526040902080546113c390613799565b80601f01602080910402602001604051908101604052809291908181526020018280546113ef90613799565b801561143c5780601f106114115761010080835404028352916020019161143c565b820191906000526020600020905b81548152906001019060200180831161141f57829003601f168201915b50505050509050919050565b60006105ec82611f57565b600260095414156114765760405162461bcd60e51b81526004016106ad90613592565b6002600955336000908152600b602052604090205460ff166114aa5760405162461bcd60e51b81526004016106ad90613482565b7f00000000000000000000000000000000000000000000000000000000000000008460ff166114d860005490565b6114e291906136ee565b11156115005760405162461bcd60e51b81526004016106ad906133f2565b8360ff168351146115235760405162461bcd60e51b81526004016106ad906133d2565b8360ff168151146115465760405162461bcd60e51b81526004016106ad906135d2565b6000546115568660ff8716611fab565b60005b8560ff1681101561160057600a5461159786838151811061158a57634e487b7160e01b600052603260045260246000fd5b6020026020010151611fc9565b146115b45760405162461bcd60e51b81526004016106ad906135b2565b6115ee6115c182846136ee565b8683815181106115e157634e487b7160e01b600052603260045260246000fd5b60200260200101516117f0565b806115f8816137ec565b915050611559565b5060005b8560ff1681101561167b5783818151811061162f57634e487b7160e01b600052603260045260246000fd5b6020026020010151600e6000838561164791906136ee565b815260200190815260200160002090805190602001906116689291906122e3565b5080611673816137ec565b915050611604565b5060005b8560ff168110156116d6576116c461169782846136ee565b8483815181106116b757634e487b7160e01b600052603260045260246000fd5b6020026020010151610c12565b806116ce816137ec565b91505061167f565b505060016009555050505050565b606061171060405180604001604052806009815260200168035b2b2b832b9399d160bd1b815250612026565b600061171b83610e5d565b90506000816001600160401b0381111561174557634e487b7160e01b600052604160045260246000fd5b60405190808252806020026020018201604052801561176e578160200160208202803683370190505b5090506000805b838110156117e6576000611789878361096c565b905061179481610d23565b156117d357808484815181106117ba57634e487b7160e01b600052603260045260246000fd5b6020908102919091010152826117cf816137ec565b9350505b50806117de816137ec565b915050611775565b5090949350505050565b336000908152600b602052604090205460ff168061181d5750336000908152600c602052604090205460ff165b6118395760405162461bcd60e51b81526004016106ad90613502565b611844826000541190565b6118605760405162461bcd60e51b81526004016106ad906134c2565b6000828152600d60205260408120905b8251811015610ca857600160ff1683828151811061189e57634e487b7160e01b600052603260045260246000fd5b602002602001015160ff16101580156118e55750600a60ff168382815181106118d757634e487b7160e01b600052603260045260246000fd5b602002602001015160ff1611155b6119015760405162461bcd60e51b81526004016106ad90613542565b82818151811061192157634e487b7160e01b600052603260045260246000fd5b602002602001015160ff1682600201826007811061194f57634e487b7160e01b600052603260045260246000fd5b01558061195b816137ec565b915050611870565b6008546001600160a01b0316331461198d5760405162461bcd60e51b81526004016106ad906134d2565b6001600160a01b0381166119b35760405162461bcd60e51b81526004016106ad90613402565b6119bc81611df7565b50565b60008281526005602052604080822080546001600160a01b0319166001600160a01b0387811691821790925591518593918516917f8c5be1e5ebec7d5bd14f71427d1e84f3dd0314c0f7b2291e5b200ac8c7c3b92591a4505050565b6000611a2682611cd9565b80519091506000906001600160a01b0316336001600160a01b03161480611a5d575033611a5284610684565b6001600160a01b0316145b80611a6f57508151611a6f9033610531565b905080611a8e5760405162461bcd60e51b81526004016106ad90613512565b846001600160a01b031682600001516001600160a01b031614611ac35760405162461bcd60e51b81526004016106ad906134b2565b6001600160a01b038416611ae95760405162461bcd60e51b81526004016106ad90613432565b611af960008484600001516119bf565b6001600160a01b0385166000908152600460205260408120805460019290611b2b9084906001600160801b0316613701565b82546101009290920a6001600160801b038181021990931691831602179091556001600160a01b03861660009081526004602052604081208054600194509092611b77918591166136b6565b82546001600160801b039182166101009390930a9283029190920219909116179055506040805180820182526001600160a01b0380871682526001600160401b03428116602080850191825260008981526003909152948520935184549151909216600160a01b026001600160e01b03199091169190921617179055611bfe8460016136ee565b6000818152600360205260409020549091506001600160a01b0316611c8f57611c28816000541190565b15611c8f5760408051808201825284516001600160a01b0390811682526020808701516001600160401b039081168285019081526000878152600390935294909120925183549451909116600160a01b026001600160e01b03199094169116179190911790555b83856001600160a01b0316876001600160a01b03167fddf252ad1be2c89b69c2b068fc378daa952ba7f163c4a11628f55a4df523b3ef60405160405180910390a45b505050505050565b6040805180820190915260008082526020820152611cf8826000541190565b611d145760405162461bcd60e51b81526004016106ad90613412565b60007f00000000000000000000000000000000000000000000000000000000000000008310611d7557611d677f000000000000000000000000000000000000000000000000000000000000000084613731565b611d729060016136ee565b90505b825b818110611dde576000818152600360209081526040918290208251808401909352546001600160a01b038116808452600160a01b9091046001600160401b03169183019190915215611dcb57949350505050565b5080611dd681613782565b915050611d77565b5060405162461bcd60e51b81526004016106ad906135a2565b600880546001600160a01b038381166001600160a01b0319831681179093556040519116919082907f8be0079c531659141344cd1fd0a4f28419497f9722a3daafe3b4186f6b6457e090600090a35050565b60006001600160a01b0384163b15611f4b57604051630a85bd0160e11b81526001600160a01b0385169063150b7a0290611e8d903390899088908890600401613347565b602060405180830381600087803b158015611ea757600080fd5b505af1925050508015611ed7575060408051601f3d908101601f19168201909252611ed491810190612841565b60015b611f31573d808015611f05576040519150601f19603f3d011682016040523d82523d6000602084013e611f0a565b606091505b508051611f295760405162461bcd60e51b81526004016106ad90613552565b805181602001fd5b6001600160e01b031916630a85bd0160e11b149050611f4f565b5060015b949350505050565b60006001600160a01b038216611f7f5760405162461bcd60e51b81526004016106ad90613442565b506001600160a01b0316600090815260046020526040902054600160801b90046001600160801b031690565b611fc5828260405180602001604052806000815250612069565b5050565b6000805b825181101561202057828181518110611ff657634e487b7160e01b600052603260045260246000fd5b602002602001015160ff168261200c91906136ee565b915080612018816137ec565b915050611fcd565b50919050565b6119bc8160405160240161203a91906133b1565b60408051601f198184030181529190526020810180516001600160e01b031663104c13eb60e21b17905261229e565b6000546001600160a01b0384166120925760405162461bcd60e51b81526004016106ad90613572565b61209d816000541190565b156120ba5760405162461bcd60e51b81526004016106ad90613562565b7f00000000000000000000000000000000000000000000000000000000000000008311156120fa5760405162461bcd60e51b81526004016106ad90613602565b6001600160a01b0384166000908152600460209081526040918290208251808401845290546001600160801b038082168352600160801b90910416918101919091528151808301909252805190919081906121569087906136b6565b6001600160801b0316815260200185836020015161217491906136b6565b6001600160801b039081169091526001600160a01b0380881660008181526004602090815260408083208751978301518716600160801b029790961696909617909455845180860186529182526001600160401b034281168386019081528883526003909552948120915182549451909516600160a01b026001600160e01b031990941694909216939093179190911790915582905b858110156122935760405182906001600160a01b038916906000907fddf252ad1be2c89b69c2b068fc378daa952ba7f163c4a11628f55a4df523b3ef908290a46122576000888488611e49565b6122735760405162461bcd60e51b81526004016106ad90613552565b8161227d816137ec565b925050808061228b906137ec565b91505061220a565b506000819055611cd1565b80516a636f6e736f6c652e6c6f67602083016000808483855afa5050505050565b60408051606080820183526000825260208201529081016122de612363565b905290565b8280546122ef90613799565b90600052602060002090601f0160209004810192826123115760008555612357565b82601f1061232a57805160ff1916838001178555612357565b82800160010185558215612357579182015b8281111561235757825182559160200191906001019061233c565b50610c0e929150612381565b6040518060e001604052806007906020820280368337509192915050565b5b80821115610c0e5760008155600101612382565b60006123a96123a484613669565b61364d565b905080838252602082019050828560208602820111156123c857600080fd5b60005b8581101561240d5781356001600160401b038111156123e957600080fd5b8086016123f68982612568565b8552505060209283019291909101906001016123cb565b5050509392505050565b60006124256123a484613669565b9050808382526020820190508285602086028201111561244457600080fd5b60005b8581101561240d5781356001600160401b0381111561246557600080fd5b80860161247289826125aa565b855250506020928301929190910190600101612447565b60006124976123a484613669565b905080838252602082019050828560208602820111156124b657600080fd5b60005b8581101561240d57816124cc88826125e1565b84525060209283019291909101906001016124b9565b60006124f06123a48461368c565b90508281526020810184848401111561250857600080fd5b61251384828561374a565b509392505050565b80356105ec81613849565b600082601f83011261253757600080fd5b8135611f4f848260208601612396565b600082601f83011261255857600080fd5b8135611f4f848260208601612417565b600082601f83011261257957600080fd5b8135611f4f848260208601612489565b80356105ec8161385d565b80356105ec81613865565b80516105ec81613865565b600082601f8301126125bb57600080fd5b8135611f4f8482602086016124e2565b80356105ec81613875565b80356105ec81613882565b80356105ec81613888565b6000602082840312156125fe57600080fd5b6000611f4f848461251b565b6000806040838503121561261d57600080fd5b6000612629858561251b565b925050602061263a8582860161251b565b9150509250929050565b60008060006060848603121561265957600080fd5b6000612665868661251b565b93505060206126768682870161251b565b9250506040612687868287016125d6565b9150509250925092565b600080600080608085870312156126a757600080fd5b60006126b3878761251b565b94505060206126c48782880161251b565b93505060406126d5878288016125d6565b92505060608501356001600160401b038111156126f157600080fd5b6126fd878288016125aa565b91505092959194509250565b6000806040838503121561271c57600080fd5b6000612728858561251b565b925050602061263a85828601612589565b6000806040838503121561274c57600080fd5b6000612758858561251b565b925050602061263a858286016125d6565b600080600080600060a0868803121561278157600080fd5b600061278d888861251b565b955050602061279e888289016125e1565b94505060408601356001600160401b038111156127ba57600080fd5b6127c688828901612526565b93505060608601356001600160401b038111156127e257600080fd5b6127ee88828901612547565b92505060808601356001600160401b0381111561280a57600080fd5b61281688828901612547565b9150509295509295909350565b60006020828403121561283557600080fd5b6000611f4f8484612594565b60006020828403121561285357600080fd5b6000611f4f848461259f565b60006020828403121561287157600080fd5b6000611f4f84846125d6565b6000806040838503121561289057600080fd5b600061289c85856125d6565b92505060208301356001600160401b038111156128b857600080fd5b61263a85828601612568565b600080604083850312156128d757600080fd5b60006128e385856125d6565b925050602061263a858286016125cb565b60008060006060848603121561290957600080fd5b600061291586866125d6565b9350506020612676868287016125cb565b6000806040838503121561293957600080fd5b600061294585856125d6565b92505060208301356001600160401b0381111561296157600080fd5b61263a858286016125aa565b6000612979838361331b565b505060200190565b61298a81613739565b82525050565b6007818060005b83811015611cd15781516129ab878261296d565b965060208301925050600101612997565b60006129c6825190565b80845260209384019383018060005b838110156129fa5781516129e9888261296d565b9750602083019250506001016129d5565b509495945050505050565b80151561298a565b6000612a17825190565b808452602084019350612a2e818560208601613756565b601f01601f19169290920192915050565b602281526000602082017f455243373231413a206f776e657220696e646578206f7574206f6620626f756e815261647360f01b602082015291505b5060400190565b601481526000602082017327379036b0ba31b41030b93930bc9039b4bd329760611b815291505b5060200190565b601b81526000602082017f416c726561647920757067726164656420746f204b65657065722e000000000081529150612aa8565b601281526000602082017145786365656473204d617820537570706c7960701b81529150612aa8565b602681526000602082017f4f776e61626c653a206e6577206f776e657220697320746865207a65726f206181526564647265737360d01b60208201529150612a7a565b602a81526000602082017f455243373231413a206f776e657220717565727920666f72206e6f6e657869738152693a32b73a103a37b5b2b760b11b60208201529150612a7a565b602381526000602082017f455243373231413a20676c6f62616c20696e646578206f7574206f6620626f758152626e647360e81b60208201529150612a7a565b602581526000602082017f455243373231413a207472616e7366657220746f20746865207a65726f206164815264647265737360d81b60208201529150612a7a565b603181526000602082017f455243373231413a206e756d626572206d696e74656420717565727920666f7281527020746865207a65726f206164647265737360781b60208201529150612a7a565b600f81526000602082016e20b63932b0b23c9036b4b73a32b91760891b81529150612aa8565b603981526000602082017f455243373231413a20617070726f76652063616c6c6572206973206e6f74206f81527f776e6572206e6f7220617070726f76656420666f7220616c6c0000000000000060208201529150612a7a565b601081526000602082016f20b63932b0b23c903ab83230ba32b91760811b81529150612aa8565b601881526000602082017f43616c6c65722073686f756c64206265206d696e7465722e000000000000000081529150612aa8565b602b81526000602082017f455243373231413a2062616c616e636520717565727920666f7220746865207a81526a65726f206164647265737360a81b60208201529150612a7a565b600e81526000602082016d24b73b30b634b2103b30b63ab29760911b81529150612aa8565b602681526000602082017f455243373231413a207472616e736665722066726f6d20696e636f72726563748152651037bbb732b960d11b60208201529150612a7a565b600e81526000602082016d2737ba1032bc34b9ba1027232a1760911b81529150612aa8565b60208082527f4f776e61626c653a2063616c6c6572206973206e6f7420746865206f776e657291019081526000612aa8565b602f81526000602082017f4552433732314d657461646174613a2055524920717565727920666f72206e6f81526e3732bc34b9ba32b73a103a37b5b2b760891b60208201529150612a7a565b601a81526000602082017f455243373231413a20617070726f766520746f2063616c6c657200000000000081529150612aa8565b602a81526000602082017f43616c6c65722073686f756c6420626520656974686572206d696e746572206f81526939103ab83230ba32b91760b11b60208201529150612a7a565b603281526000602082017f455243373231413a207472616e736665722063616c6c6572206973206e6f74208152711bdddb995c881b9bdc88185c1c1c9bdd995960721b60208201529150612a7a565b601981526000602082017f43616c6c65722073686f756c6420626520757064617465722e0000000000000081529150612aa8565b602281526000602082017f455243373231413a20617070726f76616c20746f2063757272656e74206f776e81526132b960f11b60208201529150612a7a565b6012815260006020820171496e76616c696420737461742076616c756560701b81529150612aa8565b603381526000602082017f455243373231413a207472616e7366657220746f206e6f6e204552433732315281527232b1b2b4bb32b91034b6b83632b6b2b73a32b960691b60208201529150612a7a565b601d81526000602082017f455243373231413a20746f6b656e20616c7265616479206d696e74656400000081529150612aa8565b602181526000602082017f455243373231413a206d696e7420746f20746865207a65726f206164647265738152607360f81b60208201529150612a7a565b602e81526000602082017f455243373231413a20756e61626c6520746f2067657420746f6b656e206f662081526d0deeedccae440c4f240d2dcc8caf60931b60208201529150612a7a565b601f81526000602082017f5265656e7472616e637947756172643a207265656e7472616e742063616c6c0081529150612aa8565b602f81526000602082017f455243373231413a20756e61626c6520746f2064657465726d696e652074686581526e1037bbb732b91037b3103a37b5b2b760891b60208201529150612a7a565b601581526000602082017424b73b30b634b21039ba30ba32903b30b63ab2b99760591b81529150612aa8565b601081526000602082016f20b63932b0b23c903932b6b7bb32b21760811b81529150612aa8565b601481526000602082017327379036b0ba31b4103730b6b2b99039b4bd329760611b81529150612aa8565b602d81526000602082017f455243373231413a20617070726f76656420717565727920666f72206e6f6e6581526c3c34b9ba32b73a103a37b5b2b760991b60208201529150612a7a565b601081526000602082016f2737ba1032bc34b9ba39903a37b5b2b760811b81529150612aa8565b602281526000602082017f455243373231413a207175616e7469747920746f206d696e7420746f6f2068698152610ced60f31b60208201529150612a7a565b80516000906101208401906132ca8582612a05565b50602083015184820360208601526132e28282612a0d565b91505060408301516125136040860182612990565b805160408301906133088482612981565b506020820151610ca86020850182613321565b8061298a565b6001600160401b03811661298a565b60ff811661298a565b602081016105ec8284612981565b608081016133558287612981565b6133626020830186612981565b61336f604083018561331b565b81810360608301526133818184612a0d565b9695505050505050565b6020808252810161339c81846129bc565b9392505050565b602081016105ec8284612a05565b6020808252810161339c8184612a0d565b602080825281016105ec81612a3f565b602080825281016105ec81612a81565b602080825281016105ec81612aaf565b602080825281016105ec81612ae3565b602080825281016105ec81612b0c565b602080825281016105ec81612b4f565b602080825281016105ec81612b96565b602080825281016105ec81612bd6565b602080825281016105ec81612c18565b602080825281016105ec81612c66565b602080825281016105ec81612c8c565b602080825281016105ec81612ce6565b602080825281016105ec81612d0d565b602080825281016105ec81612d41565b602080825281016105ec81612d89565b602080825281016105ec81612dae565b602080825281016105ec81612df1565b602080825281016105ec81612e16565b602080825281016105ec81612e48565b602080825281016105ec81612e94565b602080825281016105ec81612ec8565b602080825281016105ec81612f0f565b602080825281016105ec81612f5e565b602080825281016105ec81612f92565b602080825281016105ec81612fd1565b602080825281016105ec81612ffa565b602080825281016105ec8161304a565b602080825281016105ec8161307e565b602080825281016105ec816130bc565b602080825281016105ec81613107565b602080825281016105ec8161313b565b602080825281016105ec81613187565b602080825281016105ec816131b3565b602080825281016105ec816131da565b602080825281016105ec81613205565b602080825281016105ec8161324f565b602080825281016105ec81613276565b6020808252810161339c81846132b5565b604081016105ec82846132f7565b602081016105ec828461331b565b602081016105ec8284613330565b600061365860405190565b905061366482826137c0565b919050565b60006001600160401b0382111561368257613682613833565b5060209081020190565b60006001600160401b038211156136a5576136a5613833565b601f19601f83011660200192915050565b60006001600160801b03821691506001600160801b0383169250826001600160801b03038211156136e9576136e9613807565b500190565b600082198211156136e9576136e9613807565b60006001600160801b03821691506001600160801b0383165b92508282101561372c5761372c613807565b500390565b60008261371a565b60006001600160a01b0382166105ec565b82818337506000910152565b60005b83811015613771578181015183820152602001613759565b83811115610ca85750506000910152565b60008161379157613791613807565b506000190190565b6002810460018216806137ad57607f821691505b602082108114156120205761202061381d565b601f19601f83011681018181106001600160401b03821117156137e5576137e5613833565b6040525050565b600060001982141561380057613800613807565b5060010190565b634e487b7160e01b600052601160045260246000fd5b634e487b7160e01b600052602260045260246000fd5b634e487b7160e01b600052604160045260246000fd5b61385281613739565b81146119bc57600080fd5b801515613852565b6001600160e01b03198116613852565b600781106119bc57600080fd5b80613852565b60ff811661385256fea26469706673582212202fdc8ec73e17abe19fce71cb33f36f2b554da47f27c0ed8c7612e0b0a145631664736f6c63430008040033",
  "devdoc": {
    "kind": "dev",
    "methods": {
      "approve(address,uint256)": {
        "details": "See {IERC721-approve}."
      },
      "balanceOf(address)": {
        "details": "See {IERC721-balanceOf}."
      },
      "constructor": {
        "params": {
          "collectionSize_": "NFT collection size",
          "maxBatchSize_": "Max size for ERC721A batch mint."
        }
      },
      "getApproved(uint256)": {
        "details": "See {IERC721-getApproved}."
      },
      "isApprovedForAll(address,address)": {
        "details": "See {IERC721-isApprovedForAll}."
      },
      "name()": {
        "details": "See {IERC721Metadata-name}."
      },
      "owner()": {
        "details": "Returns the address of the current owner."
      },
      "ownerOf(uint256)": {
        "details": "See {IERC721-ownerOf}."
      },
      "renounceOwnership()": {
        "details": "Leaves the contract without owner. It will not be possible to call `onlyOwner` functions anymore. Can only be called by the current owner. NOTE: Renouncing ownership will leave the contract without an owner, thereby removing any functionality that is only available to the owner."
      },
      "safeTransferFrom(address,address,uint256)": {
        "details": "See {IERC721-safeTransferFrom}."
      },
      "safeTransferFrom(address,address,uint256,bytes)": {
        "details": "See {IERC721-safeTransferFrom}."
      },
      "setApprovalForAll(address,bool)": {
        "details": "See {IERC721-setApprovalForAll}."
      },
      "supportsInterface(bytes4)": {
        "details": "See {IERC165-supportsInterface}."
      },
      "symbol()": {
        "details": "See {IERC721Metadata-symbol}."
      },
      "tokenByIndex(uint256)": {
        "details": "See {IERC721Enumerable-tokenByIndex}."
      },
      "tokenOfOwnerByIndex(address,uint256)": {
        "details": "See {IERC721Enumerable-tokenOfOwnerByIndex}. This read function is O(collectionSize). If calling from a separate contract, be sure to test gas first. It may also degrade with extremely large collection sizes (e.g >> 10000), test for your use case."
      },
      "tokenURI(uint256)": {
        "details": "See {IERC721Metadata-tokenURI}."
      },
      "totalSupply()": {
        "details": "See {IERC721Enumerable-totalSupply}."
      },
      "transferFrom(address,address,uint256)": {
        "details": "See {IERC721-transferFrom}."
      },
      "transferOwnership(address)": {
        "details": "Transfers ownership of the contract to a new account (`newOwner`). Can only be called by the current owner."
      }
    },
    "version": 1
  },
  "userdoc": {
    "kind": "user",
    "methods": {},
    "version": 1
  },
  "storageLayout": {
    "storage": [
      {
        "astId": 8703,
        "contract": "contracts/Avatar.sol:Avatar",
        "label": "currentIndex",
        "offset": 0,
        "slot": "0",
        "type": "t_uint256"
      },
      {
        "astId": 8709,
        "contract": "contracts/Avatar.sol:Avatar",
        "label": "_name",
        "offset": 0,
        "slot": "1",
        "type": "t_string_storage"
      },
      {
        "astId": 8711,
        "contract": "contracts/Avatar.sol:Avatar",
        "label": "_symbol",
        "offset": 0,
        "slot": "2",
        "type": "t_string_storage"
      },
      {
        "astId": 8716,
        "contract": "contracts/Avatar.sol:Avatar",
        "label": "_ownerships",
        "offset": 0,
        "slot": "3",
        "type": "t_mapping(t_uint256,t_struct(TokenOwnership)8695_storage)"
      },
      {
        "astId": 8721,
        "contract": "contracts/Avatar.sol:Avatar",
        "label": "_addressData",
        "offset": 0,
        "slot": "4",
        "type": "t_mapping(t_address,t_struct(AddressData)8700_storage)"
      },
      {
        "astId": 8725,
        "contract": "contracts/Avatar.sol:Avatar",
        "label": "_tokenApprovals",
        "offset": 0,
        "slot": "5",
        "type": "t_mapping(t_uint256,t_address)"
      },
      {
        "astId": 8731,
        "contract": "contracts/Avatar.sol:Avatar",
        "label": "_operatorApprovals",
        "offset": 0,
        "slot": "6",
        "type": "t_mapping(t_address,t_mapping(t_address,t_bool))"
      },
      {
        "astId": 9674,
        "contract": "contracts/Avatar.sol:Avatar",
        "label": "nextOwnerToExplicitlySet",
        "offset": 0,
        "slot": "7",
        "type": "t_uint256"
      },
      {
        "astId": 7,
        "contract": "contracts/Avatar.sol:Avatar",
        "label": "_owner",
        "offset": 0,
        "slot": "8",
        "type": "t_address"
      },
      {
        "astId": 115,
        "contract": "contracts/Avatar.sol:Avatar",
        "label": "_status",
        "offset": 0,
        "slot": "9",
        "type": "t_uint256"
      },
      {
        "astId": 1408,
        "contract": "contracts/Avatar.sol:Avatar",
        "label": "initialSum",
        "offset": 0,
        "slot": "10",
        "type": "t_uint256"
      },
      {
        "astId": 1418,
        "contract": "contracts/Avatar.sol:Avatar",
        "label": "minters",
        "offset": 0,
        "slot": "11",
        "type": "t_mapping(t_address,t_bool)"
      },
      {
        "astId": 1422,
        "contract": "contracts/Avatar.sol:Avatar",
        "label": "updaters",
        "offset": 0,
        "slot": "12",
        "type": "t_mapping(t_address,t_bool)"
      },
      {
        "astId": 1427,
        "contract": "contracts/Avatar.sol:Avatar",
        "label": "avatarInfo",
        "offset": 0,
        "slot": "13",
        "type": "t_mapping(t_uint256,t_struct(AvatarDataType)1405_storage)"
      },
      {
        "astId": 1431,
        "contract": "contracts/Avatar.sol:Avatar",
        "label": "_tokenUris",
        "offset": 0,
        "slot": "14",
        "type": "t_mapping(t_uint256,t_string_storage)"
      }
    ],
    "types": {
      "t_address": {
        "encoding": "inplace",
        "label": "address",
        "numberOfBytes": "20"
      },
      "t_array(t_uint256)7_storage": {
        "base": "t_uint256",
        "encoding": "inplace",
        "label": "uint256[7]",
        "numberOfBytes": "224"
      },
      "t_bool": {
        "encoding": "inplace",
        "label": "bool",
        "numberOfBytes": "1"
      },
      "t_mapping(t_address,t_bool)": {
        "encoding": "mapping",
        "key": "t_address",
        "label": "mapping(address => bool)",
        "numberOfBytes": "32",
        "value": "t_bool"
      },
      "t_mapping(t_address,t_mapping(t_address,t_bool))": {
        "encoding": "mapping",
        "key": "t_address",
        "label": "mapping(address => mapping(address => bool))",
        "numberOfBytes": "32",
        "value": "t_mapping(t_address,t_bool)"
      },
      "t_mapping(t_address,t_struct(AddressData)8700_storage)": {
        "encoding": "mapping",
        "key": "t_address",
        "label": "mapping(address => struct ERC721A.AddressData)",
        "numberOfBytes": "32",
        "value": "t_struct(AddressData)8700_storage"
      },
      "t_mapping(t_uint256,t_address)": {
        "encoding": "mapping",
        "key": "t_uint256",
        "label": "mapping(uint256 => address)",
        "numberOfBytes": "32",
        "value": "t_address"
      },
      "t_mapping(t_uint256,t_string_storage)": {
        "encoding": "mapping",
        "key": "t_uint256",
        "label": "mapping(uint256 => string)",
        "numberOfBytes": "32",
        "value": "t_string_storage"
      },
      "t_mapping(t_uint256,t_struct(AvatarDataType)1405_storage)": {
        "encoding": "mapping",
        "key": "t_uint256",
        "label": "mapping(uint256 => struct Avatar.AvatarDataType)",
        "numberOfBytes": "32",
        "value": "t_struct(AvatarDataType)1405_storage"
      },
      "t_mapping(t_uint256,t_struct(TokenOwnership)8695_storage)": {
        "encoding": "mapping",
        "key": "t_uint256",
        "label": "mapping(uint256 => struct ERC721A.TokenOwnership)",
        "numberOfBytes": "32",
        "value": "t_struct(TokenOwnership)8695_storage"
      },
      "t_string_storage": {
        "encoding": "bytes",
        "label": "string",
        "numberOfBytes": "32"
      },
      "t_struct(AddressData)8700_storage": {
        "encoding": "inplace",
        "label": "struct ERC721A.AddressData",
        "members": [
          {
            "astId": 8697,
            "contract": "contracts/Avatar.sol:Avatar",
            "label": "balance",
            "offset": 0,
            "slot": "0",
            "type": "t_uint128"
          },
          {
            "astId": 8699,
            "contract": "contracts/Avatar.sol:Avatar",
            "label": "numberMinted",
            "offset": 16,
            "slot": "0",
            "type": "t_uint128"
          }
        ],
        "numberOfBytes": "32"
      },
      "t_struct(AvatarDataType)1405_storage": {
        "encoding": "inplace",
        "label": "struct Avatar.AvatarDataType",
        "members": [
          {
            "astId": 1398,
            "contract": "contracts/Avatar.sol:Avatar",
            "label": "isKeeper",
            "offset": 0,
            "slot": "0",
            "type": "t_bool"
          },
          {
            "astId": 1400,
            "contract": "contracts/Avatar.sol:Avatar",
            "label": "name",
            "offset": 0,
            "slot": "1",
            "type": "t_string_storage"
          },
          {
            "astId": 1404,
            "contract": "contracts/Avatar.sol:Avatar",
            "label": "ability",
            "offset": 0,
            "slot": "2",
            "type": "t_array(t_uint256)7_storage"
          }
        ],
        "numberOfBytes": "288"
      },
      "t_struct(TokenOwnership)8695_storage": {
        "encoding": "inplace",
        "label": "struct ERC721A.TokenOwnership",
        "members": [
          {
            "astId": 8692,
            "contract": "contracts/Avatar.sol:Avatar",
            "label": "addr",
            "offset": 0,
            "slot": "0",
            "type": "t_address"
          },
          {
            "astId": 8694,
            "contract": "contracts/Avatar.sol:Avatar",
            "label": "startTimestamp",
            "offset": 20,
            "slot": "0",
            "type": "t_uint64"
          }
        ],
        "numberOfBytes": "32"
      },
      "t_uint128": {
        "encoding": "inplace",
        "label": "uint128",
        "numberOfBytes": "16"
      },
      "t_uint256": {
        "encoding": "inplace",
        "label": "uint256",
        "numberOfBytes": "32"
      },
      "t_uint64": {
        "encoding": "inplace",
        "label": "uint64",
        "numberOfBytes": "8"
      }
    }
  }
}