{
  "address": "0xEccbcC570d29BE87e6badcabAea07C9fB6204E75",
  "abi": [
    {
      "inputs": [
        {
          "internalType": "uint16",
          "name": "maxBatchSize_",
          "type": "uint16"
        },
        {
          "internalType": "uint16",
          "name": "collectionSize_",
          "type": "uint16"
        },
        {
          "internalType": "string[]",
          "name": "_baseUris",
          "type": "string[]"
        },
        {
          "internalType": "address",
          "name": "_paymentToken",
          "type": "address"
        }
      ],
      "stateMutability": "nonpayable",
      "type": "constructor"
    },
    {
      "anonymous": false,
      "inputs": [
        {
          "indexed": true,
          "internalType": "address",
          "name": "owner",
          "type": "address"
        },
        {
          "indexed": true,
          "internalType": "address",
          "name": "approved",
          "type": "address"
        },
        {
          "indexed": true,
          "internalType": "uint256",
          "name": "tokenId",
          "type": "uint256"
        }
      ],
      "name": "Approval",
      "type": "event"
    },
    {
      "anonymous": false,
      "inputs": [
        {
          "indexed": true,
          "internalType": "address",
          "name": "owner",
          "type": "address"
        },
        {
          "indexed": true,
          "internalType": "address",
          "name": "operator",
          "type": "address"
        },
        {
          "indexed": false,
          "internalType": "bool",
          "name": "approved",
          "type": "bool"
        }
      ],
      "name": "ApprovalForAll",
      "type": "event"
    },
    {
      "anonymous": false,
      "inputs": [
        {
          "indexed": true,
          "internalType": "address",
          "name": "previousOwner",
          "type": "address"
        },
        {
          "indexed": true,
          "internalType": "address",
          "name": "newOwner",
          "type": "address"
        }
      ],
      "name": "OwnershipTransferred",
      "type": "event"
    },
    {
      "anonymous": false,
      "inputs": [
        {
          "indexed": true,
          "internalType": "address",
          "name": "from",
          "type": "address"
        },
        {
          "indexed": true,
          "internalType": "address",
          "name": "to",
          "type": "address"
        },
        {
          "indexed": true,
          "internalType": "uint256",
          "name": "tokenId",
          "type": "uint256"
        }
      ],
      "name": "Transfer",
      "type": "event"
    },
    {
      "inputs": [
        {
          "internalType": "address",
          "name": "to",
          "type": "address"
        },
        {
          "internalType": "uint8",
          "name": "quantity",
          "type": "uint8"
        },
        {
          "internalType": "enum AvatarBasic.CustomizableTrait",
          "name": "_assetType",
          "type": "uint8"
        }
      ],
      "name": "adminMint",
      "outputs": [],
      "stateMutability": "nonpayable",
      "type": "function"
    },
    {
      "inputs": [
        {
          "internalType": "address",
          "name": "to",
          "type": "address"
        },
        {
          "internalType": "uint256",
          "name": "tokenId",
          "type": "uint256"
        }
      ],
      "name": "approve",
      "outputs": [],
      "stateMutability": "nonpayable",
      "type": "function"
    },
    {
      "inputs": [
        {
          "internalType": "address",
          "name": "owner",
          "type": "address"
        }
      ],
      "name": "balanceOf",
      "outputs": [
        {
          "internalType": "uint256",
          "name": "",
          "type": "uint256"
        }
      ],
      "stateMutability": "view",
      "type": "function"
    },
    {
      "inputs": [
        {
          "internalType": "uint256",
          "name": "tokenId",
          "type": "uint256"
        }
      ],
      "name": "getApproved",
      "outputs": [
        {
          "internalType": "address",
          "name": "",
          "type": "address"
        }
      ],
      "stateMutability": "view",
      "type": "function"
    },
    {
      "inputs": [
        {
          "internalType": "uint256",
          "name": "tokenId",
          "type": "uint256"
        }
      ],
      "name": "getTrait",
      "outputs": [
        {
          "internalType": "enum AvatarBasic.CustomizableTrait",
          "name": "",
          "type": "uint8"
        }
      ],
      "stateMutability": "view",
      "type": "function"
    },
    {
      "inputs": [
        {
          "internalType": "address",
          "name": "owner",
          "type": "address"
        },
        {
          "internalType": "address",
          "name": "operator",
          "type": "address"
        }
      ],
      "name": "isApprovedForAll",
      "outputs": [
        {
          "internalType": "bool",
          "name": "",
          "type": "bool"
        }
      ],
      "stateMutability": "view",
      "type": "function"
    },
    {
      "inputs": [
        {
          "internalType": "uint8",
          "name": "quantity",
          "type": "uint8"
        },
        {
          "internalType": "enum AvatarBasic.CustomizableTrait",
          "name": "_assetType",
          "type": "uint8"
        }
      ],
      "name": "mintNFT",
      "outputs": [],
      "stateMutability": "payable",
      "type": "function"
    },
    {
      "inputs": [
        {
          "internalType": "uint8",
          "name": "quantity",
          "type": "uint8"
        },
        {
          "internalType": "enum AvatarBasic.CustomizableTrait",
          "name": "_assetType",
          "type": "uint8"
        }
      ],
      "name": "mintNFTWithToken",
      "outputs": [],
      "stateMutability": "nonpayable",
      "type": "function"
    },
    {
      "inputs": [],
      "name": "name",
      "outputs": [
        {
          "internalType": "string",
          "name": "",
          "type": "string"
        }
      ],
      "stateMutability": "view",
      "type": "function"
    },
    {
      "inputs": [],
      "name": "nextOwnerToExplicitlySet",
      "outputs": [
        {
          "internalType": "uint256",
          "name": "",
          "type": "uint256"
        }
      ],
      "stateMutability": "view",
      "type": "function"
    },
    {
      "inputs": [],
      "name": "owner",
      "outputs": [
        {
          "internalType": "address",
          "name": "",
          "type": "address"
        }
      ],
      "stateMutability": "view",
      "type": "function"
    },
    {
      "inputs": [
        {
          "internalType": "uint256",
          "name": "tokenId",
          "type": "uint256"
        }
      ],
      "name": "ownerOf",
      "outputs": [
        {
          "internalType": "address",
          "name": "",
          "type": "address"
        }
      ],
      "stateMutability": "view",
      "type": "function"
    },
    {
      "inputs": [],
      "name": "paymentToken",
      "outputs": [
        {
          "internalType": "contract IERC20",
          "name": "",
          "type": "address"
        }
      ],
      "stateMutability": "view",
      "type": "function"
    },
    {
      "inputs": [],
      "name": "renounceOwnership",
      "outputs": [],
      "stateMutability": "nonpayable",
      "type": "function"
    },
    {
      "inputs": [
        {
          "internalType": "address",
          "name": "from",
          "type": "address"
        },
        {
          "internalType": "address",
          "name": "to",
          "type": "address"
        },
        {
          "internalType": "uint256",
          "name": "tokenId",
          "type": "uint256"
        }
      ],
      "name": "safeTransferFrom",
      "outputs": [],
      "stateMutability": "nonpayable",
      "type": "function"
    },
    {
      "inputs": [
        {
          "internalType": "address",
          "name": "from",
          "type": "address"
        },
        {
          "internalType": "address",
          "name": "to",
          "type": "address"
        },
        {
          "internalType": "uint256",
          "name": "tokenId",
          "type": "uint256"
        },
        {
          "internalType": "bytes",
          "name": "_data",
          "type": "bytes"
        }
      ],
      "name": "safeTransferFrom",
      "outputs": [],
      "stateMutability": "nonpayable",
      "type": "function"
    },
    {
      "inputs": [
        {
          "internalType": "address",
          "name": "operator",
          "type": "address"
        },
        {
          "internalType": "bool",
          "name": "approved",
          "type": "bool"
        }
      ],
      "name": "setApprovalForAll",
      "outputs": [],
      "stateMutability": "nonpayable",
      "type": "function"
    },
    {
      "inputs": [
        {
          "internalType": "contract IERC20",
          "name": "_token",
          "type": "address"
        }
      ],
      "name": "setPaymentToken",
      "outputs": [],
      "stateMutability": "nonpayable",
      "type": "function"
    },
    {
      "inputs": [
        {
          "internalType": "uint256",
          "name": "_priceInEth",
          "type": "uint256"
        },
        {
          "internalType": "enum AvatarBasic.CustomizableTrait",
          "name": "_assetType",
          "type": "uint8"
        }
      ],
      "name": "setPriceInEth",
      "outputs": [],
      "stateMutability": "nonpayable",
      "type": "function"
    },
    {
      "inputs": [
        {
          "internalType": "uint256",
          "name": "_priceInToken",
          "type": "uint256"
        },
        {
          "internalType": "enum AvatarBasic.CustomizableTrait",
          "name": "_assetType",
          "type": "uint8"
        }
      ],
      "name": "setPriceInToken",
      "outputs": [],
      "stateMutability": "nonpayable",
      "type": "function"
    },
    {
      "inputs": [
        {
          "internalType": "bytes4",
          "name": "interfaceId",
          "type": "bytes4"
        }
      ],
      "name": "supportsInterface",
      "outputs": [
        {
          "internalType": "bool",
          "name": "",
          "type": "bool"
        }
      ],
      "stateMutability": "view",
      "type": "function"
    },
    {
      "inputs": [],
      "name": "symbol",
      "outputs": [
        {
          "internalType": "string",
          "name": "",
          "type": "string"
        }
      ],
      "stateMutability": "view",
      "type": "function"
    },
    {
      "inputs": [
        {
          "internalType": "uint256",
          "name": "index",
          "type": "uint256"
        }
      ],
      "name": "tokenByIndex",
      "outputs": [
        {
          "internalType": "uint256",
          "name": "",
          "type": "uint256"
        }
      ],
      "stateMutability": "view",
      "type": "function"
    },
    {
      "inputs": [
        {
          "internalType": "address",
          "name": "owner",
          "type": "address"
        },
        {
          "internalType": "uint256",
          "name": "index",
          "type": "uint256"
        }
      ],
      "name": "tokenOfOwnerByIndex",
      "outputs": [
        {
          "internalType": "uint256",
          "name": "",
          "type": "uint256"
        }
      ],
      "stateMutability": "view",
      "type": "function"
    },
    {
      "inputs": [
        {
          "internalType": "uint256",
          "name": "tokenId",
          "type": "uint256"
        }
      ],
      "name": "tokenURI",
      "outputs": [
        {
          "internalType": "string",
          "name": "",
          "type": "string"
        }
      ],
      "stateMutability": "view",
      "type": "function"
    },
    {
      "inputs": [],
      "name": "totalSupply",
      "outputs": [
        {
          "internalType": "uint256",
          "name": "",
          "type": "uint256"
        }
      ],
      "stateMutability": "view",
      "type": "function"
    },
    {
      "inputs": [
        {
          "internalType": "address",
          "name": "from",
          "type": "address"
        },
        {
          "internalType": "address",
          "name": "to",
          "type": "address"
        },
        {
          "internalType": "uint256",
          "name": "tokenId",
          "type": "uint256"
        }
      ],
      "name": "transferFrom",
      "outputs": [],
      "stateMutability": "nonpayable",
      "type": "function"
    },
    {
      "inputs": [
        {
          "internalType": "address",
          "name": "newOwner",
          "type": "address"
        }
      ],
      "name": "transferOwnership",
      "outputs": [],
      "stateMutability": "nonpayable",
      "type": "function"
    }
  ],
  "transactionHash": "0xf3a16c178e794386faa9f61be736a486be31f77dbd416060a6d41913b738043c",
  "args": [
    20,
    1000,
    [
      "https://gateway.pinata.cloud/ipfs/QmcZJ2AXhPAThF5qab1WHCzrPZmjTn6TfJvHB2hbDNqkb6/1.json",
      "https://gateway.pinata.cloud/ipfs/QmcZJ2AXhPAThF5qab1WHCzrPZmjTn6TfJvHB2hbDNqkb6/1.json",
      "https://gateway.pinata.cloud/ipfs/QmcZJ2AXhPAThF5qab1WHCzrPZmjTn6TfJvHB2hbDNqkb6/1.json",
      "https://gateway.pinata.cloud/ipfs/QmcZJ2AXhPAThF5qab1WHCzrPZmjTn6TfJvHB2hbDNqkb6/1.json",
      "https://gateway.pinata.cloud/ipfs/QmcZJ2AXhPAThF5qab1WHCzrPZmjTn6TfJvHB2hbDNqkb6/1.json",
      "https://gateway.pinata.cloud/ipfs/QmcZJ2AXhPAThF5qab1WHCzrPZmjTn6TfJvHB2hbDNqkb6/1.json"
    ],
    "0x8F14929310721e6B17461c329f8633B2d1aCF85B"
  ],
  "numDeployments": 1,
  "solcInputHash": "b474e0d835221309c977257c7f754341",
  "bytecode": "0x60c06040526000805560006007553480156200001a57600080fd5b506040516200300c3803806200300c8339810160408190526200003d916200047f565b6040518060400160405280600b81526020016a105d985d185c905cdcd95d60aa1b8152506040518060400160405280600b81526020016a105d985d185c905cdcd95d60aa1b8152508561ffff168561ffff1660008111620000bb5760405162461bcd60e51b8152600401620000b290620005e2565b60405180910390fd5b60008211620000de5760405162461bcd60e51b8152600401620000b29062000594565b8351620000f3906001906020870190620001dc565b50825162000109906002906020860190620001dc565b5060a09190915260805250620001219050336200018a565b600160095581516006146200014a5760405162461bcd60e51b8152600401620000b290620005a6565b81516200015f90600d9060208501906200026b565b50600e80546001600160a01b0319166001600160a01b03929092169190911790555062000759915050565b600880546001600160a01b038381166001600160a01b0319831681179093556040519116919082907f8be0079c531659141344cd1fd0a4f28419497f9722a3daafe3b4186f6b6457e090600090a35050565b828054620001ea90620006ab565b90600052602060002090601f0160209004810192826200020e576000855562000259565b82601f106200022957805160ff191683800117855562000259565b8280016001018555821562000259579182015b82811115620002595782518255916020019190600101906200023c565b5062000267929150620002cb565b5090565b828054828255906000526020600020908101928215620002bd579160200282015b82811115620002bd5782518051620002ac918491602090910190620001dc565b50916020019190600101906200028c565b5062000267929150620002e2565b5b80821115620002675760008155600101620002cc565b8082111562000267576000620002f9828262000303565b50600101620002e2565b5080546200031190620006ab565b6000825580601f1062000322575050565b601f016020900490600052602060002090810190620003429190620002cb565b50565b60006200035c620003568462000613565b620005f4565b905080838252602082019050828560208602820111156200037c57600080fd5b60005b85811015620003c65781516001600160401b038111156200039f57600080fd5b808601620003ae89826200044e565b8552505060209283019291909101906001016200037f565b5050509392505050565b6000620003e1620003568462000639565b905082815260208101848484011115620003fa57600080fd5b6200040784828562000678565b509392505050565b80516200041c8162000737565b92915050565b600082601f8301126200043457600080fd5b81516200044684826020860162000345565b949350505050565b600082601f8301126200046057600080fd5b815162000446848260208601620003d0565b80516200041c816200074e565b600080600080608085870312156200049657600080fd5b6000620004a4878762000472565b9450506020620004b78782880162000472565b93505060408501516001600160401b03811115620004d457600080fd5b620004e28782880162000422565b9250506060620004f5878288016200040f565b91505092959194509250565b602781526000602082017f455243373231413a206d61782062617463682073697a65206d757374206265208152666e6f6e7a65726f60c81b602082015291505b5060400190565b602e81526000602082017f455243373231413a20636f6c6c656374696f6e206d757374206861766520612081526d6e6f6e7a65726f20737570706c7960901b6020820152915062000541565b602080825281016200041c8162000501565b602080825281016200041c81601881527f496e76616c696420626173652075726973206c656e6774680000000000000000602082015260400190565b602080825281016200041c8162000548565b60006200060060405190565b90506200060e8282620006dc565b919050565b60006001600160401b038211156200062f576200062f62000721565b5060209081020190565b60006001600160401b0382111562000655576200065562000721565b601f19601f83011660200192915050565b60006001600160a01b0382166200041c565b60005b83811015620006955781810151838201526020016200067b565b83811115620006a5576000848401525b50505050565b600281046001821680620006c057607f821691505b60208210811415620006d657620006d66200070b565b50919050565b601f19601f83011681018181106001600160401b038211171562000704576200070462000721565b6040525050565b634e487b7160e01b600052602260045260246000fd5b634e487b7160e01b600052604160045260246000fd5b620007428162000666565b81146200034257600080fd5b61ffff811662000742565b60805160a0516128716200079b600039600081816113730152818161139d0152611735015260008181610773015281816109e90152610d9401526128716000f3fe6080604052600436106101b75760003560e01c80636a326ab1116100ec578063b88d4fde1161008a578063d7224ba011610064578063d7224ba0146104d6578063e985e9c5146104ec578063eb1977e714610535578063f2fde38b1461055557600080fd5b8063b88d4fde14610476578063bbd611f114610496578063c87b56dd146104b657600080fd5b80638da5cb5b116100c65780638da5cb5b146103f657806395d89b4114610414578063a22cb46514610429578063acb586df1461044957600080fd5b80636a326ab1146103a157806370a08231146103c1578063715018a6146103e157600080fd5b806323b872dd116101595780633c10549d116101335780633c10549d1461032157806342842e0e146103415780634f6ccce7146103615780636352211e1461038157600080fd5b806323b872dd146102b45780632f745c59146102d45780633013ce29146102f457600080fd5b8063095ea7b311610195578063095ea7b31461024157806318160ddd1461026357806321b2dc8a14610281578063237128471461029457600080fd5b806301ffc9a7146101bc57806306fdde03146101f2578063081812fc14610214575b600080fd5b3480156101c857600080fd5b506101dc6101d7366004611bb9565b610575565b6040516101e9919061239d565b60405180910390f35b3480156101fe57600080fd5b506102076105e2565b6040516101e991906123c7565b34801561022057600080fd5b5061023461022f366004611c13565b610674565b6040516101e99190612323565b34801561024d57600080fd5b5061026161025c366004611b28565b6106c2565b005b34801561026f57600080fd5b506000545b6040516101e99190612558565b61026161028f366004611c61565b610749565b3480156102a057600080fd5b506102616102af366004611c31565b610843565b3480156102c057600080fd5b506102616102cf366004611a32565b6108c6565b3480156102e057600080fd5b506102746102ef366004611b28565b6108d1565b34801561030057600080fd5b50600e54610314906001600160a01b031681565b6040516101e991906123ab565b34801561032d57600080fd5b5061026161033c366004611b58565b6109bd565b34801561034d57600080fd5b5061026161035c366004611a32565b610a48565b34801561036d57600080fd5b5061027461037c366004611c13565b610a63565b34801561038d57600080fd5b5061023461039c366004611c13565b610a89565b3480156103ad57600080fd5b506102616103bc366004611bf5565b610a9b565b3480156103cd57600080fd5b506102746103dc3660046119da565b610ae7565b3480156103ed57600080fd5b50610261610b34565b34801561040257600080fd5b506008546001600160a01b0316610234565b34801561042057600080fd5b50610207610b6a565b34801561043557600080fd5b50610261610444366004611af8565b610b79565b34801561045557600080fd5b50610469610464366004611c13565b610c11565b6040516101e991906123b9565b34801561048257600080fd5b50610261610491366004611a7f565b610c50565b3480156104a257600080fd5b506102616104b1366004611c31565b610c89565b3480156104c257600080fd5b506102076104d1366004611c13565b610cd8565b3480156104e257600080fd5b5061027460075481565b3480156104f857600080fd5b506101dc6105073660046119f8565b6001600160a01b03918216600090815260066020908152604080832093909416825291909152205460ff1690565b34801561054157600080fd5b50610261610550366004611c61565b610d6a565b34801561056157600080fd5b506102616105703660046119da565b610ed7565b60006001600160e01b031982166380ac58cd60e01b14806105a657506001600160e01b03198216635b5e139f60e01b145b806105c157506001600160e01b0319821663780e9d6360e01b145b806105dc57506301ffc9a760e01b6001600160e01b03198316145b92915050565b6060600180546105f1906126e3565b80601f016020809104026020016040519081016040528092919081815260200182805461061d906126e3565b801561066a5780601f1061063f5761010080835404028352916020019161066a565b820191906000526020600020905b81548152906001019060200180831161064d57829003601f168201915b5050505050905090565b6000610681826000541190565b6106a65760405162461bcd60e51b815260040161069d90612538565b60405180910390fd5b506000908152600560205260409020546001600160a01b031690565b60006106cd82610a89565b9050806001600160a01b0316836001600160a01b031614156107015760405162461bcd60e51b815260040161069d906124b8565b336001600160a01b038216148061071d575061071d8133610507565b6107395760405162461bcd60e51b815260040161069d90612438565b610744838383610f33565b505050565b6002600954141561076c5760405162461bcd60e51b815260040161069d90612518565b60026009557f000000000000000000000000000000000000000000000000000000000000000060ff831661079f60005490565b6107a991906125e5565b11156107c75760405162461bcd60e51b815260040161069d906123e8565b6107d2338383610f8f565b61083a8260ff16600b60008460058111156107fd57634e487b7160e01b600052602160045260246000fd5b600581111561081c57634e487b7160e01b600052602160045260246000fd5b815260200190815260200160002054610835919061260c565b611012565b50506001600955565b6008546001600160a01b0316331461086d5760405162461bcd60e51b815260040161069d90612478565b81600c600083600581111561089257634e487b7160e01b600052602160045260246000fd5b60058111156108b157634e487b7160e01b600052602160045260246000fd5b81526020810191909152604001600020555050565b610744838383611074565b60006108dc83610ae7565b82106108fa5760405162461bcd60e51b815260040161069d906123d8565b600080549080805b838110156109a4576000818152600360209081526040918290208251808401909352546001600160a01b038116808452600160a01b90910467ffffffffffffffff16918301919091521561095557805192505b876001600160a01b0316836001600160a01b031614156109915786841415610983575093506105dc92505050565b8361098d8161273d565b9450505b508061099c8161273d565b915050610902565b5060405162461bcd60e51b815260040161069d90612508565b6008546001600160a01b031633146109e75760405162461bcd60e51b815260040161069d90612478565b7f00000000000000000000000000000000000000000000000000000000000000008260ff16610a1560005490565b610a1f91906125e5565b1115610a3d5760405162461bcd60e51b815260040161069d906123e8565b610744838383610f8f565b61074483838360405180602001604052806000815250610c50565b600080548210610a855760405162461bcd60e51b815260040161069d90612418565b5090565b6000610a9482611334565b5192915050565b6008546001600160a01b03163314610ac55760405162461bcd60e51b815260040161069d90612478565b600e80546001600160a01b0319166001600160a01b0392909216919091179055565b60006001600160a01b038216610b0f5760405162461bcd60e51b815260040161069d90612448565b506001600160a01b03166000908152600460205260409020546001600160801b031690565b6008546001600160a01b03163314610b5e5760405162461bcd60e51b815260040161069d90612478565b610b686000611453565b565b6060600280546105f1906126e3565b6001600160a01b038216331415610ba25760405162461bcd60e51b815260040161069d90612498565b3360008181526006602090815260408083206001600160a01b038716808552925291829020805460ff191685151517905590519091907f17307eab39ab6107e8899845ad3d59bd9653f200f220920489ca2b5937696c3190610c0590859061239d565b60405180910390a35050565b6000610c1e826000541190565b610c3a5760405162461bcd60e51b815260040161069d90612458565b506000908152600a602052604090205460ff1690565b610c5b848484611074565b610c67848484846114a5565b610c835760405162461bcd60e51b815260040161069d906124c8565b50505050565b6008546001600160a01b03163314610cb35760405162461bcd60e51b815260040161069d90612478565b81600b600083600581111561089257634e487b7160e01b600052602160045260246000fd5b6060610ce5826000541190565b610d015760405162461bcd60e51b815260040161069d90612488565b6000610d1860408051602081019091526000815290565b90506000815111610d385760405180602001604052806000815250610d63565b80610d42846115b3565b604051602001610d5392919061230b565b6040516020818303038152906040525b9392505050565b60026009541415610d8d5760405162461bcd60e51b815260040161069d90612518565b60026009557f000000000000000000000000000000000000000000000000000000000000000060ff8316610dc060005490565b610dca91906125e5565b1115610de85760405162461bcd60e51b815260040161069d906123e8565b600e546001600160a01b03166323b872dd3330600c6000866005811115610e1f57634e487b7160e01b600052602160045260246000fd5b6005811115610e3e57634e487b7160e01b600052602160045260246000fd5b8152602001908152602001600020548660ff16610e5b919061260c565b6040518463ffffffff1660e01b8152600401610e7993929190612331565b602060405180830381600087803b158015610e9357600080fd5b505af1158015610ea7573d6000803e3d6000fd5b505050506040513d601f19601f82011682018060405250810190610ecb9190611b9b565b5061083a338383610f8f565b6008546001600160a01b03163314610f015760405162461bcd60e51b815260040161069d90612478565b6001600160a01b038116610f275760405162461bcd60e51b815260040161069d906123f8565b610f3081611453565b50565b60008281526005602052604080822080546001600160a01b0319166001600160a01b0387811691821790925591518593918516917f8c5be1e5ebec7d5bd14f71427d1e84f3dd0314c0f7b2291e5b200ac8c7c3b92591a4505050565b600054610f9f8460ff85166116cd565b60005b8360ff1681101561100b5782600a6000610fbc84866125e5565b81526020810191909152604001600020805460ff19166001836005811115610ff457634e487b7160e01b600052602160045260246000fd5b0217905550806110038161273d565b915050610fa2565b5050505050565b803410156110325760405162461bcd60e51b815260040161069d906124d8565b80341115610f3057336108fc611048833461265b565b6040518115909202916000818181858888f19350505050158015611070573d6000803e3d6000fd5b5050565b600061107f82611334565b80519091506000906001600160a01b0316336001600160a01b031614806110b65750336110ab84610674565b6001600160a01b0316145b806110c8575081516110c89033610507565b9050806110e75760405162461bcd60e51b815260040161069d906124a8565b846001600160a01b031682600001516001600160a01b03161461111c5760405162461bcd60e51b815260040161069d90612468565b6001600160a01b0384166111425760405162461bcd60e51b815260040161069d90612428565b6111526000848460000151610f33565b6001600160a01b03851660009081526004602052604081208054600192906111849084906001600160801b031661262b565b82546101009290920a6001600160801b038181021990931691831602179091556001600160a01b038616600090815260046020526040812080546001945090926111d0918591166125ad565b82546001600160801b039182166101009390930a9283029190920219909116179055506040805180820182526001600160a01b03808716825267ffffffffffffffff428116602080850191825260008981526003909152948520935184549151909216600160a01b026001600160e01b031990911691909216171790556112588460016125e5565b6000818152600360205260409020549091506001600160a01b03166112ea57611282816000541190565b156112ea5760408051808201825284516001600160a01b03908116825260208087015167ffffffffffffffff9081168285019081526000878152600390935294909120925183549451909116600160a01b026001600160e01b03199094169116179190911790555b83856001600160a01b0316876001600160a01b03167fddf252ad1be2c89b69c2b068fc378daa952ba7f163c4a11628f55a4df523b3ef60405160405180910390a45b505050505050565b6040805180820190915260008082526020820152611353826000541190565b61136f5760405162461bcd60e51b815260040161069d90612408565b60007f000000000000000000000000000000000000000000000000000000000000000083106113d0576113c27f00000000000000000000000000000000000000000000000000000000000000008461265b565b6113cd9060016125e5565b90505b825b81811061143a576000818152600360209081526040918290208251808401909352546001600160a01b038116808452600160a01b90910467ffffffffffffffff16918301919091521561142757949350505050565b5080611432816126cc565b9150506113d2565b5060405162461bcd60e51b815260040161069d90612528565b600880546001600160a01b038381166001600160a01b0319831681179093556040519116919082907f8be0079c531659141344cd1fd0a4f28419497f9722a3daafe3b4186f6b6457e090600090a35050565b60006001600160a01b0384163b156115a757604051630a85bd0160e11b81526001600160a01b0385169063150b7a02906114e9903390899088908890600401612359565b602060405180830381600087803b15801561150357600080fd5b505af1925050508015611533575060408051601f3d908101601f1916820190925261153091810190611bd7565b60015b61158d573d808015611561576040519150601f19603f3d011682016040523d82523d6000602084013e611566565b606091505b5080516115855760405162461bcd60e51b815260040161069d906124c8565b805181602001fd5b6001600160e01b031916630a85bd0160e11b1490506115ab565b5060015b949350505050565b6060816115d75750506040805180820190915260018152600360fc1b602082015290565b8160005b811561160157806115eb8161273d565b91506115fa9050600a836125f8565b91506115db565b60008167ffffffffffffffff81111561162a57634e487b7160e01b600052604160045260246000fd5b6040519080825280601f01601f191660200182016040528015611654576020820181803683370190505b5090505b84156115ab5761166960018361265b565b9150611676600a86612758565b6116819060306125e5565b60f81b8183815181106116a457634e487b7160e01b600052603260045260246000fd5b60200101906001600160f81b031916908160001a9053506116c6600a866125f8565b9450611658565b6110708282604051806020016040528060008152506000546001600160a01b03841661170b5760405162461bcd60e51b815260040161069d906124f8565b611716816000541190565b156117335760405162461bcd60e51b815260040161069d906124e8565b7f00000000000000000000000000000000000000000000000000000000000000008311156117735760405162461bcd60e51b815260040161069d90612548565b6001600160a01b0384166000908152600460209081526040918290208251808401845290546001600160801b038082168352600160801b90910416918101919091528151808301909252805190919081906117cf9087906125ad565b6001600160801b031681526020018583602001516117ed91906125ad565b6001600160801b039081169091526001600160a01b0380881660008181526004602090815260408083208751978301518716600160801b0297909616969096179094558451808601865291825267ffffffffffffffff4281168386019081528883526003909552948120915182549451909516600160a01b026001600160e01b031990941694909216939093179190911790915582905b8581101561190d5760405182906001600160a01b038916906000907fddf252ad1be2c89b69c2b068fc378daa952ba7f163c4a11628f55a4df523b3ef908290a46118d160008884886114a5565b6118ed5760405162461bcd60e51b815260040161069d906124c8565b816118f78161273d565b92505080806119059061273d565b915050611884565b50600081905561132c565b600061192b61192684612582565b612566565b90508281526020810184848401111561194357600080fd5b61194e848285612694565b509392505050565b80356105dc816127ea565b80356105dc816127fe565b80516105dc816127fe565b80356105dc81612806565b80516105dc81612806565b600082601f83011261199e57600080fd5b81356115ab848260208601611918565b80356105dc81612816565b80356105dc8161281f565b80356105dc8161282c565b80356105dc81612832565b6000602082840312156119ec57600080fd5b60006115ab8484611956565b60008060408385031215611a0b57600080fd5b6000611a178585611956565b9250506020611a2885828601611956565b9150509250929050565b600080600060608486031215611a4757600080fd5b6000611a538686611956565b9350506020611a6486828701611956565b9250506040611a75868287016119c4565b9150509250925092565b60008060008060808587031215611a9557600080fd5b6000611aa18787611956565b9450506020611ab287828801611956565b9350506040611ac3878288016119c4565b925050606085013567ffffffffffffffff811115611ae057600080fd5b611aec8782880161198d565b91505092959194509250565b60008060408385031215611b0b57600080fd5b6000611b178585611956565b9250506020611a2885828601611961565b60008060408385031215611b3b57600080fd5b6000611b478585611956565b9250506020611a28858286016119c4565b600080600060608486031215611b6d57600080fd5b6000611b798686611956565b9350506020611b8a868287016119cf565b9250506040611a75868287016119b9565b600060208284031215611bad57600080fd5b60006115ab848461196c565b600060208284031215611bcb57600080fd5b60006115ab8484611977565b600060208284031215611be957600080fd5b60006115ab8484611982565b600060208284031215611c0757600080fd5b60006115ab84846119ae565b600060208284031215611c2557600080fd5b60006115ab84846119c4565b60008060408385031215611c4457600080fd5b6000611c5085856119c4565b9250506020611a28858286016119b9565b60008060408385031215611c7457600080fd5b6000611c5085856119cf565b611c8981612663565b82525050565b801515611c89565b6000611ca1825190565b808452602084019350611cb88185602086016126a0565b601f01601f19169290920192915050565b611c8981612674565b611c8981612689565b6000611ce5825190565b611cf38185602086016126a0565b9290920192915050565b602281526000602082017f455243373231413a206f776e657220696e646578206f7574206f6620626f756e815261647360f01b602082015291505b5060400190565b601281526000602082017145786365656473204d617820537570706c7960701b815291505b5060200190565b602681526000602082017f4f776e61626c653a206e6577206f776e657220697320746865207a65726f206181526564647265737360d01b60208201529150611d38565b602a81526000602082017f455243373231413a206f776e657220717565727920666f72206e6f6e657869738152693a32b73a103a37b5b2b760b11b60208201529150611d38565b602381526000602082017f455243373231413a20676c6f62616c20696e646578206f7574206f6620626f758152626e647360e81b60208201529150611d38565b602581526000602082017f455243373231413a207472616e7366657220746f20746865207a65726f206164815264647265737360d81b60208201529150611d38565b603981526000602082017f455243373231413a20617070726f76652063616c6c6572206973206e6f74206f81527f776e6572206e6f7220617070726f76656420666f7220616c6c0000000000000060208201529150611d38565b602b81526000602082017f455243373231413a2062616c616e636520717565727920666f7220746865207a81526a65726f206164647265737360a81b60208201529150611d38565b600f81526000602082016e2737ba1032bc34b9ba399027232a1760891b81529150611d64565b602681526000602082017f455243373231413a207472616e736665722066726f6d20696e636f72726563748152651037bbb732b960d11b60208201529150611d38565b60208082527f4f776e61626c653a2063616c6c6572206973206e6f7420746865206f776e657291019081526000611d64565b602f81526000602082017f4552433732314d657461646174613a2055524920717565727920666f72206e6f81526e3732bc34b9ba32b73a103a37b5b2b760891b60208201529150611d38565b601a81526000602082017f455243373231413a20617070726f766520746f2063616c6c657200000000000081529150611d64565b603281526000602082017f455243373231413a207472616e736665722063616c6c6572206973206e6f74208152711bdddb995c881b9bdc88185c1c1c9bdd995960721b60208201529150611d38565b602281526000602082017f455243373231413a20617070726f76616c20746f2063757272656e74206f776e81526132b960f11b60208201529150611d38565b603381526000602082017f455243373231413a207472616e7366657220746f206e6f6e204552433732315281527232b1b2b4bb32b91034b6b83632b6b2b73a32b960691b60208201529150611d38565b60168152600060208201752732b2b2103a379039b2b7321036b7b9329022aa241760511b81529150611d64565b601d81526000602082017f455243373231413a20746f6b656e20616c7265616479206d696e74656400000081529150611d64565b602181526000602082017f455243373231413a206d696e7420746f20746865207a65726f206164647265738152607360f81b60208201529150611d38565b602e81526000602082017f455243373231413a20756e61626c6520746f2067657420746f6b656e206f662081526d0deeedccae440c4f240d2dcc8caf60931b60208201529150611d38565b601f81526000602082017f5265656e7472616e637947756172643a207265656e7472616e742063616c6c0081529150611d64565b602f81526000602082017f455243373231413a20756e61626c6520746f2064657465726d696e652074686581526e1037bbb732b91037b3103a37b5b2b760891b60208201529150611d38565b602d81526000602082017f455243373231413a20617070726f76656420717565727920666f72206e6f6e6581526c3c34b9ba32b73a103a37b5b2b760991b60208201529150611d38565b602281526000602082017f455243373231413a207175616e7469747920746f206d696e7420746f6f2068698152610ced60f31b60208201529150611d38565b80611c89565b60006123178285611cdb565b91506115ab8284611cdb565b602081016105dc8284611c80565b6060810161233f8286611c80565b61234c6020830185611c80565b6115ab6040830184612305565b608081016123678287611c80565b6123746020830186611c80565b6123816040830185612305565b81810360608301526123938184611c97565b9695505050505050565b602081016105dc8284611c8f565b602081016105dc8284611cc9565b602081016105dc8284611cd2565b60208082528101610d638184611c97565b602080825281016105dc81611cfd565b602080825281016105dc81611d3f565b602080825281016105dc81611d6b565b602080825281016105dc81611dae565b602080825281016105dc81611df5565b602080825281016105dc81611e35565b602080825281016105dc81611e77565b602080825281016105dc81611ed1565b602080825281016105dc81611f19565b602080825281016105dc81611f3f565b602080825281016105dc81611f82565b602080825281016105dc81611fb4565b602080825281016105dc81612000565b602080825281016105dc81612034565b602080825281016105dc81612083565b602080825281016105dc816120c2565b602080825281016105dc81612112565b602080825281016105dc8161213f565b602080825281016105dc81612173565b602080825281016105dc816121b1565b602080825281016105dc816121fc565b602080825281016105dc81612230565b602080825281016105dc8161227c565b602080825281016105dc816122c6565b602081016105dc8284612305565b600061257160405190565b905061257d8282612710565b919050565b600067ffffffffffffffff82111561259c5761259c6127c4565b601f19601f83011660200192915050565b60006001600160801b03821691506001600160801b0383169250826001600160801b03038211156125e0576125e061276c565b500190565b600082198211156125e0576125e061276c565b60008261260757612607612782565b500490565b60008160001904831182151516156126265761262661276c565b500290565b60006001600160801b03821691506001600160801b0383165b9250828210156126565761265661276c565b500390565b600082612644565b60006001600160a01b0382166105dc565b60006105dc82612663565b8061257d816127da565b60006105dc8261267f565b82818337506000910152565b60005b838110156126bb5781810151838201526020016126a3565b83811115610c835750506000910152565b6000816126db576126db61276c565b506000190190565b6002810460018216806126f757607f821691505b6020821081141561270a5761270a6127ae565b50919050565b601f19601f830116810181811067ffffffffffffffff82111715612736576127366127c4565b6040525050565b60006000198214156127515761275161276c565b5060010190565b60008261276757612767612782565b500690565b634e487b7160e01b600052601160045260246000fd5b634e487b7160e01b600052601260045260246000fd5b634e487b7160e01b600052602160045260246000fd5b634e487b7160e01b600052602260045260246000fd5b634e487b7160e01b600052604160045260246000fd5b60068110610f3057610f30612798565b6127f381612663565b8114610f3057600080fd5b8015156127f3565b6001600160e01b031981166127f3565b6127f381612674565b60068110610f3057600080fd5b806127f3565b60ff81166127f356fea264697066735822122046b6230d68726c06eac3ea41218ad77dd42ae06e07c661accfe44ff88b88a2f064736f6c63430008040033",
  "devdoc": {
    "kind": "dev",
    "methods": {
      "approve(address,uint256)": {
        "details": "See {IERC721-approve}."
      },
      "balanceOf(address)": {
        "details": "See {IERC721-balanceOf}."
      },
      "getApproved(uint256)": {
        "details": "See {IERC721-getApproved}."
      },
      "isApprovedForAll(address,address)": {
        "details": "See {IERC721-isApprovedForAll}."
      },
      "name()": {
        "details": "See {IERC721Metadata-name}."
      },
      "owner()": {
        "details": "Returns the address of the current owner."
      },
      "ownerOf(uint256)": {
        "details": "See {IERC721-ownerOf}."
      },
      "renounceOwnership()": {
        "details": "Leaves the contract without owner. It will not be possible to call `onlyOwner` functions anymore. Can only be called by the current owner. NOTE: Renouncing ownership will leave the contract without an owner, thereby removing any functionality that is only available to the owner."
      },
      "safeTransferFrom(address,address,uint256)": {
        "details": "See {IERC721-safeTransferFrom}."
      },
      "safeTransferFrom(address,address,uint256,bytes)": {
        "details": "See {IERC721-safeTransferFrom}."
      },
      "setApprovalForAll(address,bool)": {
        "details": "See {IERC721-setApprovalForAll}."
      },
      "supportsInterface(bytes4)": {
        "details": "See {IERC165-supportsInterface}."
      },
      "symbol()": {
        "details": "See {IERC721Metadata-symbol}."
      },
      "tokenByIndex(uint256)": {
        "details": "See {IERC721Enumerable-tokenByIndex}."
      },
      "tokenOfOwnerByIndex(address,uint256)": {
        "details": "See {IERC721Enumerable-tokenOfOwnerByIndex}. This read function is O(collectionSize). If calling from a separate contract, be sure to test gas first. It may also degrade with extremely large collection sizes (e.g >> 10000), test for your use case."
      },
      "tokenURI(uint256)": {
        "details": "See {IERC721Metadata-tokenURI}."
      },
      "totalSupply()": {
        "details": "See {IERC721Enumerable-totalSupply}."
      },
      "transferFrom(address,address,uint256)": {
        "details": "See {IERC721-transferFrom}."
      },
      "transferOwnership(address)": {
        "details": "Transfers ownership of the contract to a new account (`newOwner`). Can only be called by the current owner."
      }
    },
    "version": 1
  },
  "userdoc": {
    "kind": "user",
    "methods": {},
    "version": 1
  },
  "storageLayout": {
    "storage": [
      {
        "astId": 8703,
        "contract": "contracts/AvatarAssets.sol:AvatarAssets",
        "label": "currentIndex",
        "offset": 0,
        "slot": "0",
        "type": "t_uint256"
      },
      {
        "astId": 8709,
        "contract": "contracts/AvatarAssets.sol:AvatarAssets",
        "label": "_name",
        "offset": 0,
        "slot": "1",
        "type": "t_string_storage"
      },
      {
        "astId": 8711,
        "contract": "contracts/AvatarAssets.sol:AvatarAssets",
        "label": "_symbol",
        "offset": 0,
        "slot": "2",
        "type": "t_string_storage"
      },
      {
        "astId": 8716,
        "contract": "contracts/AvatarAssets.sol:AvatarAssets",
        "label": "_ownerships",
        "offset": 0,
        "slot": "3",
        "type": "t_mapping(t_uint256,t_struct(TokenOwnership)8695_storage)"
      },
      {
        "astId": 8721,
        "contract": "contracts/AvatarAssets.sol:AvatarAssets",
        "label": "_addressData",
        "offset": 0,
        "slot": "4",
        "type": "t_mapping(t_address,t_struct(AddressData)8700_storage)"
      },
      {
        "astId": 8725,
        "contract": "contracts/AvatarAssets.sol:AvatarAssets",
        "label": "_tokenApprovals",
        "offset": 0,
        "slot": "5",
        "type": "t_mapping(t_uint256,t_address)"
      },
      {
        "astId": 8731,
        "contract": "contracts/AvatarAssets.sol:AvatarAssets",
        "label": "_operatorApprovals",
        "offset": 0,
        "slot": "6",
        "type": "t_mapping(t_address,t_mapping(t_address,t_bool))"
      },
      {
        "astId": 9674,
        "contract": "contracts/AvatarAssets.sol:AvatarAssets",
        "label": "nextOwnerToExplicitlySet",
        "offset": 0,
        "slot": "7",
        "type": "t_uint256"
      },
      {
        "astId": 7,
        "contract": "contracts/AvatarAssets.sol:AvatarAssets",
        "label": "_owner",
        "offset": 0,
        "slot": "8",
        "type": "t_address"
      },
      {
        "astId": 115,
        "contract": "contracts/AvatarAssets.sol:AvatarAssets",
        "label": "_status",
        "offset": 0,
        "slot": "9",
        "type": "t_uint256"
      },
      {
        "astId": 2227,
        "contract": "contracts/AvatarAssets.sol:AvatarAssets",
        "label": "assetType",
        "offset": 0,
        "slot": "10",
        "type": "t_mapping(t_uint256,t_enum(CustomizableTrait)8352)"
      },
      {
        "astId": 2232,
        "contract": "contracts/AvatarAssets.sol:AvatarAssets",
        "label": "pricesInEth",
        "offset": 0,
        "slot": "11",
        "type": "t_mapping(t_enum(CustomizableTrait)8352,t_uint256)"
      },
      {
        "astId": 2237,
        "contract": "contracts/AvatarAssets.sol:AvatarAssets",
        "label": "pricesInToken",
        "offset": 0,
        "slot": "12",
        "type": "t_mapping(t_enum(CustomizableTrait)8352,t_uint256)"
      },
      {
        "astId": 2240,
        "contract": "contracts/AvatarAssets.sol:AvatarAssets",
        "label": "baseUris",
        "offset": 0,
        "slot": "13",
        "type": "t_array(t_string_storage)dyn_storage"
      },
      {
        "astId": 2243,
        "contract": "contracts/AvatarAssets.sol:AvatarAssets",
        "label": "paymentToken",
        "offset": 0,
        "slot": "14",
        "type": "t_contract(IERC20)222"
      }
    ],
    "types": {
      "t_address": {
        "encoding": "inplace",
        "label": "address",
        "numberOfBytes": "20"
      },
      "t_array(t_string_storage)dyn_storage": {
        "base": "t_string_storage",
        "encoding": "dynamic_array",
        "label": "string[]",
        "numberOfBytes": "32"
      },
      "t_bool": {
        "encoding": "inplace",
        "label": "bool",
        "numberOfBytes": "1"
      },
      "t_contract(IERC20)222": {
        "encoding": "inplace",
        "label": "contract IERC20",
        "numberOfBytes": "20"
      },
      "t_enum(CustomizableTrait)8352": {
        "encoding": "inplace",
        "label": "enum AvatarBasic.CustomizableTrait",
        "numberOfBytes": "1"
      },
      "t_mapping(t_address,t_bool)": {
        "encoding": "mapping",
        "key": "t_address",
        "label": "mapping(address => bool)",
        "numberOfBytes": "32",
        "value": "t_bool"
      },
      "t_mapping(t_address,t_mapping(t_address,t_bool))": {
        "encoding": "mapping",
        "key": "t_address",
        "label": "mapping(address => mapping(address => bool))",
        "numberOfBytes": "32",
        "value": "t_mapping(t_address,t_bool)"
      },
      "t_mapping(t_address,t_struct(AddressData)8700_storage)": {
        "encoding": "mapping",
        "key": "t_address",
        "label": "mapping(address => struct ERC721A.AddressData)",
        "numberOfBytes": "32",
        "value": "t_struct(AddressData)8700_storage"
      },
      "t_mapping(t_enum(CustomizableTrait)8352,t_uint256)": {
        "encoding": "mapping",
        "key": "t_enum(CustomizableTrait)8352",
        "label": "mapping(enum AvatarBasic.CustomizableTrait => uint256)",
        "numberOfBytes": "32",
        "value": "t_uint256"
      },
      "t_mapping(t_uint256,t_address)": {
        "encoding": "mapping",
        "key": "t_uint256",
        "label": "mapping(uint256 => address)",
        "numberOfBytes": "32",
        "value": "t_address"
      },
      "t_mapping(t_uint256,t_enum(CustomizableTrait)8352)": {
        "encoding": "mapping",
        "key": "t_uint256",
        "label": "mapping(uint256 => enum AvatarBasic.CustomizableTrait)",
        "numberOfBytes": "32",
        "value": "t_enum(CustomizableTrait)8352"
      },
      "t_mapping(t_uint256,t_struct(TokenOwnership)8695_storage)": {
        "encoding": "mapping",
        "key": "t_uint256",
        "label": "mapping(uint256 => struct ERC721A.TokenOwnership)",
        "numberOfBytes": "32",
        "value": "t_struct(TokenOwnership)8695_storage"
      },
      "t_string_storage": {
        "encoding": "bytes",
        "label": "string",
        "numberOfBytes": "32"
      },
      "t_struct(AddressData)8700_storage": {
        "encoding": "inplace",
        "label": "struct ERC721A.AddressData",
        "members": [
          {
            "astId": 8697,
            "contract": "contracts/AvatarAssets.sol:AvatarAssets",
            "label": "balance",
            "offset": 0,
            "slot": "0",
            "type": "t_uint128"
          },
          {
            "astId": 8699,
            "contract": "contracts/AvatarAssets.sol:AvatarAssets",
            "label": "numberMinted",
            "offset": 16,
            "slot": "0",
            "type": "t_uint128"
          }
        ],
        "numberOfBytes": "32"
      },
      "t_struct(TokenOwnership)8695_storage": {
        "encoding": "inplace",
        "label": "struct ERC721A.TokenOwnership",
        "members": [
          {
            "astId": 8692,
            "contract": "contracts/AvatarAssets.sol:AvatarAssets",
            "label": "addr",
            "offset": 0,
            "slot": "0",
            "type": "t_address"
          },
          {
            "astId": 8694,
            "contract": "contracts/AvatarAssets.sol:AvatarAssets",
            "label": "startTimestamp",
            "offset": 20,
            "slot": "0",
            "type": "t_uint64"
          }
        ],
        "numberOfBytes": "32"
      },
      "t_uint128": {
        "encoding": "inplace",
        "label": "uint128",
        "numberOfBytes": "16"
      },
      "t_uint256": {
        "encoding": "inplace",
        "label": "uint256",
        "numberOfBytes": "32"
      },
      "t_uint64": {
        "encoding": "inplace",
        "label": "uint64",
        "numberOfBytes": "8"
      }
    }
  }
}