{
  "address": "0x831a721007308E45e66496Ea78203d35c5AcD309",
  "abi": [
    {
      "inputs": [
        {
          "internalType": "address",
          "name": "_dragonNFTAddress",
          "type": "address"
        },
        {
          "internalType": "address",
          "name": "_signer",
          "type": "address"
        },
        {
          "internalType": "uint256[2][7][4][5]",
          "name": "_stateRanges",
          "type": "uint256[2][7][4][5]"
        }
      ],
      "stateMutability": "nonpayable",
      "type": "constructor"
    },
    {
      "anonymous": false,
      "inputs": [
        {
          "indexed": true,
          "internalType": "address",
          "name": "previousOwner",
          "type": "address"
        },
        {
          "indexed": true,
          "internalType": "address",
          "name": "newOwner",
          "type": "address"
        }
      ],
      "name": "OwnershipTransferred",
      "type": "event"
    },
    {
      "inputs": [],
      "name": "MAX_LEVEL",
      "outputs": [
        {
          "internalType": "uint8",
          "name": "",
          "type": "uint8"
        }
      ],
      "stateMutability": "view",
      "type": "function"
    },
    {
      "inputs": [],
      "name": "MIN_LEVEL",
      "outputs": [
        {
          "internalType": "uint8",
          "name": "",
          "type": "uint8"
        }
      ],
      "stateMutability": "view",
      "type": "function"
    },
    {
      "inputs": [
        {
          "internalType": "uint256",
          "name": "tokenId",
          "type": "uint256"
        }
      ],
      "name": "cancelHatchEgg",
      "outputs": [],
      "stateMutability": "nonpayable",
      "type": "function"
    },
    {
      "inputs": [
        {
          "internalType": "uint256",
          "name": "tokenId",
          "type": "uint256"
        }
      ],
      "name": "cancelUpgradeSpecial",
      "outputs": [],
      "stateMutability": "nonpayable",
      "type": "function"
    },
    {
      "inputs": [
        {
          "internalType": "uint256",
          "name": "tokenId",
          "type": "uint256"
        }
      ],
      "name": "cancelUpgradeState",
      "outputs": [],
      "stateMutability": "nonpayable",
      "type": "function"
    },
    {
      "inputs": [],
      "name": "dragonNFTAddress",
      "outputs": [
        {
          "internalType": "address",
          "name": "",
          "type": "address"
        }
      ],
      "stateMutability": "view",
      "type": "function"
    },
    {
      "inputs": [],
      "name": "durationForHatch",
      "outputs": [
        {
          "internalType": "uint256",
          "name": "",
          "type": "uint256"
        }
      ],
      "stateMutability": "view",
      "type": "function"
    },
    {
      "inputs": [
        {
          "internalType": "uint256",
          "name": "",
          "type": "uint256"
        }
      ],
      "name": "feeForUpgradeSpecial",
      "outputs": [
        {
          "internalType": "uint256",
          "name": "",
          "type": "uint256"
        }
      ],
      "stateMutability": "view",
      "type": "function"
    },
    {
      "inputs": [
        {
          "internalType": "uint256",
          "name": "",
          "type": "uint256"
        }
      ],
      "name": "feeForUpgradeState",
      "outputs": [
        {
          "internalType": "uint256",
          "name": "",
          "type": "uint256"
        }
      ],
      "stateMutability": "view",
      "type": "function"
    },
    {
      "inputs": [],
      "name": "getSigner",
      "outputs": [
        {
          "internalType": "address",
          "name": "",
          "type": "address"
        }
      ],
      "stateMutability": "view",
      "type": "function"
    },
    {
      "inputs": [
        {
          "internalType": "uint256",
          "name": "tokenId",
          "type": "uint256"
        },
        {
          "internalType": "bytes",
          "name": "signature",
          "type": "bytes"
        }
      ],
      "name": "hatchEgg",
      "outputs": [],
      "stateMutability": "nonpayable",
      "type": "function"
    },
    {
      "inputs": [],
      "name": "owner",
      "outputs": [
        {
          "internalType": "address",
          "name": "",
          "type": "address"
        }
      ],
      "stateMutability": "view",
      "type": "function"
    },
    {
      "inputs": [
        {
          "internalType": "uint256",
          "name": "",
          "type": "uint256"
        }
      ],
      "name": "pendingDurationForSpecialSkill",
      "outputs": [
        {
          "internalType": "uint256",
          "name": "",
          "type": "uint256"
        }
      ],
      "stateMutability": "view",
      "type": "function"
    },
    {
      "inputs": [
        {
          "internalType": "uint256",
          "name": "",
          "type": "uint256"
        }
      ],
      "name": "pendingDurationForState",
      "outputs": [
        {
          "internalType": "uint256",
          "name": "",
          "type": "uint256"
        }
      ],
      "stateMutability": "view",
      "type": "function"
    },
    {
      "inputs": [
        {
          "internalType": "uint256",
          "name": "",
          "type": "uint256"
        }
      ],
      "name": "pendingToUpgradeInfo",
      "outputs": [
        {
          "internalType": "address",
          "name": "owner",
          "type": "address"
        },
        {
          "internalType": "uint256",
          "name": "startAt",
          "type": "uint256"
        },
        {
          "internalType": "bool",
          "name": "pending",
          "type": "bool"
        },
        {
          "internalType": "uint256",
          "name": "fee",
          "type": "uint256"
        },
        {
          "internalType": "uint256",
          "name": "duration",
          "type": "uint256"
        }
      ],
      "stateMutability": "view",
      "type": "function"
    },
    {
      "inputs": [],
      "name": "renounceOwnership",
      "outputs": [],
      "stateMutability": "nonpayable",
      "type": "function"
    },
    {
      "inputs": [
        {
          "internalType": "uint256",
          "name": "tokenId",
          "type": "uint256"
        }
      ],
      "name": "requestHatchEgg",
      "outputs": [],
      "stateMutability": "nonpayable",
      "type": "function"
    },
    {
      "inputs": [
        {
          "internalType": "uint256",
          "name": "tokenId",
          "type": "uint256"
        },
        {
          "internalType": "bytes",
          "name": "signature",
          "type": "bytes"
        }
      ],
      "name": "requestUpgradeSpecial",
      "outputs": [],
      "stateMutability": "nonpayable",
      "type": "function"
    },
    {
      "inputs": [
        {
          "internalType": "uint256",
          "name": "tokenId",
          "type": "uint256"
        },
        {
          "internalType": "enum DragonBasic.Stat[]",
          "name": "keys",
          "type": "uint8[]"
        }
      ],
      "name": "requestUpgradeState",
      "outputs": [],
      "stateMutability": "nonpayable",
      "type": "function"
    },
    {
      "inputs": [
        {
          "internalType": "uint256[5]",
          "name": "fees",
          "type": "uint256[5]"
        }
      ],
      "name": "setFeeForUpgradeSpecial",
      "outputs": [],
      "stateMutability": "nonpayable",
      "type": "function"
    },
    {
      "inputs": [
        {
          "internalType": "uint256[9]",
          "name": "fees",
          "type": "uint256[9]"
        }
      ],
      "name": "setFeeForUpgradeState",
      "outputs": [],
      "stateMutability": "nonpayable",
      "type": "function"
    },
    {
      "inputs": [
        {
          "internalType": "enum DragonBasic.Age",
          "name": "age",
          "type": "uint8"
        },
        {
          "internalType": "uint256",
          "name": "value",
          "type": "uint256"
        }
      ],
      "name": "setLimitStatForAge",
      "outputs": [],
      "stateMutability": "nonpayable",
      "type": "function"
    },
    {
      "inputs": [
        {
          "internalType": "address",
          "name": "_address",
          "type": "address"
        }
      ],
      "name": "setNFTAddress",
      "outputs": [],
      "stateMutability": "nonpayable",
      "type": "function"
    },
    {
      "inputs": [
        {
          "internalType": "uint256",
          "name": "duration",
          "type": "uint256"
        }
      ],
      "name": "setPendingDurationForDragon",
      "outputs": [],
      "stateMutability": "nonpayable",
      "type": "function"
    },
    {
      "inputs": [
        {
          "internalType": "uint256[5]",
          "name": "durations",
          "type": "uint256[5]"
        }
      ],
      "name": "setPendingDurationForSpecial",
      "outputs": [],
      "stateMutability": "nonpayable",
      "type": "function"
    },
    {
      "inputs": [
        {
          "internalType": "uint256[9]",
          "name": "durations",
          "type": "uint256[9]"
        }
      ],
      "name": "setPendingDurationForState",
      "outputs": [],
      "stateMutability": "nonpayable",
      "type": "function"
    },
    {
      "inputs": [
        {
          "internalType": "address",
          "name": "_signer",
          "type": "address"
        }
      ],
      "name": "setSigner",
      "outputs": [],
      "stateMutability": "nonpayable",
      "type": "function"
    },
    {
      "inputs": [
        {
          "internalType": "enum DragonBasic.DragonType",
          "name": "species",
          "type": "uint8"
        },
        {
          "internalType": "enum DragonBasic.RarityType",
          "name": "rarity",
          "type": "uint8"
        },
        {
          "internalType": "enum DragonBasic.Stat",
          "name": "stat",
          "type": "uint8"
        },
        {
          "internalType": "uint256[2]",
          "name": "value",
          "type": "uint256[2]"
        }
      ],
      "name": "setStatRange",
      "outputs": [],
      "stateMutability": "nonpayable",
      "type": "function"
    },
    {
      "inputs": [],
      "name": "signer",
      "outputs": [
        {
          "internalType": "address",
          "name": "",
          "type": "address"
        }
      ],
      "stateMutability": "view",
      "type": "function"
    },
    {
      "inputs": [
        {
          "internalType": "address",
          "name": "newOwner",
          "type": "address"
        }
      ],
      "name": "transferOwnership",
      "outputs": [],
      "stateMutability": "nonpayable",
      "type": "function"
    },
    {
      "inputs": [
        {
          "internalType": "uint256",
          "name": "_tokenId",
          "type": "uint256"
        },
        {
          "internalType": "string",
          "name": "name",
          "type": "string"
        },
        {
          "internalType": "bytes",
          "name": "signature",
          "type": "bytes"
        }
      ],
      "name": "updateDragonName",
      "outputs": [],
      "stateMutability": "nonpayable",
      "type": "function"
    },
    {
      "inputs": [
        {
          "internalType": "uint256",
          "name": "tokenId",
          "type": "uint256"
        },
        {
          "internalType": "bytes",
          "name": "signature",
          "type": "bytes"
        }
      ],
      "name": "upgradeSpecialSkill",
      "outputs": [],
      "stateMutability": "payable",
      "type": "function"
    },
    {
      "inputs": [
        {
          "internalType": "uint256",
          "name": "tokenId",
          "type": "uint256"
        },
        {
          "internalType": "bytes",
          "name": "signature",
          "type": "bytes"
        }
      ],
      "name": "upgradeState",
      "outputs": [],
      "stateMutability": "payable",
      "type": "function"
    },
    {
      "inputs": [
        {
          "internalType": "bytes",
          "name": "signature",
          "type": "bytes"
        },
        {
          "internalType": "address",
          "name": "_signer",
          "type": "address"
        }
      ],
      "name": "verifySigner",
      "outputs": [
        {
          "internalType": "bool",
          "name": "",
          "type": "bool"
        }
      ],
      "stateMutability": "view",
      "type": "function"
    }
  ],
  "transactionHash": "0x2e99dbe9394d452c6791044018c51daf2676e41e01feff589f12969ac723bacf",
  "args": [
    "0x80C96D73e71798bD074899DaA7Ba8F710feA3579",
    "0xf39Fd6e51aad88F6F4ce6aB8827279cffFb92266",
    [
      [
        [
          [
            1,
            4
          ],
          [
            2,
            7
          ],
          [
            1,
            3
          ],
          [
            1,
            5
          ],
          [
            1,
            5
          ],
          [
            1,
            4
          ],
          [
            1,
            2
          ]
        ],
        [
          [
            1,
            4
          ],
          [
            2,
            8
          ],
          [
            1,
            3
          ],
          [
            1,
            6
          ],
          [
            1,
            5
          ],
          [
            1,
            5
          ],
          [
            1,
            3
          ]
        ],
        [
          [
            1,
            5
          ],
          [
            3,
            9
          ],
          [
            1,
            3
          ],
          [
            2,
            7
          ],
          [
            2,
            6
          ],
          [
            2,
            6
          ],
          [
            1,
            4
          ]
        ],
        [
          [
            2,
            6
          ],
          [
            3,
            10
          ],
          [
            1,
            3
          ],
          [
            3,
            8
          ],
          [
            2,
            7
          ],
          [
            2,
            7
          ],
          [
            1,
            5
          ]
        ]
      ],
      [
        [
          [
            1,
            3
          ],
          [
            1,
            3
          ],
          [
            2,
            7
          ],
          [
            1,
            5
          ],
          [
            1,
            3
          ],
          [
            1,
            5
          ],
          [
            1,
            3
          ]
        ],
        [
          [
            1,
            4
          ],
          [
            1,
            4
          ],
          [
            2,
            8
          ],
          [
            1,
            5
          ],
          [
            1,
            3
          ],
          [
            1,
            5
          ],
          [
            1,
            3
          ]
        ],
        [
          [
            1,
            4
          ],
          [
            1,
            4
          ],
          [
            3,
            9
          ],
          [
            2,
            6
          ],
          [
            1,
            4
          ],
          [
            2,
            6
          ],
          [
            1,
            4
          ]
        ],
        [
          [
            2,
            5
          ],
          [
            2,
            5
          ],
          [
            3,
            10
          ],
          [
            2,
            7
          ],
          [
            1,
            4
          ],
          [
            2,
            6
          ],
          [
            2,
            5
          ]
        ]
      ],
      [
        [
          [
            1,
            3
          ],
          [
            1,
            3
          ],
          [
            1,
            3
          ],
          [
            2,
            7
          ],
          [
            2,
            7
          ],
          [
            1,
            3
          ],
          [
            1,
            3
          ]
        ],
        [
          [
            1,
            3
          ],
          [
            1,
            3
          ],
          [
            1,
            3
          ],
          [
            2,
            8
          ],
          [
            2,
            8
          ],
          [
            1,
            3
          ],
          [
            1,
            3
          ]
        ],
        [
          [
            1,
            3
          ],
          [
            1,
            3
          ],
          [
            1,
            3
          ],
          [
            3,
            9
          ],
          [
            2,
            9
          ],
          [
            1,
            4
          ],
          [
            1,
            3
          ]
        ],
        [
          [
            2,
            4
          ],
          [
            2,
            4
          ],
          [
            1,
            3
          ],
          [
            3,
            10
          ],
          [
            3,
            10
          ],
          [
            2,
            4
          ],
          [
            1,
            3
          ]
        ]
      ],
      [
        [
          [
            2,
            6
          ],
          [
            1,
            3
          ],
          [
            1,
            3
          ],
          [
            1,
            4
          ],
          [
            1,
            3
          ],
          [
            1,
            3
          ],
          [
            1,
            6
          ]
        ],
        [
          [
            2,
            7
          ],
          [
            1,
            3
          ],
          [
            1,
            4
          ],
          [
            1,
            5
          ],
          [
            1,
            3
          ],
          [
            1,
            3
          ],
          [
            2,
            7
          ]
        ],
        [
          [
            2,
            8
          ],
          [
            1,
            3
          ],
          [
            2,
            5
          ],
          [
            2,
            6
          ],
          [
            1,
            4
          ],
          [
            1,
            3
          ],
          [
            3,
            8
          ]
        ],
        [
          [
            3,
            9
          ],
          [
            1,
            3
          ],
          [
            2,
            6
          ],
          [
            2,
            7
          ],
          [
            2,
            5
          ],
          [
            1,
            3
          ],
          [
            3,
            9
          ]
        ]
      ],
      [
        [
          [
            1,
            7
          ],
          [
            1,
            3
          ],
          [
            1,
            3
          ],
          [
            1,
            3
          ],
          [
            1,
            3
          ],
          [
            1,
            3
          ],
          [
            1,
            7
          ]
        ],
        [
          [
            2,
            8
          ],
          [
            1,
            3
          ],
          [
            1,
            3
          ],
          [
            1,
            3
          ],
          [
            1,
            3
          ],
          [
            1,
            3
          ],
          [
            2,
            8
          ]
        ],
        [
          [
            3,
            9
          ],
          [
            1,
            3
          ],
          [
            1,
            3
          ],
          [
            1,
            3
          ],
          [
            2,
            4
          ],
          [
            1,
            3
          ],
          [
            3,
            9
          ]
        ],
        [
          [
            3,
            10
          ],
          [
            1,
            3
          ],
          [
            1,
            3
          ],
          [
            1,
            3
          ],
          [
            2,
            5
          ],
          [
            1,
            3
          ],
          [
            3,
            10
          ]
        ]
      ]
    ]
  ],
  "numDeployments": 1,
  "solcInputHash": "b474e0d835221309c977257c7f754341",
  "bytecode": "0x6101a060405262015180608081815260a082905260c082905260e0829052610100829052610120919091526202a300610140526203f480610160526205460061018052620000539061011d906009620002cd565b506040805161012081018252600080825260208201819052918101829052606081018290526080810182905260a0810191909152674563918244f4000060c0820152678ac7230489e8000060e082015267d02ab486cedc0000610100820152620000c39061012690600962000317565b506040805160a081018252620151808082526020820181905291810182905260608101919091526202a3006080820152620001049061012f90600562000353565b506040805160a08101825260008082526020820181905291810191909152678ac7230489e8000060608201526801158e460913d00000608082015262000150906101349060056200038a565b506203f48061013a553480156200016657600080fd5b506040516200401c3803806200401c8339810160408190526200018991620007d7565b62000194336200027d565b600160205260007fa6eef7e35abe7026729641147f7915573c7e97b47efa546f5f6e3230263bcb4981905560037fcc69885fda6bcc1a4ace058b4a62bf5e179ea78fd58a1ccd71c22cc9b688792f81905560057fd9d16d34ffb15ba3a3d852f0d403e2ce1d691fb54de27ac87cd2f993f3ec330f8190559152600a7f7dfe757ecd65cbd7922a9c0161e935dd7fdbcc0e999689c7d31633896b1fc60b5561011b80546001600160a01b038681166001600160a01b03199283161790925561011a80549286169290911691909117905562000273906002908390620003c6565b50505050620008e3565b600080546001600160a01b038381166001600160a01b0319831681178455604051919092169283917f8be0079c531659141344cd1fd0a4f28419497f9722a3daafe3b4186f6b6457e09190a35050565b826009810192821562000305579160200282015b8281111562000305578251829062ffffff16905591602001919060010190620002e1565b506200031392915062000415565b5090565b826009810192821562000305579160200282015b828111156200030557825182906001600160401b03169055916020019190600101906200032b565b826005810192821562000305579160200282018281111562000305578251829062ffffff16905591602001919060010190620002e1565b826005810192821562000305579160200282015b828111156200030557825182906001600160481b03169055916020019190600101906200039e565b6101188301918390821562000407579160200282015b8281111562000407578251620003f690839060046200042c565b5091602001919060380190620003dc565b50620003139291506200047a565b5b8082111562000313576000815560010162000416565b6038830191839082156200046c579160200282015b828111156200046c5782516200045b90839060076200049b565b50916020019190600e019062000441565b5062000313929150620004e9565b80821115620003135760006200049182826200050a565b506038016200047a565b600e83019183908215620004db579160200282015b82811115620004db578251620004ca908390600262000550565b5091602001919060020190620004b0565b506200031392915062000581565b80821115620003135760006200050082826200059d565b50600e01620004e9565b5060006200051982826200059d565b50600e0160006200052b82826200059d565b50600e0160006200053d82826200059d565b506200054e90600e0160006200059d565b565b826002810192821562000305579160200282015b828111156200030557825182559160200191906001019062000564565b8082111562000313576000808255600182015560020162000581565b50620005ae90600e81019062000581565b50565b6000620005c8620005c2846200084b565b6200082c565b9050808285610700860282011115620005e057600080fd5b60005b85811015620006135781620005f9888262000767565b8452506020909201916107009190910190600101620005e3565b5050509392505050565b60006200062e620005c2846200084b565b90508082856101c08602820111156200064657600080fd5b60005b858110156200061357816200065f888262000788565b8452506020909201916101c0919091019060010162000649565b60006200068a620005c2846200084b565b90508082856040860282011115620006a157600080fd5b60005b85811015620006135781620006ba8882620007a9565b84525060209092019160409190910190600101620006a4565b6000620006e4620005c2846200084b565b90508082856020860282011115620006fb57600080fd5b60005b85811015620006135781620007148882620007ca565b8452506020928301929190910190600101620006fe565b80516200073881620008c5565b92915050565b600082601f8301126200075057600080fd5b60056200075f848285620005b1565b949350505050565b600082601f8301126200077957600080fd5b60046200075f8482856200061d565b600082601f8301126200079a57600080fd5b60076200075f84828562000679565b600082601f830112620007bb57600080fd5b60026200075f848285620006d3565b80516200073881620008dc565b60008060006123408486031215620007ee57600080fd5b6000620007fc86866200072b565b93505060206200080f868287016200072b565b925050604062000822868287016200073e565b9150509250925092565b60006200083860405190565b905062000846828262000880565b919050565b60006001600160401b03821115620008675762000867620008af565b5060200290565b60006001600160a01b03821662000738565b601f19601f83011681018181106001600160401b0382111715620008a857620008a8620008af565b6040525050565b634e487b7160e01b600052604160045260246000fd5b620008d0816200086e565b8114620005ae57600080fd5b80620008d0565b61372980620008f36000396000f3fe6080604052600436106101f95760003560e01c80638da5cb5b1161010d578063b9ae46ab116100a0578063d07c63cf1161006f578063d07c63cf146105eb578063d7c1247c14610602578063e4d3b33914610622578063f2fde38b14610642578063fb7a21aa1461066257600080fd5b8063b9ae46ab14610569578063bd60b83f14610596578063c5ee6c68146105ab578063c9bfe036146105cb57600080fd5b80639ed4a4d7116100dc5780639ed4a4d7146104e7578063a0c307bc14610507578063a49062d414610527578063b7892dcb1461054957600080fd5b80638da5cb5b146104765780639021380814610494578063966fd1c7146104b45780639c9af7cb146104c757600080fd5b806352334fbe11610190578063689db9861161015f578063689db986146103e257806369d03738146104025780636c19e78314610422578063715018a6146104425780637ac3c02f1461045757600080fd5b806352334fbe14610325578063561aceae1461038f57806358970be7146103af5780635c10a858146103cf57600080fd5b8063238ac933116101cc578063238ac933146102805780632938ad50146102b757806347da0703146102d85780634fade0841461030557600080fd5b8063047e84e0146101fe578063082e8084146102205780631d2923a1146102405780631dc94a0c14610260575b600080fd5b34801561020a57600080fd5b5061021e610219366004612a00565b610682565b005b34801561022c57600080fd5b5061021e61023b366004612b9c565b6106c7565b34801561024c57600080fd5b5061021e61025b366004612bd8565b6107af565b34801561026c57600080fd5b5061021e61027b366004612a1e565b610ee2565b34801561028c57600080fd5b5061011a546102a1906001600160a01b031681565b6040516102ae9190613213565b60405180910390f35b3480156102c357600080fd5b5061011b546102a1906001600160a01b031681565b3480156102e457600080fd5b506102f86102f3366004612b9c565b610f1a565b6040516102ae9190613451565b34801561031157600080fd5b5061021e610320366004612b9c565b610f32565b34801561033157600080fd5b5061037e610340366004612b9c565b61011c60205260009081526040902080546002820154600383015460048401546005909401546001600160a01b0390931693919260ff909116919085565b6040516102ae959493929190613249565b34801561039b57600080fd5b5061021e6103aa366004612b9c565b611115565b3480156103bb57600080fd5b5061021e6103ca366004612b9c565b61114d565b61021e6103dd366004612c1f565b61117d565b3480156103ee57600080fd5b506102f86103fd366004612b9c565b611459565b34801561040e57600080fd5b5061021e61041d3660046129c4565b61146a565b34801561042e57600080fd5b5061021e61043d3660046129c4565b6114b7565b34801561044e57600080fd5b5061021e611504565b34801561046357600080fd5b5061011a546001600160a01b03166102a1565b34801561048257600080fd5b506000546001600160a01b03166102a1565b3480156104a057600080fd5b5061021e6104af366004612c74565b61153a565b61021e6104c2366004612c1f565b6115db565b3480156104d357600080fd5b5061021e6104e2366004612a1e565b611879565b3480156104f357600080fd5b506102f8610502366004612b9c565b6118b1565b34801561051357600080fd5b5061021e610522366004612c1f565b6118c2565b34801561053357600080fd5b5061053c600a81565b6040516102ae91906134c2565b34801561055557600080fd5b5061021e610564366004612b07565b611a60565b34801561057557600080fd5b50610589610584366004612a5b565b611b9b565b6040516102ae9190613295565b3480156105a257600080fd5b5061053c600181565b3480156105b757600080fd5b5061021e6105c6366004612b9c565b611c4e565b3480156105d757600080fd5b506102f86105e6366004612b9c565b611d36565b3480156105f757600080fd5b506102f861013a5481565b34801561060e57600080fd5b5061021e61061d366004612a00565b611d47565b34801561062e57600080fd5b5061021e61063d366004612acd565b611d7f565b34801561064e57600080fd5b5061021e61065d3660046129c4565b611e23565b34801561066e57600080fd5b5061021e61067d366004612c1f565b611e7f565b6000546001600160a01b031633146106b55760405162461bcd60e51b81526004016106ac906133b1565b60405180910390fd5b6106c361012f826005612391565b5050565b60008181526101396020526040902080546001600160a01b031633146106ff5760405162461bcd60e51b81526004016106ac906133e1565b600281015460ff166107235760405162461bcd60e51b81526004016106ac90613351565b61011b546040516323b872dd60e01b81526001600160a01b03909116906323b872dd9061075890309033908790600401613221565b600060405180830381600087803b15801561077257600080fd5b505af1158015610786573d6000803e3d6000fd5b505082546001600160a01b0319168355505060028101805460ff19169055600060019091015550565b61011b546040516331a9108f60e11b815233916001600160a01b031690636352211e906107e0908690600401613451565b60206040518083038186803b1580156107f857600080fd5b505afa15801561080c573d6000803e3d6000fd5b505050506040513d601f19601f8201168201806040525081019061083091906129e2565b6001600160a01b0316146108565760405162461bcd60e51b81526004016106ac90613301565b61011b5460405163ced3e3f160e01b81526001600160a01b039091169063ced3e3f190610887908590600401613451565b60206040518083038186803b15801561089f57600080fd5b505afa1580156108b3573d6000803e3d6000fd5b505050506040513d601f19601f820116820180604052508101906108d79190612a3d565b6108f35760405162461bcd60e51b81526004016106ac90613371565b600082815261011c60205260409020600381015460ff16156109275760405162461bcd60e51b81526004016106ac906133d1565b61011b5460405163e0bb933b60e01b81526000916001600160a01b03169063e0bb933b90610959908790600401613451565b60006040518083038186803b15801561097157600080fd5b505afa158015610985573d6000803e3d6000fd5b505050506040513d6000823e601f3d908101601f191682016040526109ad9190810190612b68565b9050600080600080600087516001600160401b038111156109de57634e487b7160e01b600052604160045260246000fd5b604051908082528060200260200182016040528015610a07578160200160208202803683370190505b50905060005b8851811015610e0b5761011b5489516000916001600160a01b031690633a04e2f2908d908d9086908110610a5157634e487b7160e01b600052603260045260246000fd5b60200260200101516040518363ffffffff1660e01b8152600401610a7692919061345f565b60206040518083038186803b158015610a8e57600080fd5b505afa158015610aa2573d6000803e3d6000fd5b505050506040513d601f19601f82011682018060405250810190610ac69190612bba565b61011b5460405163071b804560e11b81529192506000916001600160a01b0390911690630e37008a90610afd908f90600401613451565b60206040518083038186803b158015610b1557600080fd5b505afa158015610b29573d6000803e3d6000fd5b505050506040513d601f19601f82011682018060405250810190610b4d9190612aaf565b9050600060028a602001516004811115610b7757634e487b7160e01b600052602160045260246000fd5b60058110610b9557634e487b7160e01b600052603260045260246000fd5b603802018a600001516003811115610bbd57634e487b7160e01b600052602160045260246000fd5b60048110610bdb57634e487b7160e01b600052603260045260246000fd5b600e02018c8581518110610bff57634e487b7160e01b600052603260045260246000fd5b60200260200101516006811115610c2657634e487b7160e01b600052602160045260246000fd5b60078110610c4457634e487b7160e01b600052603260045260246000fd5b604080518082019182905292600292830201919082845b815481526020019060010190808311610c5b575050505050905060016000836003811115610c9957634e487b7160e01b600052602160045260246000fd5b6003811115610cb857634e487b7160e01b600052602160045260246000fd5b81526020019081526020016000205483108015610cd85750602081015183105b15610df5576001985061011d610cee8a85613571565b60098110610d0c57634e487b7160e01b600052603260045260246000fd5b0154610d189089613559565b9750610126610d28600185613571565b60098110610d4657634e487b7160e01b600052603260045260246000fd5b0154610d529088613559565b96508b8481518110610d7457634e487b7160e01b600052603260045260246000fd5b6020026020010151858781518110610d9c57634e487b7160e01b600052603260045260246000fd5b60200260200101906006811115610dc357634e487b7160e01b600052602160045260246000fd5b90816006811115610de457634e487b7160e01b600052602160045260246000fd5b90525085610df18161361e565b9650505b5050508080610e039061361e565b915050610a0d565b5084610e295760405162461bcd60e51b81526004016106ac90613401565b61011b546040516323b872dd60e01b81526001600160a01b03909116906323b872dd90610e5e90339030908e90600401613221565b600060405180830381600087803b158015610e7857600080fd5b505af1158015610e8c573d6000803e3d6000fd5b505088546001600160a01b03191633178955505060038701805460ff191660019081179091554260028901558151610ecb9189019060208401906123cf565b505050600485015560059093019290925550505050565b6000546001600160a01b03163314610f0c5760405162461bcd60e51b81526004016106ac906133b1565b6106c361012682600961248c565b6101348160058110610f2b57600080fd5b0154905081565b61011b546040516331a9108f60e11b815233916001600160a01b031690636352211e90610f63908590600401613451565b60206040518083038186803b158015610f7b57600080fd5b505afa158015610f8f573d6000803e3d6000fd5b505050506040513d601f19601f82011682018060405250810190610fb391906129e2565b6001600160a01b031614610fd95760405162461bcd60e51b81526004016106ac90613301565b61011b5460405163ced3e3f160e01b81526001600160a01b039091169063ced3e3f19061100a908490600401613451565b60206040518083038186803b15801561102257600080fd5b505afa158015611036573d6000803e3d6000fd5b505050506040513d601f19601f8201168201806040525081019061105a9190612a3d565b156110775760405162461bcd60e51b81526004016106ac90613431565b61011b546040516323b872dd60e01b81526001600160a01b03909116906323b872dd906110ac90339030908690600401613221565b600060405180830381600087803b1580156110c657600080fd5b505af11580156110da573d6000803e3d6000fd5b5050506000918252506101396020526040902080546001600160a01b0319163317815560028101805460ff1916600190811790915542910155565b600081815261013b6020526040902080546001600160a01b031633146106ff5760405162461bcd60e51b81526004016106ac906133e1565b6000546001600160a01b031633146111775760405162461bcd60e51b81526004016106ac906133b1565b61013a55565b61011a5461119790839083906001600160a01b0316611b9b565b6111b35760405162461bcd60e51b81526004016106ac90613311565b61011b5460405163ca8f8ff360e01b81526001600160a01b039091169063ca8f8ff3906111e4908690600401613451565b60206040518083038186803b1580156111fc57600080fd5b505afa158015611210573d6000803e3d6000fd5b505050506040513d601f19601f820116820180604052508101906112349190612a3d565b6112505760405162461bcd60e51b81526004016106ac90613381565b600083815261011c6020526040902080546001600160a01b031633146112885760405162461bcd60e51b81526004016106ac906133e1565b600381015460ff166112ac5760405162461bcd60e51b81526004016106ac90613411565b6112b98160040154611fd9565b806005015481600201546112cd9190613559565b4210156112ec5760405162461bcd60e51b81526004016106ac90613331565b61011b546040516323b872dd60e01b81526001600160a01b03909116906323b872dd9061132190309033908990600401613221565b600060405180830381600087803b15801561133b57600080fd5b505af115801561134f573d6000803e3d6000fd5b5050505060005b60018201548110156114235761011b546001830180546001600160a01b0390921691639585dae19188918590811061139e57634e487b7160e01b600052603260045260246000fd5b90600052602060002090602091828204019190069054906101000a900460ff1660016040518463ffffffff1660e01b81526004016113de9392919061347a565b600060405180830381600087803b1580156113f857600080fd5b505af115801561140c573d6000803e3d6000fd5b50505050808061141b9061361e565b915050611356565b5060038101805460ff1916905560006002820181905581546001600160a01b031916825560058201819055600490910155505050565b61012f8160058110610f2b57600080fd5b6000546001600160a01b031633146114945760405162461bcd60e51b81526004016106ac906133b1565b61011b80546001600160a01b0319166001600160a01b0392909216919091179055565b6000546001600160a01b031633146114e15760405162461bcd60e51b81526004016106ac906133b1565b61011a80546001600160a01b0319166001600160a01b0392909216919091179055565b6000546001600160a01b0316331461152e5760405162461bcd60e51b81526004016106ac906133b1565b6115386000612037565b565b61011a5461155490839083906001600160a01b0316611b9b565b6115705760405162461bcd60e51b81526004016106ac90613341565b61011b546040516314f9dbcb60e21b81526001600160a01b03909116906353e76f2c906115a390879087906004016134a2565b600060405180830381600087803b1580156115bd57600080fd5b505af11580156115d1573d6000803e3d6000fd5b5050505050505050565b61011a546115f590839083906001600160a01b0316611b9b565b6116115760405162461bcd60e51b81526004016106ac90613311565b600083815261013b6020526040902080546001600160a01b031633146116495760405162461bcd60e51b81526004016106ac906133e1565b600281015460ff1661166d5760405162461bcd60e51b81526004016106ac90613441565b61011b5460405163e0bb933b60e01b81526000916001600160a01b03169063e0bb933b9061169f908890600401613451565b60006040518083038186803b1580156116b757600080fd5b505afa1580156116cb573d6000803e3d6000fd5b505050506040513d6000823e601f3d908101601f191682016040526116f39190810190612b68565b610140810151909150600061012f826005811061172057634e487b7160e01b600052603260045260246000fd5b015490506000610134836005811061174857634e487b7160e01b600052603260045260246000fd5b0154905061175581611fd9565b8185600101546117659190613559565b4210156117845760405162461bcd60e51b81526004016106ac90613331565b60028501805460ff191690556000600186015584546001600160a01b031916855561011b54604051633af36fd760e01b81526001600160a01b0390911690633af36fd7906117d6908b90600401613451565b600060405180830381600087803b1580156117f057600080fd5b505af1158015611804573d6000803e3d6000fd5b505061011b546040516323b872dd60e01b81526001600160a01b0390911692506323b872dd915061183d90309033908d90600401613221565b600060405180830381600087803b15801561185757600080fd5b505af115801561186b573d6000803e3d6000fd5b505050505050505050505050565b6000546001600160a01b031633146118a35760405162461bcd60e51b81526004016106ac906133b1565b6106c361011d82600961248c565b6101268160098110610f2b57600080fd5b61011a546118dc90839083906001600160a01b0316611b9b565b6118f85760405162461bcd60e51b81526004016106ac90613311565b60008381526101396020526040902080546001600160a01b031633146119305760405162461bcd60e51b81526004016106ac906133e1565b600281015460ff166119545760405162461bcd60e51b81526004016106ac90613441565b61013a5481600101546119679190613559565b4210156119865760405162461bcd60e51b81526004016106ac90613331565b61011b546040516323b872dd60e01b81526001600160a01b03909116906323b872dd906119bb90309033908990600401613221565b600060405180830381600087803b1580156119d557600080fd5b505af11580156119e9573d6000803e3d6000fd5b505061011b546040516308e1555360e21b81526001600160a01b039091169250632385554c9150611a1e908790600401613451565b600060405180830381600087803b158015611a3857600080fd5b505af1158015611a4c573d6000803e3d6000fd5b50505050600201805460ff19169055505050565b6000546001600160a01b03163314611a8a5760405162461bcd60e51b81526004016106ac906133b1565b6020810151600a10801590611aa157508051600111155b611abd5760405162461bcd60e51b81526004016106ac906133c1565b806002856004811115611ae057634e487b7160e01b600052602160045260246000fd5b60058110611afe57634e487b7160e01b600052603260045260246000fd5b60380201846003811115611b2257634e487b7160e01b600052602160045260246000fd5b60048110611b4057634e487b7160e01b600052603260045260246000fd5b600e0201836006811115611b6457634e487b7160e01b600052602160045260246000fd5b60078110611b8257634e487b7160e01b600052603260045260246000fd5b60020201906002611b949291906124b9565b5050505050565b60008033604051602001611baf91906131c3565b6040516020818303038152906040528051906020012090506000611bd282612087565b90506000611c168288888080601f0160208091040260200160405190810160405280939291908181526020018383808284376000920191909152506120b792505050565b90506001600160a01b03811615801590611c415750846001600160a01b0316816001600160a01b0316145b93505050505b9392505050565b600081815261011c6020526040902080546001600160a01b03163314611c865760405162461bcd60e51b81526004016106ac906133e1565b600381015460ff16611caa5760405162461bcd60e51b81526004016106ac90613351565b61011b546040516323b872dd60e01b81526001600160a01b03909116906323b872dd90611cdf90309033908790600401613221565b600060405180830381600087803b158015611cf957600080fd5b505af1158015611d0d573d6000803e3d6000fd5b505082546001600160a01b0319168355505060038101805460ff19169055600060029091015550565b61011d8160098110610f2b57600080fd5b6000546001600160a01b03163314611d715760405162461bcd60e51b81526004016106ac906133b1565b6106c3610134826005612391565b6000546001600160a01b03163314611da95760405162461bcd60e51b81526004016106ac906133b1565b600a811115611dca5760405162461bcd60e51b81526004016106ac906133c1565b8060016000846003811115611def57634e487b7160e01b600052602160045260246000fd5b6003811115611e0e57634e487b7160e01b600052602160045260246000fd5b81526020810191909152604001600020555050565b6000546001600160a01b03163314611e4d5760405162461bcd60e51b81526004016106ac906133b1565b6001600160a01b038116611e735760405162461bcd60e51b81526004016106ac90613321565b611e7c81612037565b50565b611e8a828233611b9b565b611ea65760405162461bcd60e51b81526004016106ac90613341565b61011b54604051631fe29ae960e11b81526001600160a01b0390911690633fc535d290611ed7908690600401613451565b60206040518083038186803b158015611eef57600080fd5b505afa158015611f03573d6000803e3d6000fd5b505050506040513d601f19601f82011682018060405250810190611f279190612a3d565b15611f445760405162461bcd60e51b81526004016106ac906133a1565b600083815261013b60205260409020600281015460ff1615611f785760405162461bcd60e51b81526004016106ac906133f1565b60028101805460ff1916600190811790915581546001600160a01b031916339081178355429183019190915561011b546040516323b872dd60e01b81526001600160a01b0391909116916323b872dd916115a3919030908990600401613221565b80341015611ff95760405162461bcd60e51b81526004016106ac90613421565b80341115611e7c57336108fc61200f8334613571565b6040518115909202916000818181858888f193505050501580156106c3573d6000803e3d6000fd5b600080546001600160a01b038381166001600160a01b0319831681178455604051919092169283917f8be0079c531659141344cd1fd0a4f28419497f9722a3daafe3b4186f6b6457e09190a35050565b60008160405160200161209a91906131d8565b604051602081830303815290604052805190602001209050919050565b60008060006120c685856120dd565b915091506120d38161214d565b5090505b92915050565b6000808251604114156121145760208301516040840151606085015160001a61210887828585612278565b94509450505050612146565b82516040141561213e5760208301516040840151612133868383612358565b935093505050612146565b506000905060025b9250929050565b600081600481111561216f57634e487b7160e01b600052602160045260246000fd5b14156121785750565b600181600481111561219a57634e487b7160e01b600052602160045260246000fd5b14156121b85760405162461bcd60e51b81526004016106ac906132e1565b60028160048111156121da57634e487b7160e01b600052602160045260246000fd5b14156121f85760405162461bcd60e51b81526004016106ac906132f1565b600381600481111561221a57634e487b7160e01b600052602160045260246000fd5b14156122385760405162461bcd60e51b81526004016106ac90613361565b600481600481111561225a57634e487b7160e01b600052602160045260246000fd5b1415611e7c5760405162461bcd60e51b81526004016106ac90613391565b6000807f7fffffffffffffffffffffffffffffff5d576e7357a4501ddfe92f46681b20a08311156122af575060009050600361234f565b8460ff16601b141580156122c757508460ff16601c14155b156122d8575060009050600461234f565b6000600187878787604051600081526020016040526040516122fd94939291906132a3565b6020604051602081039080840390855afa15801561231f573d6000803e3d6000fd5b5050604051601f1901519150506001600160a01b0381166123485760006001925092505061234f565b9150600090505b94509492505050565b6000806001600160ff1b0383168161237560ff86901c601b613559565b905061238387828885612278565b935093505050935093915050565b82600581019282156123bf579160200282015b828111156123bf5782518255916020019190600101906123a4565b506123cb9291506124e6565b5090565b82805482825590600052602060002090601f016020900481019282156123bf5791602002820160005b8382111561245257835183826101000a81548160ff0219169083600681111561243157634e487b7160e01b600052602160045260246000fd5b021790555092602001926001016020816000010492830192600103026123f8565b801561247f5782816101000a81549060ff0219169055600101602081600001049283019260010302612452565b50506123cb9291506124e6565b82600981019282156123bf57916020028201828111156123bf5782518255916020019190600101906123a4565b82600281019282156123bf57916020028201828111156123bf5782518255916020019190600101906123a4565b5b808211156123cb57600081556001016124e7565b600061250e612509846134ec565b6134d0565b9050808382526020820190508285602086028201111561252d57600080fd5b60005b8581101561255957816125438882612847565b8452506020928301929190910190600101612530565b5050509392505050565b60006125716125098461350f565b9050808285602086028201111561258757600080fd5b60005b85811015612559578161259d88826129ae565b845250602092830192919091019060010161258a565b60006125c16125098461350f565b905080828560208602820111156125d757600080fd5b60005b8581101561255957816125ed88826129ae565b84525060209283019291909101906001016125da565b60006126116125098461350f565b9050808285602086028201111561262757600080fd5b60005b85811015612559578161263d88826129b9565b845250602092830192919091019060010161262a565b60006126616125098461350f565b9050808285602086028201111561267757600080fd5b60005b85811015612559578161268d88826129ae565b845250602092830192919091019060010161267a565b60006126b16125098461352f565b9050828152602081018484840111156126c957600080fd5b6126d48482856135b6565b509392505050565b60006126ea6125098461352f565b90508281526020810184848401111561270257600080fd5b6126d48482856135c2565b80356120d78161369d565b80516120d78161369d565b600082601f83011261273457600080fd5b81356127448482602086016124fb565b949350505050565b600082601f83011261275d57600080fd5b6002612744848285612563565b600082601f83011261277b57600080fd5b60056127448482856125b3565b600082601f83011261279957600080fd5b6007612744848285612603565b600082601f8301126127b757600080fd5b6009612744848285612653565b80516120d7816136b1565b60008083601f8401126127e157600080fd5b5081356001600160401b038111156127f857600080fd5b60208301915083600182028301111561214657600080fd5b80356120d7816136b9565b80516120d7816136b9565b80356120d7816136c6565b80516120d7816136c6565b80516120d7816136d3565b80356120d7816136e0565b600082601f83011261286357600080fd5b81356127448482602086016126a3565b600082601f83011261288457600080fd5b81516127448482602086016126dc565b600061022082840312156128a757600080fd5b6128b26101606134d0565b905060006128c0848461281b565b82525060206128d184848301612831565b60208301525060406128e58482850161283c565b60408301525060606128f9848285016129b9565b606083015250608061290d848285016127c4565b60808301525060a0612921848285016129b9565b60a08301525060c0612935848285016129b9565b60c08301525060e0612949848285016129b9565b60e0830152506101008201516001600160401b0381111561296957600080fd5b61297584828501612873565b6101008301525061012061298b84828501612788565b610120830152506102006129a1848285016129b9565b6101408301525092915050565b80356120d7816136ed565b80516120d7816136ed565b6000602082840312156129d657600080fd5b6000612744848461270d565b6000602082840312156129f457600080fd5b60006127448484612718565b600060a08284031215612a1257600080fd5b6000612744848461276a565b60006101208284031215612a3157600080fd5b600061274484846127a6565b600060208284031215612a4f57600080fd5b600061274484846127c4565b600080600060408486031215612a7057600080fd5b83356001600160401b03811115612a8657600080fd5b612a92868287016127cf565b93509350506020612aa58682870161270d565b9150509250925092565b600060208284031215612ac157600080fd5b6000612744848461281b565b60008060408385031215612ae057600080fd5b6000612aec8585612810565b9250506020612afd858286016129ae565b9150509250929050565b60008060008060a08587031215612b1d57600080fd5b6000612b298787612826565b9450506020612b3a87828801612810565b9350506040612b4b87828801612847565b9250506060612b5c8782880161274c565b91505092959194509250565b600060208284031215612b7a57600080fd5b81516001600160401b03811115612b9057600080fd5b61274484828501612894565b600060208284031215612bae57600080fd5b600061274484846129ae565b600060208284031215612bcc57600080fd5b600061274484846129b9565b60008060408385031215612beb57600080fd5b6000612bf785856129ae565b92505060208301356001600160401b03811115612c1357600080fd5b612afd85828601612723565b600080600060408486031215612c3457600080fd5b6000612c4086866129ae565b93505060208401356001600160401b03811115612c5c57600080fd5b612c68868287016127cf565b92509250509250925092565b60008060008060608587031215612c8a57600080fd5b6000612c9687876129ae565b94505060208501356001600160401b03811115612cb257600080fd5b612cbe87828801612852565b93505060408501356001600160401b03811115612cda57600080fd5b612ce6878288016127cf565b95989497509550505050565b612cfb81613588565b82525050565b612cfb612d0d82613588565b613639565b801515612cfb565b80612cfb565b612cfb816135a3565b612cfb816135ae565b6000612d3c825190565b808452602084019350612d538185602086016135c2565b601f01601f19169290920192915050565b601881526000602082017f45434453413a20696e76616c6964207369676e61747572650000000000000000815291505b5060200190565b601f81526000602082017f45434453413a20696e76616c6964207369676e6174757265206c656e6774680081529150612d94565b60208082527f596f7520617265206e6f74206f776e6572206f66207468697320746f6b656e2e91019081526000612d94565b601281526000602082017124b73b30b634b21029b4b3b730ba3ab9329760711b81529150612d94565b602681526000602082017f4f776e61626c653a206e6577206f776e657220697320746865207a65726f206181526564647265737360d01b602082015291505b5060400190565b60128152600060208201712737ba1030bb30b4b630b13632903737bb9760711b81529150612d94565b6011815260006020820170496e76616c6964207369676e617475726560781b81529150612d94565b60138152600060208201722cb7ba903234b23713ba103932b8bab2b9ba1760691b81529150612d94565b602281526000602082017f45434453413a20696e76616c6964207369676e6174757265202773272076616c815261756560f01b60208201529150612e69565b601f81526000602082017f447261676f6e2073686f756c6420626520686174636865642066697273742e0081529150612d94565b60118152600060208201702737ba1032bc34b9ba39902a37b5b2b71760791b81529150612d94565b602281526000602082017f45434453413a20696e76616c6964207369676e6174757265202776272076616c815261756560f01b60208201529150612e69565b601c81526000602082017f416c726561647920757067726164656420746f207370656369616c2e0000000081529150612d94565b60208082527f4f776e61626c653a2063616c6c6572206973206e6f7420746865206f776e657291019081526000612d94565b600d81526000602082016c496e76616c69642076616c756560981b81529150612d94565b601281526000602082017120b63932b0b23c903932b8bab2b9ba32b21760711b81529150612d94565b60168152600060208201752cb7ba9030b932903737ba1027232a1037bbb732b91760511b81529150612d94565b600f81526000602082016e416c72656164792070656e64696e6760881b81529150612d94565b601a81526000602082017f4e6f20737461742063616e2062652075706772616461626c652e00000000000081529150612d94565b601a81526000602082017f596f75206e65656420746f20726571756573742066697273742e00000000000081529150612d94565b60168152600060208201752732b2b2103a379039b2b7321036b7b9329022aa241760511b81529150612d94565b600f81526000602082016e20b63932b0b23c90323930b3b7b71760891b81529150612d94565b601881526000602082017f53686f756c642062652070656e64696e672066697273742e000000000000000081529150612d94565b60ff8116612cfb565b60006131cf8284612d01565b50601401919050565b7f19457468657265756d205369676e6564204d6573736167653a0a3332000000008152601c01600061320a8284612d1a565b50602001919050565b602081016120d78284612cf2565b6060810161322f8286612cf2565b61323c6020830185612cf2565b6127446040830184612d1a565b60a081016132578288612cf2565b6132646020830187612d1a565b6132716040830186612d12565b61327e6060830185612d1a565b61328b6080830184612d1a565b9695505050505050565b602081016120d78284612d12565b608081016132b18287612d1a565b6132be60208301866131ba565b6132cb6040830185612d1a565b6132d86060830184612d1a565b95945050505050565b602080825281016120d781612d64565b602080825281016120d781612d9b565b602080825281016120d781612dcf565b602080825281016120d781612e01565b602080825281016120d781612e2a565b602080825281016120d781612e70565b602080825281016120d781612e99565b602080825281016120d781612ec1565b602080825281016120d781612eeb565b602080825281016120d781612f2a565b602080825281016120d781612f5e565b602080825281016120d781612f86565b602080825281016120d781612fc5565b602080825281016120d781612ff9565b602080825281016120d78161302b565b602080825281016120d78161304f565b602080825281016120d781613078565b602080825281016120d7816130a5565b602080825281016120d7816130cb565b602080825281016120d7816130ff565b602080825281016120d781613133565b602080825281016120d781613160565b602080825281016120d781613186565b602081016120d78284612d1a565b6040810161346d8285612d1a565b611c476020830184612d20565b606081016134888286612d1a565b6134956020830185612d20565b6127446040830184612d29565b604081016134b08285612d1a565b81810360208301526127448184612d32565b602081016120d782846131ba565b60006134db60405190565b90506134e782826135f2565b919050565b60006001600160401b0382111561350557613505613677565b5060209081020190565b60006001600160401b0382111561352857613528613677565b5060200290565b60006001600160401b0382111561354857613548613677565b601f19601f83011660200192915050565b6000821982111561356c5761356c61364b565b500190565b6000828210156135835761358361364b565b500390565b60006001600160a01b0382166120d7565b806134e78161368d565b60006120d782613599565b6000816120d7565b82818337506000910152565b60005b838110156135dd5781810151838201526020016135c5565b838111156135ec576000848401525b50505050565b601f19601f83011681018181106001600160401b038211171561361757613617613677565b6040525050565b60006000198214156136325761363261364b565b5060010190565b60006120d78260006120d78260601b90565b634e487b7160e01b600052601160045260246000fd5b634e487b7160e01b600052602160045260246000fd5b634e487b7160e01b600052604160045260246000fd5b60078110611e7c57611e7c613661565b6136a681613588565b8114611e7c57600080fd5b8015156136a6565b60048110611e7c57600080fd5b60058110611e7c57600080fd5b60028110611e7c57600080fd5b60078110611e7c57600080fd5b806136a656fea2646970667358221220bd48ed1472dc9849ccf2543194fdf2681cf35905c1ce8e47b14af056859524dd64736f6c63430008040033",
  "devdoc": {
    "kind": "dev",
    "methods": {
      "owner()": {
        "details": "Returns the address of the current owner."
      },
      "renounceOwnership()": {
        "details": "Leaves the contract without owner. It will not be possible to call `onlyOwner` functions anymore. Can only be called by the current owner. NOTE: Renouncing ownership will leave the contract without an owner, thereby removing any functionality that is only available to the owner."
      },
      "transferOwnership(address)": {
        "details": "Transfers ownership of the contract to a new account (`newOwner`). Can only be called by the current owner."
      }
    },
    "version": 1
  },
  "userdoc": {
    "kind": "user",
    "methods": {},
    "version": 1
  },
  "storageLayout": {
    "storage": [
      {
        "astId": 7,
        "contract": "contracts/DragonUpdateManager.sol:DragonUpdateManager",
        "label": "_owner",
        "offset": 0,
        "slot": "0",
        "type": "t_address"
      },
      {
        "astId": 8500,
        "contract": "contracts/DragonUpdateManager.sol:DragonUpdateManager",
        "label": "ageLimitInfo",
        "offset": 0,
        "slot": "1",
        "type": "t_mapping(t_enum(Age)8448,t_uint256)"
      },
      {
        "astId": 8510,
        "contract": "contracts/DragonUpdateManager.sol:DragonUpdateManager",
        "label": "stateRanges",
        "offset": 0,
        "slot": "2",
        "type": "t_array(t_array(t_array(t_array(t_uint256)2_storage)7_storage)4_storage)5_storage"
      },
      {
        "astId": 7034,
        "contract": "contracts/DragonUpdateManager.sol:DragonUpdateManager",
        "label": "signer",
        "offset": 0,
        "slot": "282",
        "type": "t_address"
      },
      {
        "astId": 7036,
        "contract": "contracts/DragonUpdateManager.sol:DragonUpdateManager",
        "label": "dragonNFTAddress",
        "offset": 0,
        "slot": "283",
        "type": "t_address"
      },
      {
        "astId": 7041,
        "contract": "contracts/DragonUpdateManager.sol:DragonUpdateManager",
        "label": "pendingToUpgradeInfo",
        "offset": 0,
        "slot": "284",
        "type": "t_mapping(t_uint256,t_struct(PendingToUpgradeState)7032_storage)"
      },
      {
        "astId": 7055,
        "contract": "contracts/DragonUpdateManager.sol:DragonUpdateManager",
        "label": "pendingDurationForState",
        "offset": 0,
        "slot": "285",
        "type": "t_array(t_uint256)9_storage"
      },
      {
        "astId": 7069,
        "contract": "contracts/DragonUpdateManager.sol:DragonUpdateManager",
        "label": "feeForUpgradeState",
        "offset": 0,
        "slot": "294",
        "type": "t_array(t_uint256)9_storage"
      },
      {
        "astId": 7079,
        "contract": "contracts/DragonUpdateManager.sol:DragonUpdateManager",
        "label": "pendingDurationForSpecialSkill",
        "offset": 0,
        "slot": "303",
        "type": "t_array(t_uint256)5_storage"
      },
      {
        "astId": 7089,
        "contract": "contracts/DragonUpdateManager.sol:DragonUpdateManager",
        "label": "feeForUpgradeSpecial",
        "offset": 0,
        "slot": "308",
        "type": "t_array(t_uint256)5_storage"
      },
      {
        "astId": 7094,
        "contract": "contracts/DragonUpdateManager.sol:DragonUpdateManager",
        "label": "pendingToDragonInfo",
        "offset": 0,
        "slot": "313",
        "type": "t_mapping(t_uint256,t_struct(PendingToDragon)7010_storage)"
      },
      {
        "astId": 7097,
        "contract": "contracts/DragonUpdateManager.sol:DragonUpdateManager",
        "label": "durationForHatch",
        "offset": 0,
        "slot": "314",
        "type": "t_uint256"
      },
      {
        "astId": 7108,
        "contract": "contracts/DragonUpdateManager.sol:DragonUpdateManager",
        "label": "pendingToUpgradeSpecial",
        "offset": 0,
        "slot": "315",
        "type": "t_mapping(t_uint256,t_struct(PendingToUpgradeSpecial)7017_storage)"
      }
    ],
    "types": {
      "t_address": {
        "encoding": "inplace",
        "label": "address",
        "numberOfBytes": "20"
      },
      "t_array(t_array(t_array(t_array(t_uint256)2_storage)7_storage)4_storage)5_storage": {
        "base": "t_array(t_array(t_array(t_uint256)2_storage)7_storage)4_storage",
        "encoding": "inplace",
        "label": "uint256[2][7][4][5]",
        "numberOfBytes": "8960"
      },
      "t_array(t_array(t_array(t_uint256)2_storage)7_storage)4_storage": {
        "base": "t_array(t_array(t_uint256)2_storage)7_storage",
        "encoding": "inplace",
        "label": "uint256[2][7][4]",
        "numberOfBytes": "1792"
      },
      "t_array(t_array(t_uint256)2_storage)7_storage": {
        "base": "t_array(t_uint256)2_storage",
        "encoding": "inplace",
        "label": "uint256[2][7]",
        "numberOfBytes": "448"
      },
      "t_array(t_enum(Stat)8456)dyn_storage": {
        "base": "t_enum(Stat)8456",
        "encoding": "dynamic_array",
        "label": "enum DragonBasic.Stat[]",
        "numberOfBytes": "32"
      },
      "t_array(t_uint256)2_storage": {
        "base": "t_uint256",
        "encoding": "inplace",
        "label": "uint256[2]",
        "numberOfBytes": "64"
      },
      "t_array(t_uint256)5_storage": {
        "base": "t_uint256",
        "encoding": "inplace",
        "label": "uint256[5]",
        "numberOfBytes": "160"
      },
      "t_array(t_uint256)9_storage": {
        "base": "t_uint256",
        "encoding": "inplace",
        "label": "uint256[9]",
        "numberOfBytes": "288"
      },
      "t_bool": {
        "encoding": "inplace",
        "label": "bool",
        "numberOfBytes": "1"
      },
      "t_enum(Age)8448": {
        "encoding": "inplace",
        "label": "enum DragonBasic.Age",
        "numberOfBytes": "1"
      },
      "t_enum(Stat)8456": {
        "encoding": "inplace",
        "label": "enum DragonBasic.Stat",
        "numberOfBytes": "1"
      },
      "t_mapping(t_enum(Age)8448,t_uint256)": {
        "encoding": "mapping",
        "key": "t_enum(Age)8448",
        "label": "mapping(enum DragonBasic.Age => uint256)",
        "numberOfBytes": "32",
        "value": "t_uint256"
      },
      "t_mapping(t_uint256,t_struct(PendingToDragon)7010_storage)": {
        "encoding": "mapping",
        "key": "t_uint256",
        "label": "mapping(uint256 => struct DragonUpdateManager.PendingToDragon)",
        "numberOfBytes": "32",
        "value": "t_struct(PendingToDragon)7010_storage"
      },
      "t_mapping(t_uint256,t_struct(PendingToUpgradeSpecial)7017_storage)": {
        "encoding": "mapping",
        "key": "t_uint256",
        "label": "mapping(uint256 => struct DragonUpdateManager.PendingToUpgradeSpecial)",
        "numberOfBytes": "32",
        "value": "t_struct(PendingToUpgradeSpecial)7017_storage"
      },
      "t_mapping(t_uint256,t_struct(PendingToUpgradeState)7032_storage)": {
        "encoding": "mapping",
        "key": "t_uint256",
        "label": "mapping(uint256 => struct DragonUpdateManager.PendingToUpgradeState)",
        "numberOfBytes": "32",
        "value": "t_struct(PendingToUpgradeState)7032_storage"
      },
      "t_struct(PendingToDragon)7010_storage": {
        "encoding": "inplace",
        "label": "struct DragonUpdateManager.PendingToDragon",
        "members": [
          {
            "astId": 7005,
            "contract": "contracts/DragonUpdateManager.sol:DragonUpdateManager",
            "label": "owner",
            "offset": 0,
            "slot": "0",
            "type": "t_address"
          },
          {
            "astId": 7007,
            "contract": "contracts/DragonUpdateManager.sol:DragonUpdateManager",
            "label": "startAt",
            "offset": 0,
            "slot": "1",
            "type": "t_uint256"
          },
          {
            "astId": 7009,
            "contract": "contracts/DragonUpdateManager.sol:DragonUpdateManager",
            "label": "pending",
            "offset": 0,
            "slot": "2",
            "type": "t_bool"
          }
        ],
        "numberOfBytes": "96"
      },
      "t_struct(PendingToUpgradeSpecial)7017_storage": {
        "encoding": "inplace",
        "label": "struct DragonUpdateManager.PendingToUpgradeSpecial",
        "members": [
          {
            "astId": 7012,
            "contract": "contracts/DragonUpdateManager.sol:DragonUpdateManager",
            "label": "owner",
            "offset": 0,
            "slot": "0",
            "type": "t_address"
          },
          {
            "astId": 7014,
            "contract": "contracts/DragonUpdateManager.sol:DragonUpdateManager",
            "label": "startAt",
            "offset": 0,
            "slot": "1",
            "type": "t_uint256"
          },
          {
            "astId": 7016,
            "contract": "contracts/DragonUpdateManager.sol:DragonUpdateManager",
            "label": "pending",
            "offset": 0,
            "slot": "2",
            "type": "t_bool"
          }
        ],
        "numberOfBytes": "96"
      },
      "t_struct(PendingToUpgradeState)7032_storage": {
        "encoding": "inplace",
        "label": "struct DragonUpdateManager.PendingToUpgradeState",
        "members": [
          {
            "astId": 7019,
            "contract": "contracts/DragonUpdateManager.sol:DragonUpdateManager",
            "label": "owner",
            "offset": 0,
            "slot": "0",
            "type": "t_address"
          },
          {
            "astId": 7023,
            "contract": "contracts/DragonUpdateManager.sol:DragonUpdateManager",
            "label": "stats",
            "offset": 0,
            "slot": "1",
            "type": "t_array(t_enum(Stat)8456)dyn_storage"
          },
          {
            "astId": 7025,
            "contract": "contracts/DragonUpdateManager.sol:DragonUpdateManager",
            "label": "startAt",
            "offset": 0,
            "slot": "2",
            "type": "t_uint256"
          },
          {
            "astId": 7027,
            "contract": "contracts/DragonUpdateManager.sol:DragonUpdateManager",
            "label": "pending",
            "offset": 0,
            "slot": "3",
            "type": "t_bool"
          },
          {
            "astId": 7029,
            "contract": "contracts/DragonUpdateManager.sol:DragonUpdateManager",
            "label": "fee",
            "offset": 0,
            "slot": "4",
            "type": "t_uint256"
          },
          {
            "astId": 7031,
            "contract": "contracts/DragonUpdateManager.sol:DragonUpdateManager",
            "label": "duration",
            "offset": 0,
            "slot": "5",
            "type": "t_uint256"
          }
        ],
        "numberOfBytes": "192"
      },
      "t_uint256": {
        "encoding": "inplace",
        "label": "uint256",
        "numberOfBytes": "32"
      }
    }
  }
}