{
  "address": "0x35413A723b96154422a40589CadD871e5a9a5a16",
  "abi": [
    {
      "inputs": [
        {
          "internalType": "address",
          "name": "_avatarNFTAddress",
          "type": "address"
        },
        {
          "internalType": "address",
          "name": "_signer",
          "type": "address"
        }
      ],
      "stateMutability": "nonpayable",
      "type": "constructor"
    },
    {
      "anonymous": false,
      "inputs": [
        {
          "indexed": true,
          "internalType": "address",
          "name": "previousOwner",
          "type": "address"
        },
        {
          "indexed": true,
          "internalType": "address",
          "name": "newOwner",
          "type": "address"
        }
      ],
      "name": "OwnershipTransferred",
      "type": "event"
    },
    {
      "inputs": [],
      "name": "avatarAssetNFTAddress",
      "outputs": [
        {
          "internalType": "address",
          "name": "",
          "type": "address"
        }
      ],
      "stateMutability": "view",
      "type": "function"
    },
    {
      "inputs": [],
      "name": "avatarNFTAddress",
      "outputs": [
        {
          "internalType": "address",
          "name": "",
          "type": "address"
        }
      ],
      "stateMutability": "view",
      "type": "function"
    },
    {
      "inputs": [
        {
          "internalType": "uint256",
          "name": "tokenId",
          "type": "uint256"
        }
      ],
      "name": "cancelToKeeper",
      "outputs": [],
      "stateMutability": "nonpayable",
      "type": "function"
    },
    {
      "inputs": [
        {
          "internalType": "uint256",
          "name": "tokenId",
          "type": "uint256"
        }
      ],
      "name": "cancelUpgradeState",
      "outputs": [],
      "stateMutability": "nonpayable",
      "type": "function"
    },
    {
      "inputs": [
        {
          "internalType": "uint256",
          "name": "",
          "type": "uint256"
        }
      ],
      "name": "feeForUpgradeState",
      "outputs": [
        {
          "internalType": "uint256",
          "name": "",
          "type": "uint256"
        }
      ],
      "stateMutability": "view",
      "type": "function"
    },
    {
      "inputs": [],
      "name": "getSigner",
      "outputs": [
        {
          "internalType": "address",
          "name": "",
          "type": "address"
        }
      ],
      "stateMutability": "view",
      "type": "function"
    },
    {
      "inputs": [],
      "name": "owner",
      "outputs": [
        {
          "internalType": "address",
          "name": "",
          "type": "address"
        }
      ],
      "stateMutability": "view",
      "type": "function"
    },
    {
      "inputs": [
        {
          "internalType": "uint256",
          "name": "",
          "type": "uint256"
        }
      ],
      "name": "pendingDurationForState",
      "outputs": [
        {
          "internalType": "uint256",
          "name": "",
          "type": "uint256"
        }
      ],
      "stateMutability": "view",
      "type": "function"
    },
    {
      "inputs": [],
      "name": "pendingToKeeperLockDuration",
      "outputs": [
        {
          "internalType": "uint256",
          "name": "",
          "type": "uint256"
        }
      ],
      "stateMutability": "view",
      "type": "function"
    },
    {
      "inputs": [
        {
          "internalType": "uint256",
          "name": "",
          "type": "uint256"
        }
      ],
      "name": "pendingToUpgradeInfo",
      "outputs": [
        {
          "internalType": "address",
          "name": "owner",
          "type": "address"
        },
        {
          "internalType": "uint256",
          "name": "startAt",
          "type": "uint256"
        },
        {
          "internalType": "uint256",
          "name": "duration",
          "type": "uint256"
        },
        {
          "internalType": "uint256",
          "name": "fee",
          "type": "uint256"
        },
        {
          "internalType": "bool",
          "name": "pending",
          "type": "bool"
        }
      ],
      "stateMutability": "view",
      "type": "function"
    },
    {
      "inputs": [],
      "name": "renounceOwnership",
      "outputs": [],
      "stateMutability": "nonpayable",
      "type": "function"
    },
    {
      "inputs": [
        {
          "internalType": "uint256",
          "name": "tokenId",
          "type": "uint256"
        },
        {
          "internalType": "enum AvatarBasic.Stat[]",
          "name": "keys",
          "type": "uint8[]"
        }
      ],
      "name": "requestUpgradeState",
      "outputs": [],
      "stateMutability": "nonpayable",
      "type": "function"
    },
    {
      "inputs": [
        {
          "internalType": "uint256",
          "name": "tokenId",
          "type": "uint256"
        }
      ],
      "name": "requestUpgradeToKeeper",
      "outputs": [],
      "stateMutability": "nonpayable",
      "type": "function"
    },
    {
      "inputs": [
        {
          "internalType": "address",
          "name": "nftAddress",
          "type": "address"
        }
      ],
      "name": "setAssetNFTAddress",
      "outputs": [],
      "stateMutability": "nonpayable",
      "type": "function"
    },
    {
      "inputs": [
        {
          "internalType": "address",
          "name": "_address",
          "type": "address"
        }
      ],
      "name": "setAvatarNFTAddress",
      "outputs": [],
      "stateMutability": "nonpayable",
      "type": "function"
    },
    {
      "inputs": [
        {
          "internalType": "uint256[9]",
          "name": "fees",
          "type": "uint256[9]"
        }
      ],
      "name": "setFeeForUpgradeState",
      "outputs": [],
      "stateMutability": "nonpayable",
      "type": "function"
    },
    {
      "inputs": [
        {
          "internalType": "uint256",
          "name": "duration",
          "type": "uint256"
        }
      ],
      "name": "setPendingDurationForKeeper",
      "outputs": [],
      "stateMutability": "nonpayable",
      "type": "function"
    },
    {
      "inputs": [
        {
          "internalType": "uint256[9]",
          "name": "durations",
          "type": "uint256[9]"
        }
      ],
      "name": "setPendingDurationForState",
      "outputs": [],
      "stateMutability": "nonpayable",
      "type": "function"
    },
    {
      "inputs": [
        {
          "internalType": "address",
          "name": "_signer",
          "type": "address"
        }
      ],
      "name": "setSigner",
      "outputs": [],
      "stateMutability": "nonpayable",
      "type": "function"
    },
    {
      "inputs": [],
      "name": "signer",
      "outputs": [
        {
          "internalType": "address",
          "name": "",
          "type": "address"
        }
      ],
      "stateMutability": "view",
      "type": "function"
    },
    {
      "inputs": [
        {
          "internalType": "address",
          "name": "newOwner",
          "type": "address"
        }
      ],
      "name": "transferOwnership",
      "outputs": [],
      "stateMutability": "nonpayable",
      "type": "function"
    },
    {
      "inputs": [
        {
          "internalType": "uint256",
          "name": "_tokenId",
          "type": "uint256"
        },
        {
          "internalType": "string",
          "name": "name",
          "type": "string"
        },
        {
          "internalType": "bytes",
          "name": "signature",
          "type": "bytes"
        }
      ],
      "name": "updateAvatarName",
      "outputs": [],
      "stateMutability": "nonpayable",
      "type": "function"
    },
    {
      "inputs": [
        {
          "internalType": "uint256",
          "name": "tokenId",
          "type": "uint256"
        },
        {
          "internalType": "enum AvatarBasic.CustomizableTrait",
          "name": "trait",
          "type": "uint8"
        },
        {
          "internalType": "uint256",
          "name": "assetTokenId",
          "type": "uint256"
        },
        {
          "internalType": "string",
          "name": "uri",
          "type": "string"
        },
        {
          "internalType": "bytes",
          "name": "signature",
          "type": "bytes"
        }
      ],
      "name": "updateMetadata",
      "outputs": [],
      "stateMutability": "nonpayable",
      "type": "function"
    },
    {
      "inputs": [
        {
          "internalType": "uint256",
          "name": "tokenId",
          "type": "uint256"
        },
        {
          "internalType": "bytes",
          "name": "signature",
          "type": "bytes"
        }
      ],
      "name": "upgradeState",
      "outputs": [],
      "stateMutability": "payable",
      "type": "function"
    },
    {
      "inputs": [
        {
          "internalType": "uint256",
          "name": "tokenId",
          "type": "uint256"
        },
        {
          "internalType": "string",
          "name": "metadataUri",
          "type": "string"
        },
        {
          "internalType": "bytes",
          "name": "signature",
          "type": "bytes"
        }
      ],
      "name": "upgradeToKeeper",
      "outputs": [],
      "stateMutability": "nonpayable",
      "type": "function"
    },
    {
      "inputs": [
        {
          "internalType": "bytes",
          "name": "signature",
          "type": "bytes"
        },
        {
          "internalType": "address",
          "name": "_signer",
          "type": "address"
        }
      ],
      "name": "verifySigner",
      "outputs": [
        {
          "internalType": "bool",
          "name": "",
          "type": "bool"
        }
      ],
      "stateMutability": "view",
      "type": "function"
    }
  ],
  "transactionHash": "0x917bd1c870912e632921659e0494f64269b60c95c86398fb74970a6789cb7725",
  "args": [
    "0x2b379a4F87Bc5eE27BE8e097dE31b8AB7CD818eA",
    "0xc09eAC15f9Ba6462e8E4612af7C431E1cfe08b87"
  ],
  "numDeployments": 1,
  "solcInputHash": "b474e0d835221309c977257c7f754341",
  "bytecode": "0x6101a060405262015180608081815260a082905260c082905260e0829052610100829052610120919091526202a300610140526203f4806101605262054600610180526200005290600590600962000186565b506040805161012081018252600080825260208201819052918101829052606081018290526080810182905260a0810191909152674563918244f4000060c0820152678ac7230489e8000060e082015267d02ab486cedc0000610100820152620000c190600e906009620001d0565b5062093a80601855348015620000d657600080fd5b5060405162002ea938038062002ea9833981016040819052620000f99162000236565b620001043362000136565b600280546001600160a01b039384166001600160a01b03199182161790915560018054929093169116179055620002a1565b600080546001600160a01b038381166001600160a01b0319831681178455604051919092169283917f8be0079c531659141344cd1fd0a4f28419497f9722a3daafe3b4186f6b6457e09190a35050565b8260098101928215620001be579160200282015b82811115620001be578251829062ffffff169055916020019190600101906200019a565b50620001cc9291506200020c565b5090565b8260098101928215620001be579160200282015b82811115620001be57825182906001600160401b0316905591602001919060010190620001e4565b5b80821115620001cc57600081556001016200020d565b8051620002308162000287565b92915050565b600080604083850312156200024a57600080fd5b600062000258858562000223565b92505060206200026b8582860162000223565b9150509250929050565b60006001600160a01b03821662000230565b620002928162000275565b81146200029e57600080fd5b50565b612bf880620002b16000396000f3fe6080604052600436106101815760003560e01c80637ac3c02f116100d1578063c112760b1161008a578063da1a7bc611610064578063da1a7bc61461049b578063dac66085146104bb578063f2fde38b146104db578063f8441164146104fb57600080fd5b8063c112760b14610445578063c5ee6c681461045b578063c9bfe0361461047b57600080fd5b80637ac3c02f1461036f5780638da5cb5b1461038d5780639c9af7cb146103ab5780639ed4a4d7146103cb578063b9ae46ab146103f8578063bd8c3e0d1461042557600080fd5b806352334fbe1161013e5780635c10a858116101185780635c10a858146103075780635fef342e1461031a5780636c19e7831461033a578063715018a61461035a57600080fd5b806352334fbe1461025e578063533bb2f8146102c7578063558b26e6146102e757600080fd5b80630b580ddb146101865780630d90401a146101a85780631d2923a1146101c85780631dc94a0c146101e8578063238ac93314610208578063326016e01461023e575b600080fd5b34801561019257600080fd5b506101a66101a1366004612168565b61051b565b005b3480156101b457600080fd5b506101a66101c3366004611f9b565b610985565b3480156101d457600080fd5b506101a66101e33660046120c2565b6109d1565b3480156101f457600080fd5b506101a6610203366004611fd7565b610dcb565b34801561021457600080fd5b50600154610228906001600160a01b031681565b604051610235919061273a565b60405180910390f35b34801561024a57600080fd5b50600354610228906001600160a01b031681565b34801561026a57600080fd5b506102b6610279366004612086565b6004602081905260009182526040909120805460028201546003830154938301546005909301546001600160a01b03909216939092909160ff1685565b604051610235959493929190612770565b3480156102d357600080fd5b506101a66102e2366004612086565b610e06565b3480156102f357600080fd5b506101a661030236600461220e565b610eec565b6101a6610315366004612113565b610f8b565b34801561032657600080fd5b506101a6610335366004611f9b565b6111bf565b34801561034657600080fd5b506101a6610355366004611f9b565b61120b565b34801561036657600080fd5b506101a6611257565b34801561037b57600080fd5b506001546001600160a01b0316610228565b34801561039957600080fd5b506000546001600160a01b0316610228565b3480156103b757600080fd5b506101a66103c6366004611fd7565b61128d565b3480156103d757600080fd5b506103eb6103e6366004612086565b6112c4565b6040516102359190612948565b34801561040457600080fd5b50610418610413366004612014565b6112db565b60405161023591906127bc565b34801561043157600080fd5b506101a661044036600461220e565b61138e565b34801561045157600080fd5b506103eb60185481565b34801561046757600080fd5b506101a6610476366004612086565b61158c565b34801561048757600080fd5b506103eb610496366004612086565b611672565b3480156104a757600080fd5b50600254610228906001600160a01b031681565b3480156104c757600080fd5b506101a66104d6366004612086565b611682565b3480156104e757600080fd5b506101a66104f6366004611f9b565b611861565b34801561050757600080fd5b506101a6610516366004612086565b6118bd565b60015461053490839083906001600160a01b03166112db565b6105595760405162461bcd60e51b815260040161055090612878565b60405180910390fd5b6002546040516331a9108f60e11b815233916001600160a01b031690636352211e90610589908a90600401612948565b60206040518083038186803b1580156105a157600080fd5b505afa1580156105b5573d6000803e3d6000fd5b505050506040513d601f19601f820116820180604052508101906105d99190611fb9565b6001600160a01b0316146105ff5760405162461bcd60e51b815260040161055090612838565b6003546040516331a9108f60e11b815233916001600160a01b031690636352211e9061062f908890600401612948565b60206040518083038186803b15801561064757600080fd5b505afa15801561065b573d6000803e3d6000fd5b505050506040513d601f19601f8201168201806040525081019061067f9190611fb9565b6001600160a01b0316146106a55760405162461bcd60e51b8152600401610550906128a8565b8460058111156106c557634e487b7160e01b600052602160045260246000fd5b60035460405163acb586df60e01b81526001600160a01b039091169063acb586df906106f5908890600401612948565b60206040518083038186803b15801561070d57600080fd5b505afa158015610721573d6000803e3d6000fd5b505050506040513d601f19601f820116820180604052508101906107459190612068565b600581111561076457634e487b7160e01b600052602160045260246000fd5b146107815760405162461bcd60e51b815260040161055090612928565b336000908152601960205260408120818760058111156107b157634e487b7160e01b600052602160045260246000fd5b60058111156107d057634e487b7160e01b600052602160045260246000fd5b815260200190815260200160002054905080600014610850576003546040516323b872dd60e01b81526001600160a01b03909116906323b872dd9061081d90309033908690600401612748565b600060405180830381600087803b15801561083757600080fd5b505af115801561084b573d6000803e3d6000fd5b505050505b600254604051632bfbbc4f60e11b81526001600160a01b03909116906357f7789e90610882908a908890600401612999565b600060405180830381600087803b15801561089c57600080fd5b505af11580156108b0573d6000803e3d6000fd5b50506003546040516323b872dd60e01b81526001600160a01b0390911692506323b872dd91506108e890339030908a90600401612748565b600060405180830381600087803b15801561090257600080fd5b505af1158015610916573d6000803e3d6000fd5b5050336000908152601960205260408120889350915088600581111561094c57634e487b7160e01b600052602160045260246000fd5b600581111561096b57634e487b7160e01b600052602160045260246000fd5b815260208101919091526040016000205550505050505050565b6000546001600160a01b031633146109af5760405162461bcd60e51b8152600401610550906128c8565b600280546001600160a01b0319166001600160a01b0392909216919091179055565b6002546040516331a9108f60e11b815233916001600160a01b031690636352211e90610a01908690600401612948565b60206040518083038186803b158015610a1957600080fd5b505afa158015610a2d573d6000803e3d6000fd5b505050506040513d601f19601f82011682018060405250810190610a519190611fb9565b6001600160a01b031614610a775760405162461bcd60e51b815260040161055090612828565b6000828152600460205260409020600581015460ff1615610aaa5760405162461bcd60e51b8152600401610550906128d8565b600080600080600086516001600160401b03811115610ad957634e487b7160e01b600052604160045260246000fd5b604051908082528060200260200182016040528015610b02578160200160208202803683370190505b50905060005b8751811015610cf35760025488516000916001600160a01b031690639f2296dc908c908c9086908110610b4b57634e487b7160e01b600052603260045260246000fd5b60200260200101516040518363ffffffff1660e01b8152600401610b70929190612956565b60206040518083038186803b158015610b8857600080fd5b505afa158015610b9c573d6000803e3d6000fd5b505050506040513d601f19601f82011682018060405250810190610bc091906120a4565b905060098111610ce057600196506005610bda8883612a5a565b60098110610bf857634e487b7160e01b600052603260045260246000fd5b0154610c049087612a42565b9550600e610c13600183612a5a565b60098110610c3157634e487b7160e01b600052603260045260246000fd5b0154610c3d9086612a42565b9450888281518110610c5f57634e487b7160e01b600052603260045260246000fd5b6020026020010151838581518110610c8757634e487b7160e01b600052603260045260246000fd5b60200260200101906006811115610cae57634e487b7160e01b600052602160045260246000fd5b90816006811115610ccf57634e487b7160e01b600052602160045260246000fd5b90525083610cdc81612b07565b9450505b5080610ceb81612b07565b915050610b08565b5084610d115760405162461bcd60e51b8152600401610550906128f8565b6002546040516323b872dd60e01b81526001600160a01b03909116906323b872dd90610d4590339030908d90600401612748565b600060405180830381600087803b158015610d5f57600080fd5b505af1158015610d73573d6000803e3d6000fd5b505087546001600160a01b03191633178855505060058601805460ff191660019081179091554260028801558151610db2918801906020840190611ca4565b5050506003840191909155600490920191909155505050565b6000546001600160a01b03163314610df55760405162461bcd60e51b8152600401610550906128c8565b610e02600e826009611d66565b5050565b600081815260176020526040902080546001600160a01b03163314610e3d5760405162461bcd60e51b8152600401610550906128e8565b600281015460ff16610e615760405162461bcd60e51b815260040161055090612888565b6002546040516323b872dd60e01b81526001600160a01b03909116906323b872dd90610e9590309033908790600401612748565b600060405180830381600087803b158015610eaf57600080fd5b505af1158015610ec3573d6000803e3d6000fd5b505082546001600160a01b0319168355505060028101805460ff19169055600060019091015550565b600154610f0590839083906001600160a01b03166112db565b610f215760405162461bcd60e51b815260040161055090612878565b6002546040516314f9dbcb60e21b81526001600160a01b03909116906353e76f2c90610f539087908790600401612999565b600060405180830381600087803b158015610f6d57600080fd5b505af1158015610f81573d6000803e3d6000fd5b5050505050505050565b600154610fa490839083906001600160a01b03166112db565b610fc05760405162461bcd60e51b815260040161055090612848565b600083815260046020526040902080546001600160a01b03163314610ff75760405162461bcd60e51b8152600401610550906128e8565b600581015460ff1661101b5760405162461bcd60e51b815260040161055090612918565b61102881600401546118ec565b8060030154816002015461103c9190612a42565b42101561105b5760405162461bcd60e51b815260040161055090612868565b60005b600182015481101561112a576002546001830180546001600160a01b0390921691638e8f3016918891859081106110a557634e487b7160e01b600052603260045260246000fd5b90600052602060002090602091828204019190069054906101000a900460ff1660016040518463ffffffff1660e01b81526004016110e593929190612971565b600060405180830381600087803b1580156110ff57600080fd5b505af1158015611113573d6000803e3d6000fd5b50505050808061112290612b07565b91505061105e565b506002546040516323b872dd60e01b81526001600160a01b03909116906323b872dd9061115f90309033908990600401612748565b600060405180830381600087803b15801561117957600080fd5b505af115801561118d573d6000803e3d6000fd5b50505060058201805460ff191690555080546001600160a01b0319168155600060038201819055600490910155505050565b6000546001600160a01b031633146111e95760405162461bcd60e51b8152600401610550906128c8565b600380546001600160a01b0319166001600160a01b0392909216919091179055565b6000546001600160a01b031633146112355760405162461bcd60e51b8152600401610550906128c8565b600180546001600160a01b0319166001600160a01b0392909216919091179055565b6000546001600160a01b031633146112815760405162461bcd60e51b8152600401610550906128c8565b61128b600061194a565b565b6000546001600160a01b031633146112b75760405162461bcd60e51b8152600401610550906128c8565b610e026005826009611d66565b600e81600981106112d457600080fd5b0154905081565b600080336040516020016112ef91906126ea565b60405160208183030381529060405280519060200120905060006113128261199a565b905060006113568288888080601f0160208091040260200160405190810160405280939291908181526020018383808284376000920191909152506119ca92505050565b90506001600160a01b038116158015906113815750846001600160a01b0316816001600160a01b0316145b93505050505b9392505050565b6001546113a790839083906001600160a01b03166112db565b6113c35760405162461bcd60e51b815260040161055090612848565b600084815260176020526040902080546001600160a01b031633146113fa5760405162461bcd60e51b8152600401610550906128e8565b600281015460ff1661141e5760405162461bcd60e51b815260040161055090612918565b60185481600101546114309190612a42565b42101561144f5760405162461bcd60e51b815260040161055090612868565b6002546040516323b872dd60e01b81526001600160a01b03909116906323b872dd9061148390309033908a90600401612748565b600060405180830381600087803b15801561149d57600080fd5b505af11580156114b1573d6000803e3d6000fd5b505060025460405163427175ff60e01b81526001600160a01b03909116925063427175ff91506114e5908890600401612948565b600060405180830381600087803b1580156114ff57600080fd5b505af1158015611513573d6000803e3d6000fd5b5050600254604051632bfbbc4f60e11b81526001600160a01b0390911692506357f7789e91506115499088908890600401612999565b600060405180830381600087803b15801561156357600080fd5b505af1158015611577573d6000803e3d6000fd5b50505050600201805460ff1916905550505050565b600081815260046020526040902080546001600160a01b031633146115c35760405162461bcd60e51b8152600401610550906128e8565b600581015460ff166115e75760405162461bcd60e51b815260040161055090612888565b6002546040516323b872dd60e01b81526001600160a01b03909116906323b872dd9061161b90309033908790600401612748565b600060405180830381600087803b15801561163557600080fd5b505af1158015611649573d6000803e3d6000fd5b505082546001600160a01b0319168355505060058101805460ff19169055600060029091015550565b600581600981106112d457600080fd5b6002546040516331a9108f60e11b815233916001600160a01b031690636352211e906116b2908590600401612948565b60206040518083038186803b1580156116ca57600080fd5b505afa1580156116de573d6000803e3d6000fd5b505050506040513d601f19601f820116820180604052508101906117029190611fb9565b6001600160a01b0316146117285760405162461bcd60e51b815260040161055090612828565b6002546040516330483c6760e11b81526001600160a01b039091169063609078ce90611758908490600401612948565b60206040518083038186803b15801561177057600080fd5b505afa158015611784573d6000803e3d6000fd5b505050506040513d601f19601f820116820180604052508101906117a89190611ff6565b156117c55760405162461bcd60e51b815260040161055090612938565b6002546040516323b872dd60e01b81526001600160a01b03909116906323b872dd906117f990339030908690600401612748565b600060405180830381600087803b15801561181357600080fd5b505af1158015611827573d6000803e3d6000fd5b50505060009182525060176020526040902080546001600160a01b0319163317815560028101805460ff1916600190811790915542910155565b6000546001600160a01b0316331461188b5760405162461bcd60e51b8152600401610550906128c8565b6001600160a01b0381166118b15760405162461bcd60e51b815260040161055090612858565b6118ba8161194a565b50565b6000546001600160a01b031633146118e75760405162461bcd60e51b8152600401610550906128c8565b601855565b8034101561190c5760405162461bcd60e51b815260040161055090612908565b803411156118ba57336108fc6119228334612a5a565b6040518115909202916000818181858888f19350505050158015610e02573d6000803e3d6000fd5b600080546001600160a01b038381166001600160a01b0319831681178455604051919092169283917f8be0079c531659141344cd1fd0a4f28419497f9722a3daafe3b4186f6b6457e09190a35050565b6000816040516020016119ad91906126ff565b604051602081830303815290604052805190602001209050919050565b60008060006119d985856119f0565b915091506119e681611a60565b5090505b92915050565b600080825160411415611a275760208301516040840151606085015160001a611a1b87828585611b8b565b94509450505050611a59565b825160401415611a515760208301516040840151611a46868383611c6b565b935093505050611a59565b506000905060025b9250929050565b6000816004811115611a8257634e487b7160e01b600052602160045260246000fd5b1415611a8b5750565b6001816004811115611aad57634e487b7160e01b600052602160045260246000fd5b1415611acb5760405162461bcd60e51b815260040161055090612808565b6002816004811115611aed57634e487b7160e01b600052602160045260246000fd5b1415611b0b5760405162461bcd60e51b815260040161055090612818565b6003816004811115611b2d57634e487b7160e01b600052602160045260246000fd5b1415611b4b5760405162461bcd60e51b815260040161055090612898565b6004816004811115611b6d57634e487b7160e01b600052602160045260246000fd5b14156118ba5760405162461bcd60e51b8152600401610550906128b8565b6000807f7fffffffffffffffffffffffffffffff5d576e7357a4501ddfe92f46681b20a0831115611bc25750600090506003611c62565b8460ff16601b14158015611bda57508460ff16601c14155b15611beb5750600090506004611c62565b600060018787878760405160008152602001604052604051611c1094939291906127ca565b6020604051602081039080840390855afa158015611c32573d6000803e3d6000fd5b5050604051601f1901519150506001600160a01b038116611c5b57600060019250925050611c62565b9150600090505b94509492505050565b6000806001600160ff1b03831681611c8860ff86901c601b612a42565b9050611c9687828885611b8b565b935093505050935093915050565b82805482825590600052602060002090601f01602090048101928215611d565791602002820160005b83821115611d2757835183826101000a81548160ff02191690836006811115611d0657634e487b7160e01b600052602160045260246000fd5b02179055509260200192600101602081600001049283019260010302611ccd565b8015611d545782816101000a81549060ff0219169055600101602081600001049283019260010302611d27565b505b50611d62929150611d94565b5090565b8260098101928215611d56579160200282015b82811115611d56578251825591602001919060010190611d79565b5b80821115611d625760008155600101611d95565b6000611dbc611db7846129d5565b6129b9565b90508083825260208201905082856020860282011115611ddb57600080fd5b60005b85811015611e075781611df18882611f59565b8452506020928301929190910190600101611dde565b5050509392505050565b6000611e1f611db7846129f8565b90508082856020860282011115611e3557600080fd5b60005b85811015611e075781611e4b8882611f85565b8452506020928301929190910190600101611e38565b6000611e6f611db784612a18565b905082815260208101848484011115611e8757600080fd5b611e92848285612a9f565b509392505050565b80356119ea81612b86565b80516119ea81612b86565b600082601f830112611ec157600080fd5b8135611ed1848260208601611da9565b949350505050565b600082601f830112611eea57600080fd5b6009611ed1848285611e11565b80516119ea81612b9a565b60008083601f840112611f1457600080fd5b5081356001600160401b03811115611f2b57600080fd5b602083019150836001820283011115611a5957600080fd5b80356119ea81612ba2565b80516119ea81612ba2565b80356119ea81612baf565b600082601f830112611f7557600080fd5b8135611ed1848260208601611e61565b80356119ea81612bbc565b80516119ea81612bbc565b600060208284031215611fad57600080fd5b6000611ed18484611e9a565b600060208284031215611fcb57600080fd5b6000611ed18484611ea5565b60006101208284031215611fea57600080fd5b6000611ed18484611ed9565b60006020828403121561200857600080fd5b6000611ed18484611ef7565b60008060006040848603121561202957600080fd5b83356001600160401b0381111561203f57600080fd5b61204b86828701611f02565b9350935050602061205e86828701611e9a565b9150509250925092565b60006020828403121561207a57600080fd5b6000611ed18484611f4e565b60006020828403121561209857600080fd5b6000611ed18484611f85565b6000602082840312156120b657600080fd5b6000611ed18484611f90565b600080604083850312156120d557600080fd5b60006120e18585611f85565b92505060208301356001600160401b038111156120fd57600080fd5b61210985828601611eb0565b9150509250929050565b60008060006040848603121561212857600080fd5b60006121348686611f85565b93505060208401356001600160401b0381111561215057600080fd5b61215c86828701611f02565b92509250509250925092565b60008060008060008060a0878903121561218157600080fd5b600061218d8989611f85565b965050602061219e89828a01611f43565b95505060406121af89828a01611f85565b94505060608701356001600160401b038111156121cb57600080fd5b6121d789828a01611f64565b93505060808701356001600160401b038111156121f357600080fd5b6121ff89828a01611f02565b92509250509295509295509295565b6000806000806060858703121561222457600080fd5b60006122308787611f85565b94505060208501356001600160401b0381111561224c57600080fd5b61225887828801611f64565b93505060408501356001600160401b0381111561227457600080fd5b61228087828801611f02565b95989497509550505050565b61229581612a71565b82525050565b6122956122a782612a71565b612b22565b801515612295565b80612295565b61229581612a8c565b61229581612a97565b60006122d6825190565b8084526020840193506122ed818560208601612aab565b601f01601f19169290920192915050565b601881526000602082017f45434453413a20696e76616c6964207369676e61747572650000000000000000815291505b5060200190565b601f81526000602082017f45434453413a20696e76616c6964207369676e6174757265206c656e677468008152915061232e565b60208082527f596f7520617265206e6f74206f776e6572206f66207468697320746f6b656e2e9101908152600061232e565b602181526000602082017f596f7520617265206e6f74206f776e6572206f662074686973204176617461728152601760f91b602082015291505b5060400190565b601281526000602082017124b73b30b634b21029b4b3b730ba3ab9329760711b8152915061232e565b602681526000602082017f4f776e61626c653a206e6577206f776e657220697320746865207a65726f206181526564647265737360d01b602082015291506123d5565b60128152600060208201712737ba1030bb30b4b630b13632903737bb9760711b8152915061232e565b6011815260006020820170496e76616c6964207369676e617475726560781b8152915061232e565b60138152600060208201722cb7ba903234b23713ba103932b8bab2b9ba1760691b8152915061232e565b602281526000602082017f45434453413a20696e76616c6964207369676e6174757265202773272076616c815261756560f01b602082015291506123d5565b60208082527f596f7520617265206e6f74206f776e6572206f6620746869732061737365742e9101908152600061232e565b602281526000602082017f45434453413a20696e76616c6964207369676e6174757265202776272076616c815261756560f01b602082015291506123d5565b60208082527f4f776e61626c653a2063616c6c6572206973206e6f7420746865206f776e65729101908152600061232e565b601281526000602082017120b63932b0b23c903932b8bab2b9ba32b21760711b8152915061232e565b60168152600060208201752cb7ba9030b932903737ba1027232a1037bbb732b91760511b8152915061232e565b601a81526000602082017f4e6f20737461742063616e2062652075706772616461626c652e0000000000008152915061232e565b60168152600060208201752732b2b2103a379039b2b7321036b7b9329022aa241760511b8152915061232e565b601881526000602082017f53686f756c642062652070656e64696e672066697273742e00000000000000008152915061232e565b601481526000602082017324b73b30b634b21030b9b9b2ba103a37b5b2b71760611b8152915061232e565b600f81526000602082016e20b63932b0b23c9035b2b2b832b91760891b8152915061232e565b60ff8116612295565b60006126f6828461229b565b50601401919050565b7f19457468657265756d205369676e6564204d6573736167653a0a3332000000008152601c01600061273182846122b4565b50602001919050565b602081016119ea828461228c565b60608101612756828661228c565b612763602083018561228c565b611ed160408301846122b4565b60a0810161277e828861228c565b61278b60208301876122b4565b61279860408301866122b4565b6127a560608301856122b4565b6127b260808301846122ac565b9695505050505050565b602081016119ea82846122ac565b608081016127d882876122b4565b6127e560208301866126e1565b6127f260408301856122b4565b6127ff60608301846122b4565b95945050505050565b602080825281016119ea816122fe565b602080825281016119ea81612335565b602080825281016119ea81612369565b602080825281016119ea8161239b565b602080825281016119ea816123dc565b602080825281016119ea81612405565b602080825281016119ea81612448565b602080825281016119ea81612471565b602080825281016119ea81612499565b602080825281016119ea816124c3565b602080825281016119ea81612502565b602080825281016119ea81612534565b602080825281016119ea81612573565b602080825281016119ea816125a5565b602080825281016119ea816125ce565b602080825281016119ea816125fb565b602080825281016119ea8161262f565b602080825281016119ea8161265c565b602080825281016119ea81612690565b602080825281016119ea816126bb565b602081016119ea82846122b4565b6040810161296482856122b4565b61138760208301846122ba565b6060810161297f82866122b4565b61298c60208301856122ba565b611ed160408301846122c3565b604081016129a782856122b4565b8181036020830152611ed181846122cc565b60006129c460405190565b90506129d08282612adb565b919050565b60006001600160401b038211156129ee576129ee612b60565b5060209081020190565b60006001600160401b03821115612a1157612a11612b60565b5060200290565b60006001600160401b03821115612a3157612a31612b60565b601f19601f83011660200192915050565b60008219821115612a5557612a55612b34565b500190565b600082821015612a6c57612a6c612b34565b500390565b60006001600160a01b0382166119ea565b806129d081612b76565b60006119ea82612a82565b6000816119ea565b82818337506000910152565b60005b83811015612ac6578181015183820152602001612aae565b83811115612ad5576000848401525b50505050565b601f19601f83011681018181106001600160401b0382111715612b0057612b00612b60565b6040525050565b6000600019821415612b1b57612b1b612b34565b5060010190565b60006119ea8260006119ea8260601b90565b634e487b7160e01b600052601160045260246000fd5b634e487b7160e01b600052602160045260246000fd5b634e487b7160e01b600052604160045260246000fd5b600781106118ba576118ba612b4a565b612b8f81612a71565b81146118ba57600080fd5b801515612b8f565b600681106118ba57600080fd5b600781106118ba57600080fd5b80612b8f56fea2646970667358221220c61b3c1b470975b8e648be1fea9a661e44e8cf26b67bd4fc9613aec9cd42bc2264736f6c63430008040033",
  "devdoc": {
    "kind": "dev",
    "methods": {
      "owner()": {
        "details": "Returns the address of the current owner."
      },
      "renounceOwnership()": {
        "details": "Leaves the contract without owner. It will not be possible to call `onlyOwner` functions anymore. Can only be called by the current owner. NOTE: Renouncing ownership will leave the contract without an owner, thereby removing any functionality that is only available to the owner."
      },
      "transferOwnership(address)": {
        "details": "Transfers ownership of the contract to a new account (`newOwner`). Can only be called by the current owner."
      }
    },
    "version": 1
  },
  "userdoc": {
    "kind": "user",
    "methods": {},
    "version": 1
  },
  "storageLayout": {
    "storage": [
      {
        "astId": 7,
        "contract": "contracts/AvatarUpdateManager.sol:AvatarUpdateManager",
        "label": "_owner",
        "offset": 0,
        "slot": "0",
        "type": "t_address"
      },
      {
        "astId": 2921,
        "contract": "contracts/AvatarUpdateManager.sol:AvatarUpdateManager",
        "label": "signer",
        "offset": 0,
        "slot": "1",
        "type": "t_address"
      },
      {
        "astId": 2923,
        "contract": "contracts/AvatarUpdateManager.sol:AvatarUpdateManager",
        "label": "avatarNFTAddress",
        "offset": 0,
        "slot": "2",
        "type": "t_address"
      },
      {
        "astId": 2925,
        "contract": "contracts/AvatarUpdateManager.sol:AvatarUpdateManager",
        "label": "avatarAssetNFTAddress",
        "offset": 0,
        "slot": "3",
        "type": "t_address"
      },
      {
        "astId": 2930,
        "contract": "contracts/AvatarUpdateManager.sol:AvatarUpdateManager",
        "label": "pendingToUpgradeInfo",
        "offset": 0,
        "slot": "4",
        "type": "t_mapping(t_uint256,t_struct(PendingToUpgradeState)2919_storage)"
      },
      {
        "astId": 2944,
        "contract": "contracts/AvatarUpdateManager.sol:AvatarUpdateManager",
        "label": "pendingDurationForState",
        "offset": 0,
        "slot": "5",
        "type": "t_array(t_uint256)9_storage"
      },
      {
        "astId": 2958,
        "contract": "contracts/AvatarUpdateManager.sol:AvatarUpdateManager",
        "label": "feeForUpgradeState",
        "offset": 0,
        "slot": "14",
        "type": "t_array(t_uint256)9_storage"
      },
      {
        "astId": 2963,
        "contract": "contracts/AvatarUpdateManager.sol:AvatarUpdateManager",
        "label": "pendingToKeeperInfo",
        "offset": 0,
        "slot": "23",
        "type": "t_mapping(t_uint256,t_struct(PendingToKeeper)2904_storage)"
      },
      {
        "astId": 2966,
        "contract": "contracts/AvatarUpdateManager.sol:AvatarUpdateManager",
        "label": "pendingToKeeperLockDuration",
        "offset": 0,
        "slot": "24",
        "type": "t_uint256"
      },
      {
        "astId": 2973,
        "contract": "contracts/AvatarUpdateManager.sol:AvatarUpdateManager",
        "label": "reservedTraits",
        "offset": 0,
        "slot": "25",
        "type": "t_mapping(t_address,t_mapping(t_enum(CustomizableTrait)8352,t_uint256))"
      }
    ],
    "types": {
      "t_address": {
        "encoding": "inplace",
        "label": "address",
        "numberOfBytes": "20"
      },
      "t_array(t_enum(Stat)8345)dyn_storage": {
        "base": "t_enum(Stat)8345",
        "encoding": "dynamic_array",
        "label": "enum AvatarBasic.Stat[]",
        "numberOfBytes": "32"
      },
      "t_array(t_uint256)9_storage": {
        "base": "t_uint256",
        "encoding": "inplace",
        "label": "uint256[9]",
        "numberOfBytes": "288"
      },
      "t_bool": {
        "encoding": "inplace",
        "label": "bool",
        "numberOfBytes": "1"
      },
      "t_enum(CustomizableTrait)8352": {
        "encoding": "inplace",
        "label": "enum AvatarBasic.CustomizableTrait",
        "numberOfBytes": "1"
      },
      "t_enum(Stat)8345": {
        "encoding": "inplace",
        "label": "enum AvatarBasic.Stat",
        "numberOfBytes": "1"
      },
      "t_mapping(t_address,t_mapping(t_enum(CustomizableTrait)8352,t_uint256))": {
        "encoding": "mapping",
        "key": "t_address",
        "label": "mapping(address => mapping(enum AvatarBasic.CustomizableTrait => uint256))",
        "numberOfBytes": "32",
        "value": "t_mapping(t_enum(CustomizableTrait)8352,t_uint256)"
      },
      "t_mapping(t_enum(CustomizableTrait)8352,t_uint256)": {
        "encoding": "mapping",
        "key": "t_enum(CustomizableTrait)8352",
        "label": "mapping(enum AvatarBasic.CustomizableTrait => uint256)",
        "numberOfBytes": "32",
        "value": "t_uint256"
      },
      "t_mapping(t_uint256,t_struct(PendingToKeeper)2904_storage)": {
        "encoding": "mapping",
        "key": "t_uint256",
        "label": "mapping(uint256 => struct AvatarUpdateManager.PendingToKeeper)",
        "numberOfBytes": "32",
        "value": "t_struct(PendingToKeeper)2904_storage"
      },
      "t_mapping(t_uint256,t_struct(PendingToUpgradeState)2919_storage)": {
        "encoding": "mapping",
        "key": "t_uint256",
        "label": "mapping(uint256 => struct AvatarUpdateManager.PendingToUpgradeState)",
        "numberOfBytes": "32",
        "value": "t_struct(PendingToUpgradeState)2919_storage"
      },
      "t_struct(PendingToKeeper)2904_storage": {
        "encoding": "inplace",
        "label": "struct AvatarUpdateManager.PendingToKeeper",
        "members": [
          {
            "astId": 2899,
            "contract": "contracts/AvatarUpdateManager.sol:AvatarUpdateManager",
            "label": "owner",
            "offset": 0,
            "slot": "0",
            "type": "t_address"
          },
          {
            "astId": 2901,
            "contract": "contracts/AvatarUpdateManager.sol:AvatarUpdateManager",
            "label": "startAt",
            "offset": 0,
            "slot": "1",
            "type": "t_uint256"
          },
          {
            "astId": 2903,
            "contract": "contracts/AvatarUpdateManager.sol:AvatarUpdateManager",
            "label": "pending",
            "offset": 0,
            "slot": "2",
            "type": "t_bool"
          }
        ],
        "numberOfBytes": "96"
      },
      "t_struct(PendingToUpgradeState)2919_storage": {
        "encoding": "inplace",
        "label": "struct AvatarUpdateManager.PendingToUpgradeState",
        "members": [
          {
            "astId": 2906,
            "contract": "contracts/AvatarUpdateManager.sol:AvatarUpdateManager",
            "label": "owner",
            "offset": 0,
            "slot": "0",
            "type": "t_address"
          },
          {
            "astId": 2910,
            "contract": "contracts/AvatarUpdateManager.sol:AvatarUpdateManager",
            "label": "states",
            "offset": 0,
            "slot": "1",
            "type": "t_array(t_enum(Stat)8345)dyn_storage"
          },
          {
            "astId": 2912,
            "contract": "contracts/AvatarUpdateManager.sol:AvatarUpdateManager",
            "label": "startAt",
            "offset": 0,
            "slot": "2",
            "type": "t_uint256"
          },
          {
            "astId": 2914,
            "contract": "contracts/AvatarUpdateManager.sol:AvatarUpdateManager",
            "label": "duration",
            "offset": 0,
            "slot": "3",
            "type": "t_uint256"
          },
          {
            "astId": 2916,
            "contract": "contracts/AvatarUpdateManager.sol:AvatarUpdateManager",
            "label": "fee",
            "offset": 0,
            "slot": "4",
            "type": "t_uint256"
          },
          {
            "astId": 2918,
            "contract": "contracts/AvatarUpdateManager.sol:AvatarUpdateManager",
            "label": "pending",
            "offset": 0,
            "slot": "5",
            "type": "t_bool"
          }
        ],
        "numberOfBytes": "192"
      },
      "t_uint256": {
        "encoding": "inplace",
        "label": "uint256",
        "numberOfBytes": "32"
      }
    }
  }
}