{
  "address": "0xE544718Dc1275Fc30E7D045Bd27a18219566F805",
  "abi": [
    {
      "inputs": [
        {
          "internalType": "address",
          "name": "_nftAddress",
          "type": "address"
        },
        {
          "internalType": "contract IERC20",
          "name": "_token",
          "type": "address"
        },
        {
          "internalType": "address",
          "name": "_signer",
          "type": "address"
        }
      ],
      "stateMutability": "nonpayable",
      "type": "constructor"
    },
    {
      "anonymous": false,
      "inputs": [
        {
          "indexed": true,
          "internalType": "address",
          "name": "previousOwner",
          "type": "address"
        },
        {
          "indexed": true,
          "internalType": "address",
          "name": "newOwner",
          "type": "address"
        }
      ],
      "name": "OwnershipTransferred",
      "type": "event"
    },
    {
      "inputs": [],
      "name": "getSigner",
      "outputs": [
        {
          "internalType": "address",
          "name": "",
          "type": "address"
        }
      ],
      "stateMutability": "view",
      "type": "function"
    },
    {
      "inputs": [
        {
          "internalType": "uint8",
          "name": "quantity",
          "type": "uint8"
        },
        {
          "internalType": "uint8[][]",
          "name": "values",
          "type": "uint8[][]"
        },
        {
          "internalType": "string[]",
          "name": "metadataUris",
          "type": "string[]"
        },
        {
          "internalType": "bytes",
          "name": "signature",
          "type": "bytes"
        },
        {
          "internalType": "string[]",
          "name": "names",
          "type": "string[]"
        }
      ],
      "name": "mintNFT",
      "outputs": [],
      "stateMutability": "payable",
      "type": "function"
    },
    {
      "inputs": [
        {
          "internalType": "uint8",
          "name": "quantity",
          "type": "uint8"
        },
        {
          "internalType": "uint8[][]",
          "name": "values",
          "type": "uint8[][]"
        },
        {
          "internalType": "string[]",
          "name": "metadataUris",
          "type": "string[]"
        },
        {
          "internalType": "bytes",
          "name": "signature",
          "type": "bytes"
        },
        {
          "internalType": "string[]",
          "name": "names",
          "type": "string[]"
        }
      ],
      "name": "mintNFTWithToken",
      "outputs": [],
      "stateMutability": "nonpayable",
      "type": "function"
    },
    {
      "inputs": [],
      "name": "nftAddress",
      "outputs": [
        {
          "internalType": "address",
          "name": "",
          "type": "address"
        }
      ],
      "stateMutability": "view",
      "type": "function"
    },
    {
      "inputs": [],
      "name": "owner",
      "outputs": [
        {
          "internalType": "address",
          "name": "",
          "type": "address"
        }
      ],
      "stateMutability": "view",
      "type": "function"
    },
    {
      "inputs": [],
      "name": "paymentToken",
      "outputs": [
        {
          "internalType": "contract IERC20",
          "name": "",
          "type": "address"
        }
      ],
      "stateMutability": "view",
      "type": "function"
    },
    {
      "inputs": [],
      "name": "priceInEth",
      "outputs": [
        {
          "internalType": "uint256",
          "name": "",
          "type": "uint256"
        }
      ],
      "stateMutability": "view",
      "type": "function"
    },
    {
      "inputs": [],
      "name": "priceInToken",
      "outputs": [
        {
          "internalType": "uint256",
          "name": "",
          "type": "uint256"
        }
      ],
      "stateMutability": "view",
      "type": "function"
    },
    {
      "inputs": [],
      "name": "renounceOwnership",
      "outputs": [],
      "stateMutability": "nonpayable",
      "type": "function"
    },
    {
      "inputs": [
        {
          "internalType": "address",
          "name": "_nftAddress",
          "type": "address"
        }
      ],
      "name": "setNFTAddress",
      "outputs": [],
      "stateMutability": "nonpayable",
      "type": "function"
    },
    {
      "inputs": [
        {
          "internalType": "contract IERC20",
          "name": "_token",
          "type": "address"
        }
      ],
      "name": "setPaymentToken",
      "outputs": [],
      "stateMutability": "nonpayable",
      "type": "function"
    },
    {
      "inputs": [
        {
          "internalType": "uint256",
          "name": "_priceInEth",
          "type": "uint256"
        }
      ],
      "name": "setPriceInEth",
      "outputs": [],
      "stateMutability": "nonpayable",
      "type": "function"
    },
    {
      "inputs": [
        {
          "internalType": "uint256",
          "name": "_priceInToken",
          "type": "uint256"
        }
      ],
      "name": "setPriceInToken",
      "outputs": [],
      "stateMutability": "nonpayable",
      "type": "function"
    },
    {
      "inputs": [
        {
          "internalType": "address",
          "name": "_signer",
          "type": "address"
        }
      ],
      "name": "setSigner",
      "outputs": [],
      "stateMutability": "nonpayable",
      "type": "function"
    },
    {
      "inputs": [],
      "name": "signer",
      "outputs": [
        {
          "internalType": "address",
          "name": "",
          "type": "address"
        }
      ],
      "stateMutability": "view",
      "type": "function"
    },
    {
      "inputs": [
        {
          "internalType": "address",
          "name": "newOwner",
          "type": "address"
        }
      ],
      "name": "transferOwnership",
      "outputs": [],
      "stateMutability": "nonpayable",
      "type": "function"
    },
    {
      "inputs": [
        {
          "internalType": "bytes",
          "name": "signature",
          "type": "bytes"
        },
        {
          "internalType": "address",
          "name": "_signer",
          "type": "address"
        }
      ],
      "name": "verifySigner",
      "outputs": [
        {
          "internalType": "bool",
          "name": "",
          "type": "bool"
        }
      ],
      "stateMutability": "view",
      "type": "function"
    }
  ],
  "transactionHash": "0xf337d9b0452714f0ee08124c002e1bb80b444136024e8e75479e909d94ed263a",
  "args": [
    "0x2b379a4F87Bc5eE27BE8e097dE31b8AB7CD818eA",
    "0xDF528584B780c7396A62E24Af3e33cFAD55146b0",
    "0xc09eAC15f9Ba6462e8E4612af7C431E1cfe08b87"
  ],
  "numDeployments": 1,
  "solcInputHash": "b474e0d835221309c977257c7f754341",
  "bytecode": "0x60806040523480156200001157600080fd5b506040516200197e3803806200197e8339810160408190526200003491620000f2565b6200003f3362000082565b600280546001600160a01b039485166001600160a01b0319918216179091556005805493851693821693909317909255600180549190931691161790556200018a565b600080546001600160a01b038381166001600160a01b0319831681178455604051919092169283917f8be0079c531659141344cd1fd0a4f28419497f9722a3daafe3b4186f6b6457e09190a35050565b8051620000df8162000165565b92915050565b8051620000df816200017f565b6000806000606084860312156200010857600080fd5b6000620001168686620000d2565b93505060206200012986828701620000e5565b92505060406200013c86828701620000d2565b9150509250925092565b60006001600160a01b038216620000df565b6000620000df8262000146565b620001708162000146565b81146200017c57600080fd5b50565b620001708162000158565b6117e4806200019a6000396000f3fe6080604052600436106100fe5760003560e01c80636c19e7831161009557806393660fa61161006457806393660fa61461028c578063b9ae46ab146102ac578063d8149ff7146102d9578063f2fde38b146102fc578063fdd760ea1461031c57600080fd5b80636c19e7831461021b578063715018a61461023b5780637ac3c02f146102505780638da5cb5b1461026e57600080fd5b806352622b3c116100d157806352622b3c146101a85780635bf8633a146101bb57806369d03738146101db5780636a326ab1146101fb57600080fd5b8063238ac933146101035780633013ce29146101395780633e058d00146101665780634863246114610188575b600080fd5b34801561010f57600080fd5b50600154610123906001600160a01b031681565b604051610130919061145b565b60405180910390f35b34801561014557600080fd5b50600554610159906001600160a01b031681565b6040516101309190611532565b34801561017257600080fd5b50610186610181366004610f42565b610332565b005b34801561019457600080fd5b506101866101a3366004610f24565b61049f565b6101866101b6366004610f42565b6104ce565b3480156101c757600080fd5b50600254610123906001600160a01b031681565b3480156101e757600080fd5b506101866101f6366004610e75565b6105b1565b34801561020757600080fd5b50610186610216366004610f06565b6105fd565b34801561022757600080fd5b50610186610236366004610e75565b610649565b34801561024757600080fd5b506101866106bb565b34801561025c57600080fd5b506001546001600160a01b0316610123565b34801561027a57600080fd5b506000546001600160a01b0316610123565b34801561029857600080fd5b506101866102a7366004610f24565b6106f1565b3480156102b857600080fd5b506102cc6102c7366004610eb1565b610720565b60405161013091906114e6565b3480156102e557600080fd5b506102ef60045481565b60405161013091906115f0565b34801561030857600080fd5b50610186610317366004610e75565b6107d1565b34801561032857600080fd5b506102ef60035481565b60015461034b90849084906001600160a01b0316610720565b6103705760405162461bcd60e51b8152600401610367906115e0565b60405180910390fd5b8560ff168451146103935760405162461bcd60e51b815260040161036790611560565b600254604051630dfd0e4760e41b81526001600160a01b039091169063dfd0e470906103cb9033908a908a908a908890600401611491565b600060405180830381600087803b1580156103e557600080fd5b505af11580156103f9573d6000803e3d6000fd5b50506005546004546001600160a01b0390911692506323b872dd9150339030906104269060ff8c16611681565b6040518463ffffffff1660e01b815260040161044493929190611469565b602060405180830381600087803b15801561045e57600080fd5b505af1158015610472573d6000803e3d6000fd5b505050506040513d601f19601f820116820180604052508101906104969190610e93565b50505050505050565b6000546001600160a01b031633146104c95760405162461bcd60e51b8152600401610367906115a0565b600355565b6001546104e790849084906001600160a01b0316610720565b6105035760405162461bcd60e51b8152600401610367906115e0565b8560ff168451146105265760405162461bcd60e51b8152600401610367906115b0565b600254604051630dfd0e4760e41b81526001600160a01b039091169063dfd0e4709061055e9033908a908a908a908890600401611491565b600060405180830381600087803b15801561057857600080fd5b505af115801561058c573d6000803e3d6000fd5b505050506105a98660ff166003546105a49190611681565b61082d565b505050505050565b6000546001600160a01b031633146105db5760405162461bcd60e51b8152600401610367906115a0565b600280546001600160a01b0319166001600160a01b0392909216919091179055565b6000546001600160a01b031633146106275760405162461bcd60e51b8152600401610367906115a0565b600580546001600160a01b0319166001600160a01b0392909216919091179055565b6000546001600160a01b031633146106735760405162461bcd60e51b8152600401610367906115a0565b6001600160a01b0381166106995760405162461bcd60e51b8152600401610367906115c0565b600180546001600160a01b0319166001600160a01b0392909216919091179055565b6000546001600160a01b031633146106e55760405162461bcd60e51b8152600401610367906115a0565b6106ef600061088f565b565b6000546001600160a01b0316331461071b5760405162461bcd60e51b8152600401610367906115a0565b600455565b60008033604051602001610734919061140b565b6040516020818303038152906040528051906020012090506000610757826108df565b9050600061079b8288888080601f01602080910402602001604051908101604052809392919081815260200183838082843760009201919091525061090f92505050565b90506001600160a01b038116158015906107c65750846001600160a01b0316816001600160a01b0316145b979650505050505050565b6000546001600160a01b031633146107fb5760405162461bcd60e51b8152600401610367906115a0565b6001600160a01b0381166108215760405162461bcd60e51b815260040161036790611570565b61082a8161088f565b50565b8034101561084d5760405162461bcd60e51b8152600401610367906115d0565b8034111561082a57336108fc61086383346116a0565b6040518115909202916000818181858888f1935050505015801561088b573d6000803e3d6000fd5b5050565b600080546001600160a01b038381166001600160a01b0319831681178455604051919092169283917f8be0079c531659141344cd1fd0a4f28419497f9722a3daafe3b4186f6b6457e09190a35050565b6000816040516020016108f29190611420565b604051602081830303815290604052805190602001209050919050565b600080600061091e8585610935565b9150915061092b816109a5565b5090505b92915050565b60008082516041141561096c5760208301516040840151606085015160001a61096087828585610ad0565b9450945050505061099e565b825160401415610996576020830151604084015161098b868383610bb0565b93509350505061099e565b506000905060025b9250929050565b60008160048111156109c757634e487b7160e01b600052602160045260246000fd5b14156109d05750565b60018160048111156109f257634e487b7160e01b600052602160045260246000fd5b1415610a105760405162461bcd60e51b815260040161036790611540565b6002816004811115610a3257634e487b7160e01b600052602160045260246000fd5b1415610a505760405162461bcd60e51b815260040161036790611550565b6003816004811115610a7257634e487b7160e01b600052602160045260246000fd5b1415610a905760405162461bcd60e51b815260040161036790611580565b6004816004811115610ab257634e487b7160e01b600052602160045260246000fd5b141561082a5760405162461bcd60e51b815260040161036790611590565b6000807f7fffffffffffffffffffffffffffffff5d576e7357a4501ddfe92f46681b20a0831115610b075750600090506003610ba7565b8460ff16601b14158015610b1f57508460ff16601c14155b15610b305750600090506004610ba7565b600060018787878760405160008152602001604052604051610b5594939291906114f4565b6020604051602081039080840390855afa158015610b77573d6000803e3d6000fd5b5050604051601f1901519150506001600160a01b038116610ba057600060019250925050610ba7565b9150600090505b94509492505050565b6000806001600160ff1b03831681610bcd60ff86901c601b611669565b9050610bdb87828885610ad0565b935093505050935093915050565b6000610bfc610bf78461161a565b6115fe565b90508083825260208201905082856020860282011115610c1b57600080fd5b60005b85811015610c6157813567ffffffffffffffff811115610c3d57600080fd5b808601610c4a8982610dc5565b855250506020928301929190910190600101610c1e565b5050509392505050565b6000610c79610bf78461161a565b90508083825260208201905082856020860282011115610c9857600080fd5b60005b85811015610c6157813567ffffffffffffffff811115610cba57600080fd5b808601610cc78982610e3e565b855250506020928301929190910190600101610c9b565b6000610cec610bf78461161a565b90508083825260208201905082856020860282011115610d0b57600080fd5b60005b85811015610c615781610d218882610e6a565b8452506020928301929190910190600101610d0e565b6000610d45610bf78461163e565b905082815260208101848484011115610d5d57600080fd5b610d688482856116d3565b509392505050565b803561092f8161177a565b600082601f830112610d8c57600080fd5b8135610d9c848260208601610be9565b949350505050565b600082601f830112610db557600080fd5b8135610d9c848260208601610c6b565b600082601f830112610dd657600080fd5b8135610d9c848260208601610cde565b805161092f8161178e565b60008083601f840112610e0357600080fd5b50813567ffffffffffffffff811115610e1b57600080fd5b60208301915083600182028301111561099e57600080fd5b803561092f81611796565b600082601f830112610e4f57600080fd5b8135610d9c848260208601610d37565b803561092f8161179f565b803561092f816117a5565b600060208284031215610e8757600080fd5b6000610d9c8484610d70565b600060208284031215610ea557600080fd5b6000610d9c8484610de6565b600080600060408486031215610ec657600080fd5b833567ffffffffffffffff811115610edd57600080fd5b610ee986828701610df1565b93509350506020610efc86828701610d70565b9150509250925092565b600060208284031215610f1857600080fd5b6000610d9c8484610e33565b600060208284031215610f3657600080fd5b6000610d9c8484610e5f565b60008060008060008060a08789031215610f5b57600080fd5b6000610f678989610e6a565b965050602087013567ffffffffffffffff811115610f8457600080fd5b610f9089828a01610d7b565b955050604087013567ffffffffffffffff811115610fad57600080fd5b610fb989828a01610da4565b945050606087013567ffffffffffffffff811115610fd657600080fd5b610fe289828a01610df1565b9350935050608087013567ffffffffffffffff81111561100157600080fd5b61100d89828a01610da4565b9150509295509295509295565b6000611026838361112c565b9392505050565b6000611026838361118c565b60006110458383611402565b505060200190565b611056816116b7565b82525050565b611056611068826116b7565b61173c565b6000611077825190565b808452602084019350836020820285016110918560200190565b8060005b858110156110c657848403895281516110ae858261101a565b94506020830160209a909a0199925050600101611095565b5091979650505050505050565b60006110dd825190565b808452602084019350836020820285016110f78560200190565b8060005b858110156110c65784840389528151611114858261102d565b94506020830160209a909a01999250506001016110fb565b6000611136825190565b80845260209384019383018060005b8381101561116a5781516111598882611039565b975060208301925050600101611145565b509495945050505050565b801515611056565b80611056565b611056816116c8565b6000611196825190565b8084526020840193506111ad8185602086016116df565b601f01601f19169290920192915050565b601881526000602082017f45434453413a20696e76616c6964207369676e61747572650000000000000000815291505b5060200190565b601f81526000602082017f45434453413a20696e76616c6964207369676e6174757265206c656e67746800815291506111ee565b60088152600060208201674d6574616461746160c01b815291506111ee565b602681526000602082017f4f776e61626c653a206e6577206f776e657220697320746865207a65726f206181526564647265737360d01b602082015291505b5060400190565b602281526000602082017f45434453413a20696e76616c6964207369676e6174757265202773272076616c815261756560f01b60208201529150611287565b602281526000602082017f45434453413a20696e76616c6964207369676e6174757265202776272076616c815261756560f01b60208201529150611287565b60208082527f4f776e61626c653a2063616c6c6572206973206e6f7420746865206f776e6572910190815260006111ee565b602b81526000602082017f4d65746164617461206c656e6774682073686f756c642062652073616d65206181526a399038bab0b73a34ba3c9760a91b60208201529150611287565b600f81526000602082016e24b73b30b634b21039b4b3b732b91760891b815291506111ee565b60168152600060208201752732b2b2103a379039b2b7321036b7b9329022aa241760511b815291506111ee565b601281526000602082017124b73b30b634b21039b4b3b730ba3ab9329760711b815291506111ee565b60ff8116611056565b6000611417828461105c565b50601401919050565b7f19457468657265756d205369676e6564204d6573736167653a0a3332000000008152601c016000611452828461117d565b50602001919050565b6020810161092f828461104d565b60608101611477828661104d565b611484602083018561104d565b610d9c604083018461117d565b60a0810161149f828861104d565b6114ac6020830187611402565b81810360408301526114be818661106d565b905081810360608301526114d281856110d3565b905081810360808301526107c681846110d3565b6020810161092f8284611175565b60808101611502828761117d565b61150f6020830186611402565b61151c604083018561117d565b611529606083018461117d565b95945050505050565b6020810161092f8284611183565b6020808252810161092f816111be565b6020808252810161092f816111f5565b6020808252810161092f81611229565b6020808252810161092f81611248565b6020808252810161092f8161128e565b6020808252810161092f816112cd565b6020808252810161092f8161130c565b6020808252810161092f8161133e565b6020808252810161092f81611386565b6020808252810161092f816113ac565b6020808252810161092f816113d9565b6020810161092f828461117d565b600061160960405190565b9050611615828261170f565b919050565b600067ffffffffffffffff82111561163457611634611764565b5060209081020190565b600067ffffffffffffffff82111561165857611658611764565b601f19601f83011660200192915050565b6000821982111561167c5761167c61174e565b500190565b600081600019048311821515161561169b5761169b61174e565b500290565b6000828210156116b2576116b261174e565b500390565b60006001600160a01b03821661092f565b600061092f826116b7565b82818337506000910152565b60005b838110156116fa5781810151838201526020016116e2565b83811115611709576000848401525b50505050565b601f19601f830116810181811067ffffffffffffffff8211171561173557611735611764565b6040525050565b600061092f82600061092f8260601b90565b634e487b7160e01b600052601160045260246000fd5b634e487b7160e01b600052604160045260246000fd5b611783816116b7565b811461082a57600080fd5b801515611783565b611783816116c8565b80611783565b60ff811661178356fea2646970667358221220bf69095aaada6250a480a183c4852698937973f99fd80e8306c46af0a77d94ab64736f6c63430008040033",
  "devdoc": {
    "kind": "dev",
    "methods": {
      "owner()": {
        "details": "Returns the address of the current owner."
      },
      "renounceOwnership()": {
        "details": "Leaves the contract without owner. It will not be possible to call `onlyOwner` functions anymore. Can only be called by the current owner. NOTE: Renouncing ownership will leave the contract without an owner, thereby removing any functionality that is only available to the owner."
      },
      "transferOwnership(address)": {
        "details": "Transfers ownership of the contract to a new account (`newOwner`). Can only be called by the current owner."
      }
    },
    "version": 1
  },
  "userdoc": {
    "kind": "user",
    "methods": {},
    "version": 1
  },
  "storageLayout": {
    "storage": [
      {
        "astId": 7,
        "contract": "contracts/AvatarSaleManager.sol:AvatarSaleManager",
        "label": "_owner",
        "offset": 0,
        "slot": "0",
        "type": "t_address"
      },
      {
        "astId": 2542,
        "contract": "contracts/AvatarSaleManager.sol:AvatarSaleManager",
        "label": "signer",
        "offset": 0,
        "slot": "1",
        "type": "t_address"
      },
      {
        "astId": 2544,
        "contract": "contracts/AvatarSaleManager.sol:AvatarSaleManager",
        "label": "nftAddress",
        "offset": 0,
        "slot": "2",
        "type": "t_address"
      },
      {
        "astId": 2546,
        "contract": "contracts/AvatarSaleManager.sol:AvatarSaleManager",
        "label": "priceInEth",
        "offset": 0,
        "slot": "3",
        "type": "t_uint256"
      },
      {
        "astId": 2548,
        "contract": "contracts/AvatarSaleManager.sol:AvatarSaleManager",
        "label": "priceInToken",
        "offset": 0,
        "slot": "4",
        "type": "t_uint256"
      },
      {
        "astId": 2551,
        "contract": "contracts/AvatarSaleManager.sol:AvatarSaleManager",
        "label": "paymentToken",
        "offset": 0,
        "slot": "5",
        "type": "t_contract(IERC20)222"
      }
    ],
    "types": {
      "t_address": {
        "encoding": "inplace",
        "label": "address",
        "numberOfBytes": "20"
      },
      "t_contract(IERC20)222": {
        "encoding": "inplace",
        "label": "contract IERC20",
        "numberOfBytes": "20"
      },
      "t_uint256": {
        "encoding": "inplace",
        "label": "uint256",
        "numberOfBytes": "32"
      }
    }
  }
}