{
  "address": "0x02cD60AD9Db832B2FE64fEDf273Db0aD3DbCB9ea",
  "abi": [
    {
      "inputs": [
        {
          "internalType": "address",
          "name": "_dragonNFTAddress",
          "type": "address"
        }
      ],
      "stateMutability": "nonpayable",
      "type": "constructor"
    },
    {
      "anonymous": false,
      "inputs": [
        {
          "indexed": true,
          "internalType": "address",
          "name": "previousOwner",
          "type": "address"
        },
        {
          "indexed": true,
          "internalType": "address",
          "name": "newOwner",
          "type": "address"
        }
      ],
      "name": "OwnershipTransferred",
      "type": "event"
    },
    {
      "inputs": [
        {
          "internalType": "uint256",
          "name": "rentId",
          "type": "uint256"
        },
        {
          "internalType": "uint256",
          "name": "landId",
          "type": "uint256"
        }
      ],
      "name": "borrowDragon",
      "outputs": [],
      "stateMutability": "payable",
      "type": "function"
    },
    {
      "inputs": [],
      "name": "breedCount",
      "outputs": [
        {
          "internalType": "uint256",
          "name": "",
          "type": "uint256"
        }
      ],
      "stateMutability": "view",
      "type": "function"
    },
    {
      "inputs": [
        {
          "internalType": "uint256",
          "name": "breedId",
          "type": "uint256"
        }
      ],
      "name": "breeding",
      "outputs": [],
      "stateMutability": "nonpayable",
      "type": "function"
    },
    {
      "inputs": [
        {
          "internalType": "uint256",
          "name": "breedId",
          "type": "uint256"
        }
      ],
      "name": "cancelBreeding",
      "outputs": [],
      "stateMutability": "nonpayable",
      "type": "function"
    },
    {
      "inputs": [
        {
          "internalType": "uint256",
          "name": "rentId",
          "type": "uint256"
        }
      ],
      "name": "cancelRentOrder",
      "outputs": [],
      "stateMutability": "nonpayable",
      "type": "function"
    },
    {
      "inputs": [
        {
          "internalType": "uint256",
          "name": "tokenId",
          "type": "uint256"
        }
      ],
      "name": "createNewBreedLandWithSingleDragon",
      "outputs": [],
      "stateMutability": "nonpayable",
      "type": "function"
    },
    {
      "inputs": [
        {
          "internalType": "uint256",
          "name": "tokenId",
          "type": "uint256"
        },
        {
          "internalType": "uint256",
          "name": "fee",
          "type": "uint256"
        }
      ],
      "name": "createRentOrder",
      "outputs": [],
      "stateMutability": "nonpayable",
      "type": "function"
    },
    {
      "inputs": [],
      "name": "dragonNFTAddress",
      "outputs": [
        {
          "internalType": "address",
          "name": "",
          "type": "address"
        }
      ],
      "stateMutability": "view",
      "type": "function"
    },
    {
      "inputs": [
        {
          "internalType": "address",
          "name": "owner",
          "type": "address"
        }
      ],
      "name": "getBreedLands",
      "outputs": [
        {
          "components": [
            {
              "internalType": "uint256",
              "name": "id",
              "type": "uint256"
            },
            {
              "internalType": "address",
              "name": "owner",
              "type": "address"
            },
            {
              "internalType": "uint256",
              "name": "father",
              "type": "uint256"
            },
            {
              "internalType": "uint256",
              "name": "mother",
              "type": "uint256"
            },
            {
              "internalType": "address",
              "name": "fatherOwner",
              "type": "address"
            },
            {
              "internalType": "address",
              "name": "motherOwner",
              "type": "address"
            },
            {
              "internalType": "uint256",
              "name": "startAt",
              "type": "uint256"
            },
            {
              "internalType": "bool",
              "name": "pending",
              "type": "bool"
            },
            {
              "internalType": "bool",
              "name": "isRent",
              "type": "bool"
            },
            {
              "internalType": "uint256",
              "name": "rentOrder",
              "type": "uint256"
            }
          ],
          "internalType": "struct DragonBreedingManager.BreedLand[]",
          "name": "",
          "type": "tuple[]"
        }
      ],
      "stateMutability": "view",
      "type": "function"
    },
    {
      "inputs": [],
      "name": "getRentOrders",
      "outputs": [
        {
          "components": [
            {
              "internalType": "uint256",
              "name": "id",
              "type": "uint256"
            },
            {
              "internalType": "address",
              "name": "owner",
              "type": "address"
            },
            {
              "internalType": "uint256",
              "name": "tokenId",
              "type": "uint256"
            },
            {
              "internalType": "uint256",
              "name": "fee",
              "type": "uint256"
            },
            {
              "internalType": "bool",
              "name": "enable",
              "type": "bool"
            }
          ],
          "internalType": "struct DragonBreedingManager.RentOrder[]",
          "name": "",
          "type": "tuple[]"
        }
      ],
      "stateMutability": "view",
      "type": "function"
    },
    {
      "inputs": [
        {
          "internalType": "uint256",
          "name": "rentId",
          "type": "uint256"
        }
      ],
      "name": "isRentOrderAvailable",
      "outputs": [
        {
          "internalType": "bool",
          "name": "",
          "type": "bool"
        }
      ],
      "stateMutability": "view",
      "type": "function"
    },
    {
      "inputs": [
        {
          "internalType": "uint256",
          "name": "tokenId",
          "type": "uint256"
        }
      ],
      "name": "isRentable",
      "outputs": [
        {
          "internalType": "bool",
          "name": "",
          "type": "bool"
        }
      ],
      "stateMutability": "view",
      "type": "function"
    },
    {
      "inputs": [],
      "name": "owner",
      "outputs": [
        {
          "internalType": "address",
          "name": "",
          "type": "address"
        }
      ],
      "stateMutability": "view",
      "type": "function"
    },
    {
      "inputs": [],
      "name": "renounceOwnership",
      "outputs": [],
      "stateMutability": "nonpayable",
      "type": "function"
    },
    {
      "inputs": [],
      "name": "rentCount",
      "outputs": [
        {
          "internalType": "uint256",
          "name": "",
          "type": "uint256"
        }
      ],
      "stateMutability": "view",
      "type": "function"
    },
    {
      "inputs": [
        {
          "internalType": "uint256",
          "name": "fatherTokenId",
          "type": "uint256"
        },
        {
          "internalType": "uint256",
          "name": "motherTokenId",
          "type": "uint256"
        }
      ],
      "name": "requestBreeding",
      "outputs": [],
      "stateMutability": "nonpayable",
      "type": "function"
    },
    {
      "inputs": [
        {
          "internalType": "address",
          "name": "newOwner",
          "type": "address"
        }
      ],
      "name": "transferOwnership",
      "outputs": [],
      "stateMutability": "nonpayable",
      "type": "function"
    }
  ],
  "transactionHash": "0x1db88f2b31f357885359fd1f8ebee4fb31ad4e3c722d54294d661d08d58daeda",
  "args": [
    "0x1BcefaDf8213Fb9Fc6418edF99E106bd61272744"
  ],
  "numDeployments": 1,
  "solcInputHash": "b474e0d835221309c977257c7f754341",
  "bytecode": "0x608060405262093a8061011c556212750061011d5561011e805460ff191660031790553480156200002f57600080fd5b50604051620034ea380380620034ea833981016040819052620000529162000188565b6200005d3362000125565b6001602081905260007fa6eef7e35abe7026729641147f7915573c7e97b47efa546f5f6e3230263bcb4981905560037fcc69885fda6bcc1a4ace058b4a62bf5e179ea78fd58a1ccd71c22cc9b688792f81905560057fd9d16d34ffb15ba3a3d852f0d403e2ce1d691fb54de27ac87cd2f993f3ec330f559052600a7f7dfe757ecd65cbd7922a9c0161e935dd7fdbcc0e999689c7d31633896b1fc60b5561011a5561011b80546001600160a01b0319166001600160a01b0392909216919091179055620001dd565b600080546001600160a01b038381166001600160a01b0319831681178455604051919092169283917f8be0079c531659141344cd1fd0a4f28419497f9722a3daafe3b4186f6b6457e09190a35050565b80516200018281620001c3565b92915050565b6000602082840312156200019b57600080fd5b6000620001a9848462000175565b949350505050565b60006001600160a01b03821662000182565b620001ce81620001b1565b8114620001da57600080fd5b50565b6132fd80620001ed6000396000f3fe6080604052600436106100fe5760003560e01c806390d075a311610095578063b1b7c57b11610064578063b1b7c57b14610295578063c392598d146102c2578063c4418694146102e2578063e608eb1f14610302578063f2fde38b1461031957600080fd5b806390d075a3146102065780639c2d14d514610228578063aacb088014610248578063abdfe8de1461026857600080fd5b8063715018a6116100d1578063715018a61461018f5780637acea57f146101a45780637c2654f6146101c45780638da5cb5b146101e857600080fd5b806328b30f2a146101035780632938ad50146101255780635e3af92f1461015c57806367edd7cb1461017c575b600080fd5b34801561010f57600080fd5b5061012361011e3660046128a4565b610339565b005b34801561013157600080fd5b5061011b54610146906001600160a01b031681565b6040516101539190612f57565b60405180910390f35b34801561016857600080fd5b506101236101773660046128a4565b610859565b61012361018a3660046128c2565b610c65565b34801561019b57600080fd5b50610123611277565b3480156101b057600080fd5b506101236101bf3660046128c2565b6112ad565b3480156101d057600080fd5b506101db6101245481565b6040516101539190613128565b3480156101f457600080fd5b506000546001600160a01b0316610146565b34801561021257600080fd5b5061021b611544565b6040516101539190612fb9565b34801561023457600080fd5b506101236102433660046128a4565b61167c565b34801561025457600080fd5b506101236102633660046128a4565b611887565b34801561027457600080fd5b506102886102833660046128a4565b6119e9565b6040516101539190612fca565b3480156102a157600080fd5b506102b56102b0366004612815565b611aa9565b6040516101539190612fa8565b3480156102ce57600080fd5b506102886102dd3660046128a4565b611c94565b3480156102ee57600080fd5b506101236102fd3660046128c2565b611d72565b34801561030e57600080fd5b506101db6101235481565b34801561032557600080fd5b50610123610334366004612815565b6124af565b61011b546040516331a9108f60e11b815233916001600160a01b031690636352211e9061036a908590600401613128565b60206040518083038186803b15801561038257600080fd5b505afa158015610396573d6000803e3d6000fd5b505050506040513d601f19601f820116820180604052508101906103ba9190612833565b6001600160a01b0316146103e95760405162461bcd60e51b81526004016103e090612fe8565b60405180910390fd5b61011e5460ff16600381111561040f57634e487b7160e01b600052602160045260246000fd5b61011b5460405163071b804560e11b81526001600160a01b0390911690630e37008a90610440908590600401613128565b60206040518083038186803b15801561045857600080fd5b505afa15801561046c573d6000803e3d6000fd5b505050506040513d601f19601f820116820180604052508101906104909190612851565b60038111156104af57634e487b7160e01b600052602160045260246000fd5b10156104cd5760405162461bcd60e51b81526004016103e090613068565b61011b5460405163e0bb933b60e01b81526000916001600160a01b03169063e0bb933b906104ff908590600401613128565b60006040518083038186803b15801561051757600080fd5b505afa15801561052b573d6000803e3d6000fd5b505050506040513d6000823e601f3d908101601f19168201604052610553919081019061286f565b905060018160400151600181111561057b57634e487b7160e01b600052602160045260246000fd5b14156105b3574261011c548260a00151610595919061319e565b11156105b35760405162461bcd60e51b81526004016103e090613008565b6101235460008381526101226020908152604080832084905580516101408101825293845233918401919091528201908360400151600181111561060757634e487b7160e01b600052602160045260246000fd5b14610613576000610615565b835b815260200160018360400151600181111561064057634e487b7160e01b600052602160045260246000fd5b1461064c57600061064e565b835b815260200160008360400151600181111561067957634e487b7160e01b600052602160045260246000fd5b14610685576000610687565b335b6001600160a01b031681526020016001836040015160018111156106bb57634e487b7160e01b600052602160045260246000fd5b146106c75760006106c9565b335b6001600160a01b0316815260200160008152602001600015158152602001600015158152602001600081525061011f610123548154811061071a57634e487b7160e01b600052603260045260246000fd5b6000918252602080832084516009909302019182558301516001820180546001600160a01b039283166001600160a01b0319918216179091556040850151600284015560608501516003840155608085015160048401805491841691831691909117905560a085015160058401805491909316911617905560c0830151600682015560e08301516007820180546101008087015115150261ff00199315159390931661ffff1990911617919091179055610120909201516008909201919091556101238054916107e983613237565b909155505061011b546040516323b872dd60e01b81526001600160a01b03909116906323b872dd9061082390339030908790600401612f65565b600060405180830381600087803b15801561083d57600080fd5b505af1158015610851573d6000803e3d6000fd5b505050505050565b61012354811061087b5760405162461bcd60e51b81526004016103e090613038565b600061011f828154811061089f57634e487b7160e01b600052603260045260246000fd5b600091825260209091206001600990920201908101549091506001600160a01b03163314806108da575060048101546001600160a01b031633145b806108f1575060058101546001600160a01b031633145b61090d5760405162461bcd60e51b81526004016103e0906130e8565b4261011d548260060154610921919061319e565b111561093f5760405162461bcd60e51b81526004016103e090613098565b600781015460ff166109635760405162461bcd60e51b81526004016103e0906130f8565b61011b5460018201546002830154600384015460405163029b093760e31b81526001600160a01b03948516946314d849b8946109a6949116929091600401612f8d565b600060405180830381600087803b1580156109c057600080fd5b505af11580156109d4573d6000803e3d6000fd5b505050506007810154610100900460ff1615610b33576000610120826008015481548110610a1257634e487b7160e01b600052603260045260246000fd5b6000918252602090912060026005909202018181015460048201805460ff1916600117905591840154909250811415610abc5761011b54600584015460038501546040516323b872dd60e01b81526001600160a01b03938416936323b872dd93610a859330939290911691600401612f65565b600060405180830381600087803b158015610a9f57600080fd5b505af1158015610ab3573d6000803e3d6000fd5b50505050610b2c565b61011b5460048085015460028601546040516323b872dd60e01b81526001600160a01b03948516946323b872dd94610af994309492169201612f65565b600060405180830381600087803b158015610b1357600080fd5b505af1158015610b27573d6000803e3d6000fd5b505050505b5050610c13565b61011b5460048083015460028401546040516323b872dd60e01b81526001600160a01b03948516946323b872dd94610b7094309492169201612f65565b600060405180830381600087803b158015610b8a57600080fd5b505af1158015610b9e573d6000803e3d6000fd5b505061011b54600584015460038501546040516323b872dd60e01b81526001600160a01b0393841695506323b872dd9450610be0933093169190600401612f65565b600060405180830381600087803b158015610bfa57600080fd5b505af1158015610c0e573d6000803e3d6000fd5b505050505b600060028201819055600382018190556001820180546001600160a01b031990811690915560078301805460ff1916905560068301919091556004820180548216905560059091018054909116905550565b610124548210610c875760405162461bcd60e51b81526004016103e0906130b8565b610c90826119e9565b610cac5760405162461bcd60e51b81526004016103e0906130d8565b60006101208381548110610cd057634e487b7160e01b600052603260045260246000fd5b6000918252602090912061011b54600590920201600281015460405163020604bf60e21b815291935030926001600160a01b03169163081812fc91610d1791600401613128565b60206040518083038186803b158015610d2f57600080fd5b505afa158015610d43573d6000803e3d6000fd5b505050506040513d601f19601f82011682018060405250810190610d679190612833565b6001600160a01b031614610d8d5760405162461bcd60e51b81526004016103e0906130a8565b600181015461011b5460028301546040516331a9108f60e11b81526001600160a01b039384169390921691636352211e91610dca91600401613128565b60206040518083038186803b158015610de257600080fd5b505afa158015610df6573d6000803e3d6000fd5b505050506040513d601f19601f82011682018060405250810190610e1a9190612833565b6001600160a01b031614610e405760405162461bcd60e51b81526004016103e090612fd8565b61011e5460ff166003811115610e6657634e487b7160e01b600052602160045260246000fd5b61011b54600283015460405163071b804560e11b81526001600160a01b0390921691630e37008a91610e9a91600401613128565b60206040518083038186803b158015610eb257600080fd5b505afa158015610ec6573d6000803e3d6000fd5b505050506040513d601f19601f82011682018060405250810190610eea9190612851565b6003811115610f0957634e487b7160e01b600052602160045260246000fd5b1015610f275760405162461bcd60e51b81526004016103e090613068565b61011b54600282015460405163e0bb933b60e01b81526000926001600160a01b03169163e0bb933b91610f5d9190600401613128565b60006040518083038186803b158015610f7557600080fd5b505afa158015610f89573d6000803e3d6000fd5b505050506040513d6000823e601f3d908101601f19168201604052610fb1919081019061286f565b9050600061011f8481548110610fd757634e487b7160e01b600052603260045260246000fd5b60009182526020909120600990910201600481015460058201549192506001600160a01b0390811691168115158061101757506001600160a01b03811615155b6110335760405162461bcd60e51b81526004016103e090612ff8565b6001600160a01b038216158061105057506001600160a01b038116155b61106c5760405162461bcd60e51b81526004016103e090612ff8565b6001600160a01b038216156110f3576001846040015160018111156110a157634e487b7160e01b600052602160045260246000fd5b146110be5760405162461bcd60e51b81526004016103e090613058565b60018501546005840180546001600160a01b0319166001600160a01b0390921691909117905560028501546003840155611167565b60008460400151600181111561111957634e487b7160e01b600052602160045260246000fd5b146111365760405162461bcd60e51b81526004016103e090613058565b60018501546004840180546001600160a01b0319166001600160a01b03909216919091179055600280860154908401555b611174856003015461250b565b6003850154156111c057600185015460038601546040516001600160a01b039092169181156108fc0291906000818181858888f193505050501580156111be573d6000803e3d6000fd5b505b61011b54600186015460028701546040516323b872dd60e01b81526001600160a01b03938416936323b872dd936111ff93911691309190600401612f65565b600060405180830381600087803b15801561121957600080fd5b505af115801561122d573d6000803e3d6000fd5b505084546002880154600090815261012260205260409020555050426006840155505060078101805461ffff191661010117905560080193909355600401805460ff191690555050565b6000546001600160a01b031633146112a15760405162461bcd60e51b81526004016103e0906130c8565b6112ab600061256d565b565b61011b5460405163020604bf60e21b815230916001600160a01b03169063081812fc906112de908690600401613128565b60206040518083038186803b1580156112f657600080fd5b505afa15801561130a573d6000803e3d6000fd5b505050506040513d601f19601f8201168201806040525081019061132e9190612833565b6001600160a01b0316146113545760405162461bcd60e51b81526004016103e0906130a8565b61135d82611c94565b6113795760405162461bcd60e51b81526004016103e090613078565b61011e5460ff16600381111561139f57634e487b7160e01b600052602160045260246000fd5b61011b5460405163071b804560e11b81526001600160a01b0390911690630e37008a906113d0908690600401613128565b60206040518083038186803b1580156113e857600080fd5b505afa1580156113fc573d6000803e3d6000fd5b505050506040513d601f19601f820116820180604052508101906114209190612851565b600381111561143f57634e487b7160e01b600052602160045260246000fd5b101561145d5760405162461bcd60e51b81526004016103e090613068565b6101245460008381526101216020908152604091829020839055815160a0810183528381523391810191909152908101849052606081018390526001608082015261012080549192909181106114c357634e487b7160e01b600052603260045260246000fd5b600091825260208083208451600593909302019182558301516001820180546001600160a01b0319166001600160a01b0390921691909117905560408301516002820155606083015160038201556080909201516004909201805460ff19169215159290921790915561012480549161153b83613237565b91905055505050565b606060006101245467ffffffffffffffff81111561157257634e487b7160e01b600052604160045260246000fd5b6040519080825280602002602001820160405280156115e057816020015b6115cd6040518060a001604052806000815260200160006001600160a01b0316815260200160008152602001600081526020016000151581525090565b8152602001906001900390816115905790505b5090506000805b825181101561167457600083828151811061161257634e487b7160e01b600052603260045260246000fd5b60200260200101519050806080015115611661578084848151811061164757634e487b7160e01b600052603260045260246000fd5b6020026020010181905250828061165d90613237565b9350505b508061166c81613237565b9150506115e7565b509092915050565b61012354811061169e5760405162461bcd60e51b81526004016103e090613038565b600061011f82815481106116c257634e487b7160e01b600052603260045260246000fd5b600091825260209091206001600990920201908101549091506001600160a01b031633146117025760405162461bcd60e51b81526004016103e090613048565b6007810154610100900460ff16156117b157600061012082600801548154811061173c57634e487b7160e01b600052603260045260246000fd5b600091825260209091206004600590920201908101805460ff191660011790556002808201549084015491925090811415610abc5761011b54600584015460038501546040516323b872dd60e01b81526001600160a01b03938416936323b872dd93610a859330939290911691600401612f65565b60048101546001600160a01b0316156118345761011b5460048083015460028401546040516323b872dd60e01b81526001600160a01b03948516946323b872dd9461180194309492169201612f65565b600060405180830381600087803b15801561181b57600080fd5b505af115801561182f573d6000803e3d6000fd5b505050505b60058101546001600160a01b031615610c135761011b54600582015460038301546040516323b872dd60e01b81526001600160a01b03938416936323b872dd93610be09330939290911691600401612f65565b6101245481106118a95760405162461bcd60e51b81526004016103e0906130b8565b600061012082815481106118cd57634e487b7160e01b600052603260045260246000fd5b90600052602060002090600502019050600061011f610122600084600201548152602001908152602001600020548154811061191957634e487b7160e01b600052603260045260246000fd5b6000918252602091829020604080516101408101825260099093029091018054835260018101546001600160a01b039081169484019490945260028101549183019190915260038101546060830152600481015483166080830152600581015490921660a0820152600682015460c0820152600782015460ff80821615801560e08501526101009283900490911615159183019190915260089092015461012082015291506119da5760405162461bcd60e51b81526004016103e090613118565b50600401805460ff1916905550565b6000610124548210611a0d5760405162461bcd60e51b81526004016103e090613088565b60006101208381548110611a3157634e487b7160e01b600052603260045260246000fd5b60009182526020918290206040805160a08101825260059093029091018054835260018101546001600160a01b0316938301939093526002830154908201526003820154606082015260049091015460ff1615801560808301819052919250611aa25750611aa28160400151611c94565b9392505050565b606060006101235467ffffffffffffffff811115611ad757634e487b7160e01b600052604160045260246000fd5b604051908082528060200260200182016040528015611b5657816020015b604080516101408101825260008082526020808301829052928201819052606082018190526080820181905260a0820181905260c0820181905260e0820181905261010082018190526101208201528252600019909201910181611af55790505b5090506000805b61011f54811015611c8b57600061011f8281548110611b8c57634e487b7160e01b600052603260045260246000fd5b6000918252602091829020604080516101408101825260099093029091018054835260018101546001600160a01b03908116948401859052600282015492840192909252600381015460608401526004810154821660808401526005810154821660a0840152600681015460c0840152600781015460ff808216151560e08601526101009182900416151590840152600801546101208301529092508716148015611c3857508060e001515b15611c785780848481518110611c5e57634e487b7160e01b600052603260045260246000fd5b60200260200101819052508280611c7490613237565b9350505b5080611c8381613237565b915050611b5d565b50909392505050565b61011b5460405163e0bb933b60e01b815260009182916001600160a01b039091169063e0bb933b90611cca908690600401613128565b60006040518083038186803b158015611ce257600080fd5b505afa158015611cf6573d6000803e3d6000fd5b505050506040513d6000823e601f3d908101601f19168201604052611d1e919081019061286f565b9050600081604001516001811115611d4657634e487b7160e01b600052602160045260246000fd5b1415611d555750600192915050565b4261011c548260a00151611d69919061319e565b11159392505050565b61011b546040516331a9108f60e11b815233916001600160a01b031690636352211e90611da3908690600401613128565b60206040518083038186803b158015611dbb57600080fd5b505afa158015611dcf573d6000803e3d6000fd5b505050506040513d601f19601f82011682018060405250810190611df39190612833565b6001600160a01b031614611e195760405162461bcd60e51b81526004016103e090612fe8565b61011b546040516331a9108f60e11b815233916001600160a01b031690636352211e90611e4a908590600401613128565b60206040518083038186803b158015611e6257600080fd5b505afa158015611e76573d6000803e3d6000fd5b505050506040513d601f19601f82011682018060405250810190611e9a9190612833565b6001600160a01b031614611ec05760405162461bcd60e51b81526004016103e090612fe8565b61011e5460ff166003811115611ee657634e487b7160e01b600052602160045260246000fd5b61011b5460405163071b804560e11b81526001600160a01b0390911690630e37008a90611f17908690600401613128565b60206040518083038186803b158015611f2f57600080fd5b505afa158015611f43573d6000803e3d6000fd5b505050506040513d601f19601f82011682018060405250810190611f679190612851565b6003811115611f8657634e487b7160e01b600052602160045260246000fd5b1015611fa45760405162461bcd60e51b81526004016103e090613068565b61011e5460ff166003811115611fca57634e487b7160e01b600052602160045260246000fd5b61011b5460405163071b804560e11b81526001600160a01b0390911690630e37008a90611ffb908590600401613128565b60206040518083038186803b15801561201357600080fd5b505afa158015612027573d6000803e3d6000fd5b505050506040513d601f19601f8201168201806040525081019061204b9190612851565b600381111561206a57634e487b7160e01b600052602160045260246000fd5b10156120885760405162461bcd60e51b81526004016103e090613068565b61011b5460405163e0bb933b60e01b81526000916001600160a01b03169063e0bb933b906120ba908690600401613128565b60006040518083038186803b1580156120d257600080fd5b505afa1580156120e6573d6000803e3d6000fd5b505050506040513d6000823e601f3d908101601f1916820160405261210e919081019061286f565b61011b5460405163e0bb933b60e01b81529192506000916001600160a01b039091169063e0bb933b90612145908690600401613128565b60006040518083038186803b15801561215d57600080fd5b505afa158015612171573d6000803e3d6000fd5b505050506040513d6000823e601f3d908101601f19168201604052612199919081019061286f565b9050806040015160018111156121bf57634e487b7160e01b600052602160045260246000fd5b826040015160018111156121e357634e487b7160e01b600052602160045260246000fd5b14156122015760405162461bcd60e51b81526004016103e090613028565b600080808460400151600181111561222957634e487b7160e01b600052602160045260246000fd5b141561223957508390508461223f565b50849050835b4261011c548460a00151612253919061319e565b11156122715760405162461bcd60e51b81526004016103e090613008565b6101235460008781526101226020908152604080832084905588835280832084905580516101408101825284815233928101839052908101859052606081018690526080810182905260a08101919091524260c0820152600160e0820152610100810182905261012081019190915261011f805491929091811061230557634e487b7160e01b600052603260045260246000fd5b6000918252602080832084516009909302019182558301516001820180546001600160a01b039283166001600160a01b0319918216179091556040850151600284015560608501516003840155608085015160048401805491841691831691909117905560a085015160058401805491909316911617905560c0830151600682015560e08301516007820180546101008087015115150261ff00199315159390931661ffff1990911617919091179055610120909201516008909201919091556101238054916123d483613237565b909155505061011b546040516323b872dd60e01b81526001600160a01b03909116906323b872dd9061240e90339030908b90600401612f65565b600060405180830381600087803b15801561242857600080fd5b505af115801561243c573d6000803e3d6000fd5b505061011b546040516323b872dd60e01b81526001600160a01b0390911692506323b872dd915061247590339030908a90600401612f65565b600060405180830381600087803b15801561248f57600080fd5b505af11580156124a3573d6000803e3d6000fd5b50505050505050505050565b6000546001600160a01b031633146124d95760405162461bcd60e51b81526004016103e0906130c8565b6001600160a01b0381166124ff5760405162461bcd60e51b81526004016103e090613018565b6125088161256d565b50565b8034101561252b5760405162461bcd60e51b81526004016103e090613108565b8034111561250857336108fc61254183346131b6565b6040518115909202916000818181858888f19350505050158015612569573d6000803e3d6000fd5b5050565b600080546001600160a01b038381166001600160a01b0319831681178455604051919092169283917f8be0079c531659141344cd1fd0a4f28419497f9722a3daafe3b4186f6b6457e09190a35050565b60006125d06125cb84613152565b613136565b905080828560208602820111156125e657600080fd5b60005b8581101561261257816125fc888261280a565b84525060209283019291909101906001016125e9565b5050509392505050565b600061262a6125cb84613173565b90508281526020810184848401111561264257600080fd5b61264d8482856131de565b509392505050565b80356126608161327e565b92915050565b80516126608161327e565b600082601f83011261268257600080fd5b600761268f8482856125bd565b949350505050565b805161266081613292565b80516126608161329a565b8051612660816132a7565b8051612660816132b4565b600082601f8301126126d457600080fd5b815161268f84826020860161261c565b600061022082840312156126f757600080fd5b612702610160613136565b9050600061271084846126a2565b8252506020612721848483016126ad565b6020830152506040612735848285016126b8565b60408301525060606127498482850161280a565b606083015250608061275d84828501612697565b60808301525060a06127718482850161280a565b60a08301525060c06127858482850161280a565b60c08301525060e06127998482850161280a565b60e08301525061010082015167ffffffffffffffff8111156127ba57600080fd5b6127c6848285016126c3565b610100830152506101206127dc84828501612671565b610120830152506102006127f28482850161280a565b6101408301525092915050565b8035612660816132c1565b8051612660816132c1565b60006020828403121561282757600080fd5b600061268f8484612655565b60006020828403121561284557600080fd5b600061268f8484612666565b60006020828403121561286357600080fd5b600061268f84846126a2565b60006020828403121561288157600080fd5b815167ffffffffffffffff81111561289857600080fd5b61268f848285016126e4565b6000602082840312156128b657600080fd5b600061268f84846127ff565b600080604083850312156128d557600080fd5b60006128e185856127ff565b92505060206128f2858286016127ff565b9150509250929050565b60006129088383612e2d565b50506101400190565b600061291d8383612ef4565b505060a00190565b61292e816131cd565b82525050565b600061293e825190565b80845260209384019383018060005b8381101561297257815161296188826128fc565b97506020830192505060010161294d565b509495945050505050565b6000612987825190565b80845260209384019383018060005b838110156129725781516129aa8882612911565b975060208301925050600101612996565b80151561292e565b602981526000602082017f52656e7420647261676f6e2773206f776e65727368697020686173206265656e8152681031b430b733b2b21760b91b602082015291505b5060400190565b60208082527f596f7520617265206e6f74206f776e6572206f66207468697320746f6b656e2e910190815260005b5060200190565b602181526000602082017f54686973206272656564206c616e64206973206e6f7420617661696c61626c658152601760f91b60208201529150612a05565b602481526000602082017f4e6f7420617661696c61626c652072656272656564696e6720666f722066656d81526330b6329760e11b60208201529150612a05565b602681526000602082017f4f776e61626c653a206e6577206f776e657220697320746865207a65726f206181526564647265737360d01b60208201529150612a05565b601a81526000602082017f47656e6465722073686f756c64206265206f70706f736974652e00000000000081529150612a3a565b601181526000602082017024b73b30b634b210313932b2b21024a21760791b81529150612a3a565b602481526000602082017f596f7520617265206e6f7420746865206f776e6572206f66207468697320627281526332b2b21760e11b60208201529150612a05565b602481526000602082017f447261676f6e732073686f756c642068617665206f70706f736974652067656e8152633232b91760e11b60208201529150612a05565b601981526000602082017f5468697320647261676f6e20697320746f6f20796f756e672e0000000000000081529150612a3a565b60208082527f5468697320647261676f6e206973206e6f742072656e7461626c65206e6f772e91019081526000612a3a565b601081526000602082016f24b73b30b634b2102932b73a1024a21760811b81529150612a3a565b601181526000602082017029ba34b6361034b731bab130ba34b7339760791b81529150612a3a565b600d81526000602082016c2737ba1030b8383937bb32b21760991b81529150612a3a565b601081526000602082016f24b73b30b634b2103932b73a1034b21760811b81529150612a3a565b60208082527f4f776e61626c653a2063616c6c6572206973206e6f7420746865206f776e657291019081526000612a3a565b602581526000602082017f546869732072656e74206f72646572206973206e6f7420617661696c61626c65815264103737bb9760d91b60208201529150612a05565b602e81526000602082017f596f7520617265206e6f7420746865206f776e6572206f7220706172656e742081526d37b3103a3434b990313932b2b21760911b60208201529150612a05565b601a81526000602082017f596f75206e65656420746f20726571756573742066697273742e00000000000081529150612a3a565b60168152600060208201752732b2b2103a379039b2b7321036b7b9329022aa241760511b81529150612a3a565b6015815260006020820174223930b3b7b71034b99034b7103832b73234b7339760591b81529150612a3a565b8051610140830190612e3f8482612f51565b506020820151612e526020850182612925565b506040820151612e656040850182612f51565b506060820151612e786060850182612f51565b506080820151612e8b6080850182612925565b5060a0820151612e9e60a0850182612925565b5060c0820151612eb160c0850182612f51565b5060e0820151612ec460e08501826129bb565b50610100820151612ed96101008501826129bb565b50610120820151612eee610120850182612f51565b50505050565b805160a0830190612f058482612f51565b506020820151612f186020850182612925565b506040820151612f2b6040850182612f51565b506060820151612f3e6060850182612f51565b506080820151612eee60808501826129bb565b8061292e565b602081016126608284612925565b60608101612f738286612925565b612f806020830185612925565b61268f6040830184612f51565b60608101612f9b8286612925565b612f806020830185612f51565b60208082528101611aa28184612934565b60208082528101611aa2818461297d565b6020810161266082846129bb565b60208082528101612660816129c3565b6020808252810161266081612a0c565b6020808252810161266081612a41565b6020808252810161266081612a7f565b6020808252810161266081612ac0565b6020808252810161266081612b03565b6020808252810161266081612b37565b6020808252810161266081612b5f565b6020808252810161266081612ba0565b6020808252810161266081612be1565b6020808252810161266081612c15565b6020808252810161266081612c47565b6020808252810161266081612c6e565b6020808252810161266081612c96565b6020808252810161266081612cba565b6020808252810161266081612ce1565b6020808252810161266081612d13565b6020808252810161266081612d55565b6020808252810161266081612da0565b6020808252810161266081612dd4565b6020808252810161266081612e01565b602081016126608284612f51565b600061314160405190565b905061314d828261320a565b919050565b600067ffffffffffffffff82111561316c5761316c613268565b5060200290565b600067ffffffffffffffff82111561318d5761318d613268565b601f19601f83011660200192915050565b600082198211156131b1576131b1613252565b500190565b6000828210156131c8576131c8613252565b500390565b60006001600160a01b038216612660565b60005b838110156131f95781810151838201526020016131e1565b83811115612eee5750506000910152565b601f19601f830116810181811067ffffffffffffffff8211171561323057613230613268565b6040525050565b600060001982141561324b5761324b613252565b5060010190565b634e487b7160e01b600052601160045260246000fd5b634e487b7160e01b600052604160045260246000fd5b613287816131cd565b811461250857600080fd5b801515613287565b6004811061250857600080fd5b6005811061250857600080fd5b6002811061250857600080fd5b8061328756fea2646970667358221220035c48aa8dd3a55bf147336ea17d12542b089cbac14b911c460495bc1c45da1a64736f6c63430008040033",
  "devdoc": {
    "kind": "dev",
    "methods": {
      "owner()": {
        "details": "Returns the address of the current owner."
      },
      "renounceOwnership()": {
        "details": "Leaves the contract without owner. It will not be possible to call `onlyOwner` functions anymore. Can only be called by the current owner. NOTE: Renouncing ownership will leave the contract without an owner, thereby removing any functionality that is only available to the owner."
      },
      "transferOwnership(address)": {
        "details": "Transfers ownership of the contract to a new account (`newOwner`). Can only be called by the current owner."
      }
    },
    "version": 1
  },
  "userdoc": {
    "kind": "user",
    "methods": {},
    "version": 1
  },
  "storageLayout": {
    "storage": [
      {
        "astId": 7,
        "contract": "contracts/DragonBreedingManager.sol:DragonBreedingManager",
        "label": "_owner",
        "offset": 0,
        "slot": "0",
        "type": "t_address"
      },
      {
        "astId": 8500,
        "contract": "contracts/DragonBreedingManager.sol:DragonBreedingManager",
        "label": "ageLimitInfo",
        "offset": 0,
        "slot": "1",
        "type": "t_mapping(t_enum(Age)8448,t_uint256)"
      },
      {
        "astId": 8510,
        "contract": "contracts/DragonBreedingManager.sol:DragonBreedingManager",
        "label": "stateRanges",
        "offset": 0,
        "slot": "2",
        "type": "t_array(t_array(t_array(t_array(t_uint256)2_storage)7_storage)4_storage)5_storage"
      },
      {
        "astId": 115,
        "contract": "contracts/DragonBreedingManager.sol:DragonBreedingManager",
        "label": "_status",
        "offset": 0,
        "slot": "282",
        "type": "t_uint256"
      },
      {
        "astId": 5276,
        "contract": "contracts/DragonBreedingManager.sol:DragonBreedingManager",
        "label": "dragonNFTAddress",
        "offset": 0,
        "slot": "283",
        "type": "t_address"
      },
      {
        "astId": 5279,
        "contract": "contracts/DragonBreedingManager.sol:DragonBreedingManager",
        "label": "durationRebreeding",
        "offset": 0,
        "slot": "284",
        "type": "t_uint256"
      },
      {
        "astId": 5282,
        "contract": "contracts/DragonBreedingManager.sol:DragonBreedingManager",
        "label": "duration",
        "offset": 0,
        "slot": "285",
        "type": "t_uint256"
      },
      {
        "astId": 5287,
        "contract": "contracts/DragonBreedingManager.sol:DragonBreedingManager",
        "label": "minAgeForBreeding",
        "offset": 0,
        "slot": "286",
        "type": "t_enum(Age)8448"
      },
      {
        "astId": 5291,
        "contract": "contracts/DragonBreedingManager.sol:DragonBreedingManager",
        "label": "breedlands",
        "offset": 0,
        "slot": "287",
        "type": "t_array(t_struct(BreedLand)5263_storage)dyn_storage"
      },
      {
        "astId": 5295,
        "contract": "contracts/DragonBreedingManager.sol:DragonBreedingManager",
        "label": "rentOrders",
        "offset": 0,
        "slot": "288",
        "type": "t_array(t_struct(RentOrder)5274_storage)dyn_storage"
      },
      {
        "astId": 5299,
        "contract": "contracts/DragonBreedingManager.sol:DragonBreedingManager",
        "label": "rentIDs",
        "offset": 0,
        "slot": "289",
        "type": "t_mapping(t_uint256,t_uint256)"
      },
      {
        "astId": 5303,
        "contract": "contracts/DragonBreedingManager.sol:DragonBreedingManager",
        "label": "breedIDs",
        "offset": 0,
        "slot": "290",
        "type": "t_mapping(t_uint256,t_uint256)"
      },
      {
        "astId": 5305,
        "contract": "contracts/DragonBreedingManager.sol:DragonBreedingManager",
        "label": "breedCount",
        "offset": 0,
        "slot": "291",
        "type": "t_uint256"
      },
      {
        "astId": 5307,
        "contract": "contracts/DragonBreedingManager.sol:DragonBreedingManager",
        "label": "rentCount",
        "offset": 0,
        "slot": "292",
        "type": "t_uint256"
      }
    ],
    "types": {
      "t_address": {
        "encoding": "inplace",
        "label": "address",
        "numberOfBytes": "20"
      },
      "t_array(t_array(t_array(t_array(t_uint256)2_storage)7_storage)4_storage)5_storage": {
        "base": "t_array(t_array(t_array(t_uint256)2_storage)7_storage)4_storage",
        "encoding": "inplace",
        "label": "uint256[2][7][4][5]",
        "numberOfBytes": "8960"
      },
      "t_array(t_array(t_array(t_uint256)2_storage)7_storage)4_storage": {
        "base": "t_array(t_array(t_uint256)2_storage)7_storage",
        "encoding": "inplace",
        "label": "uint256[2][7][4]",
        "numberOfBytes": "1792"
      },
      "t_array(t_array(t_uint256)2_storage)7_storage": {
        "base": "t_array(t_uint256)2_storage",
        "encoding": "inplace",
        "label": "uint256[2][7]",
        "numberOfBytes": "448"
      },
      "t_array(t_struct(BreedLand)5263_storage)dyn_storage": {
        "base": "t_struct(BreedLand)5263_storage",
        "encoding": "dynamic_array",
        "label": "struct DragonBreedingManager.BreedLand[]",
        "numberOfBytes": "32"
      },
      "t_array(t_struct(RentOrder)5274_storage)dyn_storage": {
        "base": "t_struct(RentOrder)5274_storage",
        "encoding": "dynamic_array",
        "label": "struct DragonBreedingManager.RentOrder[]",
        "numberOfBytes": "32"
      },
      "t_array(t_uint256)2_storage": {
        "base": "t_uint256",
        "encoding": "inplace",
        "label": "uint256[2]",
        "numberOfBytes": "64"
      },
      "t_bool": {
        "encoding": "inplace",
        "label": "bool",
        "numberOfBytes": "1"
      },
      "t_enum(Age)8448": {
        "encoding": "inplace",
        "label": "enum DragonBasic.Age",
        "numberOfBytes": "1"
      },
      "t_mapping(t_enum(Age)8448,t_uint256)": {
        "encoding": "mapping",
        "key": "t_enum(Age)8448",
        "label": "mapping(enum DragonBasic.Age => uint256)",
        "numberOfBytes": "32",
        "value": "t_uint256"
      },
      "t_mapping(t_uint256,t_uint256)": {
        "encoding": "mapping",
        "key": "t_uint256",
        "label": "mapping(uint256 => uint256)",
        "numberOfBytes": "32",
        "value": "t_uint256"
      },
      "t_struct(BreedLand)5263_storage": {
        "encoding": "inplace",
        "label": "struct DragonBreedingManager.BreedLand",
        "members": [
          {
            "astId": 5244,
            "contract": "contracts/DragonBreedingManager.sol:DragonBreedingManager",
            "label": "id",
            "offset": 0,
            "slot": "0",
            "type": "t_uint256"
          },
          {
            "astId": 5246,
            "contract": "contracts/DragonBreedingManager.sol:DragonBreedingManager",
            "label": "owner",
            "offset": 0,
            "slot": "1",
            "type": "t_address"
          },
          {
            "astId": 5248,
            "contract": "contracts/DragonBreedingManager.sol:DragonBreedingManager",
            "label": "father",
            "offset": 0,
            "slot": "2",
            "type": "t_uint256"
          },
          {
            "astId": 5250,
            "contract": "contracts/DragonBreedingManager.sol:DragonBreedingManager",
            "label": "mother",
            "offset": 0,
            "slot": "3",
            "type": "t_uint256"
          },
          {
            "astId": 5252,
            "contract": "contracts/DragonBreedingManager.sol:DragonBreedingManager",
            "label": "fatherOwner",
            "offset": 0,
            "slot": "4",
            "type": "t_address"
          },
          {
            "astId": 5254,
            "contract": "contracts/DragonBreedingManager.sol:DragonBreedingManager",
            "label": "motherOwner",
            "offset": 0,
            "slot": "5",
            "type": "t_address"
          },
          {
            "astId": 5256,
            "contract": "contracts/DragonBreedingManager.sol:DragonBreedingManager",
            "label": "startAt",
            "offset": 0,
            "slot": "6",
            "type": "t_uint256"
          },
          {
            "astId": 5258,
            "contract": "contracts/DragonBreedingManager.sol:DragonBreedingManager",
            "label": "pending",
            "offset": 0,
            "slot": "7",
            "type": "t_bool"
          },
          {
            "astId": 5260,
            "contract": "contracts/DragonBreedingManager.sol:DragonBreedingManager",
            "label": "isRent",
            "offset": 1,
            "slot": "7",
            "type": "t_bool"
          },
          {
            "astId": 5262,
            "contract": "contracts/DragonBreedingManager.sol:DragonBreedingManager",
            "label": "rentOrder",
            "offset": 0,
            "slot": "8",
            "type": "t_uint256"
          }
        ],
        "numberOfBytes": "288"
      },
      "t_struct(RentOrder)5274_storage": {
        "encoding": "inplace",
        "label": "struct DragonBreedingManager.RentOrder",
        "members": [
          {
            "astId": 5265,
            "contract": "contracts/DragonBreedingManager.sol:DragonBreedingManager",
            "label": "id",
            "offset": 0,
            "slot": "0",
            "type": "t_uint256"
          },
          {
            "astId": 5267,
            "contract": "contracts/DragonBreedingManager.sol:DragonBreedingManager",
            "label": "owner",
            "offset": 0,
            "slot": "1",
            "type": "t_address"
          },
          {
            "astId": 5269,
            "contract": "contracts/DragonBreedingManager.sol:DragonBreedingManager",
            "label": "tokenId",
            "offset": 0,
            "slot": "2",
            "type": "t_uint256"
          },
          {
            "astId": 5271,
            "contract": "contracts/DragonBreedingManager.sol:DragonBreedingManager",
            "label": "fee",
            "offset": 0,
            "slot": "3",
            "type": "t_uint256"
          },
          {
            "astId": 5273,
            "contract": "contracts/DragonBreedingManager.sol:DragonBreedingManager",
            "label": "enable",
            "offset": 0,
            "slot": "4",
            "type": "t_bool"
          }
        ],
        "numberOfBytes": "160"
      },
      "t_uint256": {
        "encoding": "inplace",
        "label": "uint256",
        "numberOfBytes": "32"
      }
    }
  }
}