{
  "address": "0x01064fB7CAd7c8551379BbA0E8115A5b1932ECE5",
  "abi": [
    {
      "inputs": [
        {
          "internalType": "address",
          "name": "_nftAddress",
          "type": "address"
        },
        {
          "internalType": "address",
          "name": "_avatarAddress",
          "type": "address"
        },
        {
          "internalType": "contract IERC20",
          "name": "_token",
          "type": "address"
        },
        {
          "internalType": "address",
          "name": "_signer",
          "type": "address"
        }
      ],
      "stateMutability": "nonpayable",
      "type": "constructor"
    },
    {
      "anonymous": false,
      "inputs": [
        {
          "indexed": true,
          "internalType": "address",
          "name": "previousOwner",
          "type": "address"
        },
        {
          "indexed": true,
          "internalType": "address",
          "name": "newOwner",
          "type": "address"
        }
      ],
      "name": "OwnershipTransferred",
      "type": "event"
    },
    {
      "inputs": [],
      "name": "avatarNFTAddress",
      "outputs": [
        {
          "internalType": "address",
          "name": "",
          "type": "address"
        }
      ],
      "stateMutability": "view",
      "type": "function"
    },
    {
      "inputs": [],
      "name": "getSigner",
      "outputs": [
        {
          "internalType": "address",
          "name": "",
          "type": "address"
        }
      ],
      "stateMutability": "view",
      "type": "function"
    },
    {
      "inputs": [
        {
          "internalType": "uint8",
          "name": "quantity",
          "type": "uint8"
        },
        {
          "internalType": "bytes",
          "name": "signature",
          "type": "bytes"
        },
        {
          "internalType": "string[]",
          "name": "names",
          "type": "string[]"
        }
      ],
      "name": "mintNFT",
      "outputs": [],
      "stateMutability": "payable",
      "type": "function"
    },
    {
      "inputs": [
        {
          "internalType": "uint8",
          "name": "quantity",
          "type": "uint8"
        },
        {
          "internalType": "bytes",
          "name": "signature",
          "type": "bytes"
        },
        {
          "internalType": "string[]",
          "name": "names",
          "type": "string[]"
        }
      ],
      "name": "mintNFTWithToken",
      "outputs": [],
      "stateMutability": "nonpayable",
      "type": "function"
    },
    {
      "inputs": [],
      "name": "nftAddress",
      "outputs": [
        {
          "internalType": "address",
          "name": "",
          "type": "address"
        }
      ],
      "stateMutability": "view",
      "type": "function"
    },
    {
      "inputs": [],
      "name": "owner",
      "outputs": [
        {
          "internalType": "address",
          "name": "",
          "type": "address"
        }
      ],
      "stateMutability": "view",
      "type": "function"
    },
    {
      "inputs": [],
      "name": "paymentToken",
      "outputs": [
        {
          "internalType": "contract IERC20",
          "name": "",
          "type": "address"
        }
      ],
      "stateMutability": "view",
      "type": "function"
    },
    {
      "inputs": [],
      "name": "priceInEth",
      "outputs": [
        {
          "internalType": "uint256",
          "name": "",
          "type": "uint256"
        }
      ],
      "stateMutability": "view",
      "type": "function"
    },
    {
      "inputs": [],
      "name": "priceInToken",
      "outputs": [
        {
          "internalType": "uint256",
          "name": "",
          "type": "uint256"
        }
      ],
      "stateMutability": "view",
      "type": "function"
    },
    {
      "inputs": [],
      "name": "renounceOwnership",
      "outputs": [],
      "stateMutability": "nonpayable",
      "type": "function"
    },
    {
      "inputs": [
        {
          "internalType": "address",
          "name": "_nftAddress",
          "type": "address"
        }
      ],
      "name": "setNFTAddress",
      "outputs": [],
      "stateMutability": "nonpayable",
      "type": "function"
    },
    {
      "inputs": [
        {
          "internalType": "contract IERC20",
          "name": "_token",
          "type": "address"
        }
      ],
      "name": "setPaymentToken",
      "outputs": [],
      "stateMutability": "nonpayable",
      "type": "function"
    },
    {
      "inputs": [
        {
          "internalType": "uint256",
          "name": "_priceInEth",
          "type": "uint256"
        }
      ],
      "name": "setPriceInEth",
      "outputs": [],
      "stateMutability": "nonpayable",
      "type": "function"
    },
    {
      "inputs": [
        {
          "internalType": "uint256",
          "name": "_priceInToken",
          "type": "uint256"
        }
      ],
      "name": "setPriceInToken",
      "outputs": [],
      "stateMutability": "nonpayable",
      "type": "function"
    },
    {
      "inputs": [
        {
          "internalType": "address",
          "name": "_signer",
          "type": "address"
        }
      ],
      "name": "setSigner",
      "outputs": [],
      "stateMutability": "nonpayable",
      "type": "function"
    },
    {
      "inputs": [],
      "name": "signer",
      "outputs": [
        {
          "internalType": "address",
          "name": "",
          "type": "address"
        }
      ],
      "stateMutability": "view",
      "type": "function"
    },
    {
      "inputs": [
        {
          "internalType": "address",
          "name": "newOwner",
          "type": "address"
        }
      ],
      "name": "transferOwnership",
      "outputs": [],
      "stateMutability": "nonpayable",
      "type": "function"
    },
    {
      "inputs": [
        {
          "internalType": "bytes",
          "name": "signature",
          "type": "bytes"
        },
        {
          "internalType": "address",
          "name": "_signer",
          "type": "address"
        }
      ],
      "name": "verifySigner",
      "outputs": [
        {
          "internalType": "bool",
          "name": "",
          "type": "bool"
        }
      ],
      "stateMutability": "view",
      "type": "function"
    }
  ],
  "transactionHash": "0x60ef9fd3c97a5298b4c67832a30390dd687053e5c95ff18228e12dc23eb99c47",
  "args": [
    "0x1BcefaDf8213Fb9Fc6418edF99E106bd61272744",
    "0x2b379a4F87Bc5eE27BE8e097dE31b8AB7CD818eA",
    "0xDF528584B780c7396A62E24Af3e33cFAD55146b0",
    "0xc09eAC15f9Ba6462e8E4612af7C431E1cfe08b87"
  ],
  "numDeployments": 1,
  "solcInputHash": "b474e0d835221309c977257c7f754341",
  "bytecode": "0x60806040523480156200001157600080fd5b506040516200190038038062001900833981016040819052620000349162000103565b6200003f3362000093565b600280546001600160a01b039586166001600160a01b0319918216179091556006805494861694821694909417909355600580549285169284169290921790915560018054919093169116179055620001b1565b600080546001600160a01b038381166001600160a01b0319831681178455604051919092169283917f8be0079c531659141344cd1fd0a4f28419497f9722a3daafe3b4186f6b6457e09190a35050565b8051620000f0816200018c565b92915050565b8051620000f081620001a6565b600080600080608085870312156200011a57600080fd5b6000620001288787620000e3565b94505060206200013b87828801620000e3565b93505060406200014e87828801620000f6565b92505060606200016187828801620000e3565b91505092959194509250565b60006001600160a01b038216620000f0565b6000620000f0826200016d565b62000197816200016d565b8114620001a357600080fd5b50565b62000197816200017f565b61173f80620001c16000396000f3fe6080604052600436106101095760003560e01c80638da5cb5b11610095578063c00eb6be11610064578063c00eb6be146102d1578063d8149ff7146102e4578063da1a7bc614610307578063f2fde38b14610327578063fdd760ea1461034757600080fd5b80638da5cb5b1461024657806393660fa614610264578063b9ae46ab14610284578063bbb43b0b146102b157600080fd5b806369d03738116100dc57806369d03738146101b35780636a326ab1146101d35780636c19e783146101f3578063715018a6146102135780637ac3c02f1461022857600080fd5b8063238ac9331461010e5780633013ce291461014457806348632461146101715780635bf8633a14610193575b600080fd5b34801561011a57600080fd5b5060015461012e906001600160a01b031681565b60405161013b91906113e1565b60405180910390f35b34801561015057600080fd5b50600554610164906001600160a01b031681565b60405161013b9190611490565b34801561017d57600080fd5b5061019161018c366004610ff5565b61035d565b005b34801561019f57600080fd5b5060025461012e906001600160a01b031681565b3480156101bf57600080fd5b506101916101ce366004610f11565b610395565b3480156101df57600080fd5b506101916101ee366004610fd7565b6103e1565b3480156101ff57600080fd5b5061019161020e366004610f11565b61042d565b34801561021f57600080fd5b5061019161049f565b34801561023457600080fd5b506001546001600160a01b031661012e565b34801561025257600080fd5b506000546001600160a01b031661012e565b34801561027057600080fd5b5061019161027f366004610ff5565b6104d5565b34801561029057600080fd5b506102a461029f366004610f82565b610504565b60405161013b919061144d565b3480156102bd57600080fd5b506101916102cc366004611013565b6105b5565b6101916102df366004611013565b610727565b3480156102f057600080fd5b506102fa60045481565b60405161013b919061154f565b34801561031357600080fd5b5060065461012e906001600160a01b031681565b34801561033357600080fd5b50610191610342366004610f11565b6107ea565b34801561035357600080fd5b506102fa60035481565b6000546001600160a01b031633146103905760405162461bcd60e51b8152600401610387906114ff565b60405180910390fd5b600355565b6000546001600160a01b031633146103bf5760405162461bcd60e51b8152600401610387906114ff565b600280546001600160a01b0319166001600160a01b0392909216919091179055565b6000546001600160a01b0316331461040b5760405162461bcd60e51b8152600401610387906114ff565b600580546001600160a01b0319166001600160a01b0392909216919091179055565b6000546001600160a01b031633146104575760405162461bcd60e51b8152600401610387906114ff565b6001600160a01b03811661047d5760405162461bcd60e51b81526004016103879061150f565b600180546001600160a01b0319166001600160a01b0392909216919091179055565b6000546001600160a01b031633146104c95760405162461bcd60e51b8152600401610387906114ff565b6104d36000610846565b565b6000546001600160a01b031633146104ff5760405162461bcd60e51b8152600401610387906114ff565b600455565b600080336040516020016105189190611391565b604051602081830303815290604052805190602001209050600061053b82610896565b9050600061057f8288888080601f0160208091040260200160405190810160405280939291908181526020018383808284376000920191909152506108c692505050565b90506001600160a01b038116158015906105aa5750846001600160a01b0316816001600160a01b0316145b979650505050505050565b6001546105ce90849084906001600160a01b0316610504565b6105ea5760405162461bcd60e51b81526004016103879061152f565b6105f3336108ec565b6106216040518060400160405280600d81526020016c24ba103430b99035b2b2b832b960991b815250610998565b60025460405163a5d4414b60e01b81526001600160a01b039091169063a5d4414b9061065590339088908690600401611417565b600060405180830381600087803b15801561066f57600080fd5b505af1158015610683573d6000803e3d6000fd5b50506005546004546001600160a01b0390911692506323b872dd9150339030906106b09060ff8a166115e0565b6040518463ffffffff1660e01b81526004016106ce939291906113ef565b602060405180830381600087803b1580156106e857600080fd5b505af11580156106fc573d6000803e3d6000fd5b505050506040513d601f19601f820116820180604052508101906107209190610f64565b5050505050565b60015461074090849084906001600160a01b0316610504565b61075c5760405162461bcd60e51b81526004016103879061152f565b610765336108ec565b60025460405163a5d4414b60e01b81526001600160a01b039091169063a5d4414b9061079990339088908690600401611417565b600060405180830381600087803b1580156107b357600080fd5b505af11580156107c7573d6000803e3d6000fd5b505050506107e48460ff166003546107df91906115e0565b6109db565b50505050565b6000546001600160a01b031633146108145760405162461bcd60e51b8152600401610387906114ff565b6001600160a01b03811661083a5760405162461bcd60e51b8152600401610387906114cf565b61084381610846565b50565b600080546001600160a01b038381166001600160a01b0319831681178455604051919092169283917f8be0079c531659141344cd1fd0a4f28419497f9722a3daafe3b4186f6b6457e09190a35050565b6000816040516020016108a991906113a6565b604051602081830303815290604052805190602001209050919050565b60008060006108d58585610a39565b915091506108e281610aa9565b5090505b92915050565b60065460405163e7e296df60e01b81526000916001600160a01b03169063e7e296df9061091d9085906004016113e1565b60006040518083038186803b15801561093557600080fd5b505afa158015610949573d6000803e3d6000fd5b505050506040513d6000823e601f3d908101601f191682016040526109719190810190610f2f565b905060008151116109945760405162461bcd60e51b81526004016103879061153f565b5050565b610843816040516024016109ac919061149e565b60408051601f198184030181529190526020810180516001600160e01b031663104c13eb60e21b179052610bd4565b803410156109fb5760405162461bcd60e51b81526004016103879061151f565b8034111561084357336108fc610a1183346115ff565b6040518115909202916000818181858888f19350505050158015610994573d6000803e3d6000fd5b600080825160411415610a705760208301516040840151606085015160001a610a6487828585610bf5565b94509450505050610aa2565b825160401415610a9a5760208301516040840151610a8f868383610cd5565b935093505050610aa2565b506000905060025b9250929050565b6000816004811115610acb57634e487b7160e01b600052602160045260246000fd5b1415610ad45750565b6001816004811115610af657634e487b7160e01b600052602160045260246000fd5b1415610b145760405162461bcd60e51b8152600401610387906114af565b6002816004811115610b3657634e487b7160e01b600052602160045260246000fd5b1415610b545760405162461bcd60e51b8152600401610387906114bf565b6003816004811115610b7657634e487b7160e01b600052602160045260246000fd5b1415610b945760405162461bcd60e51b8152600401610387906114df565b6004816004811115610bb657634e487b7160e01b600052602160045260246000fd5b14156108435760405162461bcd60e51b8152600401610387906114ef565b80516a636f6e736f6c652e6c6f67602083016000808483855afa5050505050565b6000807f7fffffffffffffffffffffffffffffff5d576e7357a4501ddfe92f46681b20a0831115610c2c5750600090506003610ccc565b8460ff16601b14158015610c4457508460ff16601c14155b15610c555750600090506004610ccc565b600060018787878760405160008152602001604052604051610c7a949392919061145b565b6020604051602081039080840390855afa158015610c9c573d6000803e3d6000fd5b5050604051601f1901519150506001600160a01b038116610cc557600060019250925050610ccc565b9150600090505b94509492505050565b6000806001600160ff1b03831681610cf260ff86901c601b6115c8565b9050610d0087828885610bf5565b935093505050935093915050565b6000610d21610d1c84611579565b61155d565b90508083825260208201905082856020860282011115610d4057600080fd5b60005b85811015610d8657813567ffffffffffffffff811115610d6257600080fd5b808601610d6f8982610ecf565b855250506020928301929190910190600101610d43565b5050509392505050565b6000610d9e610d1c84611579565b90508083825260208201905082856020860282011115610dbd57600080fd5b60005b85811015610d865781610dd38882610efb565b8452506020928301929190910190600101610dc0565b6000610df7610d1c8461159d565b905082815260208101848484011115610e0f57600080fd5b610e1a848285611632565b509392505050565b80356108e6816116d5565b600082601f830112610e3e57600080fd5b8135610e4e848260208601610d0e565b949350505050565b600082601f830112610e6757600080fd5b8151610e4e848260208601610d90565b80516108e6816116e9565b60008083601f840112610e9457600080fd5b50813567ffffffffffffffff811115610eac57600080fd5b602083019150836001820283011115610aa257600080fd5b80356108e6816116f1565b600082601f830112610ee057600080fd5b8135610e4e848260208601610de9565b80356108e6816116fa565b80516108e6816116fa565b80356108e681611700565b600060208284031215610f2357600080fd5b6000610e4e8484610e22565b600060208284031215610f4157600080fd5b815167ffffffffffffffff811115610f5857600080fd5b610e4e84828501610e56565b600060208284031215610f7657600080fd5b6000610e4e8484610e77565b600080600060408486031215610f9757600080fd5b833567ffffffffffffffff811115610fae57600080fd5b610fba86828701610e82565b93509350506020610fcd86828701610e22565b9150509250925092565b600060208284031215610fe957600080fd5b6000610e4e8484610ec4565b60006020828403121561100757600080fd5b6000610e4e8484610ef0565b6000806000806060858703121561102957600080fd5b60006110358787610f06565b945050602085013567ffffffffffffffff81111561105257600080fd5b61105e87828801610e82565b9350935050604085013567ffffffffffffffff81111561107d57600080fd5b61108987828801610e2d565b91505092959194509250565b60006110a18383611145565b9392505050565b6110b181611616565b82525050565b6110b16110c382611616565b611697565b60006110d2825190565b808452602084019350836020820285016110ec8560200190565b8060005b8581101561112157848403895281516111098582611095565b94506020830160209a909a01999250506001016110f0565b5091979650505050505050565b8015156110b1565b806110b1565b6110b181611627565b600061114f825190565b80845260208401935061116681856020860161163e565b601f01601f19169290920192915050565b601881526000602082017f45434453413a20696e76616c6964207369676e61747572650000000000000000815291505b5060200190565b601f81526000602082017f45434453413a20696e76616c6964207369676e6174757265206c656e67746800815291506111a7565b602681526000602082017f4f776e61626c653a206e6577206f776e657220697320746865207a65726f206181526564647265737360d01b602082015291505b5060400190565b602281526000602082017f45434453413a20696e76616c6964207369676e6174757265202773272076616c815261756560f01b60208201529150611221565b602281526000602082017f45434453413a20696e76616c6964207369676e6174757265202776272076616c815261756560f01b60208201529150611221565b60208082527f4f776e61626c653a2063616c6c6572206973206e6f7420746865206f776e6572910190815260006111a7565b600f81526000602082016e24b73b30b634b21039b4b3b732b91760891b815291506111a7565b60168152600060208201752732b2b2103a379039b2b7321036b7b9329022aa241760511b815291506111a7565b601281526000602082017124b73b30b634b21039b4b3b730ba3ab9329760711b815291506111a7565b601881526000602082017f596f75206e65656420746f2068617665206b65657065722e0000000000000000815291506111a7565b60ff81166110b1565b600061139d82846110b7565b50601401919050565b7f19457468657265756d205369676e6564204d6573736167653a0a3332000000008152601c0160006113d88284611136565b50602001919050565b602081016108e682846110a8565b606081016113fd82866110a8565b61140a60208301856110a8565b610e4e6040830184611136565b6060810161142582866110a8565b6114326020830185611388565b818103604083015261144481846110c8565b95945050505050565b602081016108e6828461112e565b608081016114698287611136565b6114766020830186611388565b6114836040830185611136565b6114446060830184611136565b602081016108e6828461113c565b602080825281016110a18184611145565b602080825281016108e681611177565b602080825281016108e6816111ae565b602080825281016108e6816111e2565b602080825281016108e681611228565b602080825281016108e681611267565b602080825281016108e6816112a6565b602080825281016108e6816112d8565b602080825281016108e6816112fe565b602080825281016108e68161132b565b602080825281016108e681611354565b602081016108e68284611136565b600061156860405190565b9050611574828261166a565b919050565b600067ffffffffffffffff821115611593576115936116bf565b5060209081020190565b600067ffffffffffffffff8211156115b7576115b76116bf565b601f19601f83011660200192915050565b600082198211156115db576115db6116a9565b500190565b60008160001904831182151516156115fa576115fa6116a9565b500290565b600082821015611611576116116116a9565b500390565b60006001600160a01b0382166108e6565b60006108e682611616565b82818337506000910152565b60005b83811015611659578181015183820152602001611641565b838111156107e45750506000910152565b601f19601f830116810181811067ffffffffffffffff82111715611690576116906116bf565b6040525050565b60006108e68260006108e68260601b90565b634e487b7160e01b600052601160045260246000fd5b634e487b7160e01b600052604160045260246000fd5b6116de81611616565b811461084357600080fd5b8015156116de565b6116de81611627565b806116de565b60ff81166116de56fea264697066735822122060085df5235f6367cf32b3ee6638e63ca580cd59c5063d9b8bcc286a72efabc864736f6c63430008040033",
  "devdoc": {
    "kind": "dev",
    "methods": {
      "owner()": {
        "details": "Returns the address of the current owner."
      },
      "renounceOwnership()": {
        "details": "Leaves the contract without owner. It will not be possible to call `onlyOwner` functions anymore. Can only be called by the current owner. NOTE: Renouncing ownership will leave the contract without an owner, thereby removing any functionality that is only available to the owner."
      },
      "transferOwnership(address)": {
        "details": "Transfers ownership of the contract to a new account (`newOwner`). Can only be called by the current owner."
      }
    },
    "version": 1
  },
  "userdoc": {
    "kind": "user",
    "methods": {},
    "version": 1
  },
  "storageLayout": {
    "storage": [
      {
        "astId": 7,
        "contract": "contracts/DragonSaleManger.sol:DragonSaleManager",
        "label": "_owner",
        "offset": 0,
        "slot": "0",
        "type": "t_address"
      },
      {
        "astId": 6673,
        "contract": "contracts/DragonSaleManger.sol:DragonSaleManager",
        "label": "signer",
        "offset": 0,
        "slot": "1",
        "type": "t_address"
      },
      {
        "astId": 6675,
        "contract": "contracts/DragonSaleManger.sol:DragonSaleManager",
        "label": "nftAddress",
        "offset": 0,
        "slot": "2",
        "type": "t_address"
      },
      {
        "astId": 6677,
        "contract": "contracts/DragonSaleManger.sol:DragonSaleManager",
        "label": "priceInEth",
        "offset": 0,
        "slot": "3",
        "type": "t_uint256"
      },
      {
        "astId": 6679,
        "contract": "contracts/DragonSaleManger.sol:DragonSaleManager",
        "label": "priceInToken",
        "offset": 0,
        "slot": "4",
        "type": "t_uint256"
      },
      {
        "astId": 6682,
        "contract": "contracts/DragonSaleManger.sol:DragonSaleManager",
        "label": "paymentToken",
        "offset": 0,
        "slot": "5",
        "type": "t_contract(IERC20)222"
      },
      {
        "astId": 6684,
        "contract": "contracts/DragonSaleManger.sol:DragonSaleManager",
        "label": "avatarNFTAddress",
        "offset": 0,
        "slot": "6",
        "type": "t_address"
      }
    ],
    "types": {
      "t_address": {
        "encoding": "inplace",
        "label": "address",
        "numberOfBytes": "20"
      },
      "t_contract(IERC20)222": {
        "encoding": "inplace",
        "label": "contract IERC20",
        "numberOfBytes": "20"
      },
      "t_uint256": {
        "encoding": "inplace",
        "label": "uint256",
        "numberOfBytes": "32"
      }
    }
  }
}